{
	"2. Solidity/Projet1/Voting.sol": {
		"Voting": {
			"abi": [
				{
					"inputs": [],
					"stateMutability": "nonpayable",
					"type": "constructor"
				},
				{
					"inputs": [
						{
							"internalType": "address",
							"name": "owner",
							"type": "address"
						}
					],
					"name": "OwnableInvalidOwner",
					"type": "error"
				},
				{
					"inputs": [
						{
							"internalType": "address",
							"name": "account",
							"type": "address"
						}
					],
					"name": "OwnableUnauthorizedAccount",
					"type": "error"
				},
				{
					"anonymous": false,
					"inputs": [
						{
							"indexed": true,
							"internalType": "address",
							"name": "previousOwner",
							"type": "address"
						},
						{
							"indexed": true,
							"internalType": "address",
							"name": "newOwner",
							"type": "address"
						}
					],
					"name": "OwnershipTransferred",
					"type": "event"
				},
				{
					"anonymous": false,
					"inputs": [
						{
							"indexed": false,
							"internalType": "uint256",
							"name": "proposalId",
							"type": "uint256"
						}
					],
					"name": "ProposalRegistered",
					"type": "event"
				},
				{
					"anonymous": false,
					"inputs": [
						{
							"indexed": false,
							"internalType": "address",
							"name": "voter",
							"type": "address"
						},
						{
							"indexed": false,
							"internalType": "uint256",
							"name": "proposalId",
							"type": "uint256"
						}
					],
					"name": "Voted",
					"type": "event"
				},
				{
					"anonymous": false,
					"inputs": [
						{
							"indexed": false,
							"internalType": "address",
							"name": "voterAddress",
							"type": "address"
						}
					],
					"name": "VoterRegistered",
					"type": "event"
				},
				{
					"anonymous": false,
					"inputs": [
						{
							"indexed": false,
							"internalType": "enum Voting.WorkflowStatus",
							"name": "previousStatus",
							"type": "uint8"
						},
						{
							"indexed": false,
							"internalType": "enum Voting.WorkflowStatus",
							"name": "newStatus",
							"type": "uint8"
						}
					],
					"name": "WorkflowStatusChange",
					"type": "event"
				},
				{
					"inputs": [
						{
							"internalType": "address",
							"name": "_voter",
							"type": "address"
						}
					],
					"name": "addWhitelist",
					"outputs": [],
					"stateMutability": "nonpayable",
					"type": "function"
				},
				{
					"inputs": [],
					"name": "countVote",
					"outputs": [],
					"stateMutability": "nonpayable",
					"type": "function"
				},
				{
					"inputs": [],
					"name": "currentWorkflowStatus",
					"outputs": [
						{
							"internalType": "enum Voting.WorkflowStatus",
							"name": "",
							"type": "uint8"
						}
					],
					"stateMutability": "view",
					"type": "function"
				},
				{
					"inputs": [],
					"name": "endProposalRegistration",
					"outputs": [],
					"stateMutability": "nonpayable",
					"type": "function"
				},
				{
					"inputs": [],
					"name": "endVotingSession",
					"outputs": [],
					"stateMutability": "nonpayable",
					"type": "function"
				},
				{
					"inputs": [],
					"name": "owner",
					"outputs": [
						{
							"internalType": "address",
							"name": "",
							"type": "address"
						}
					],
					"stateMutability": "view",
					"type": "function"
				},
				{
					"inputs": [
						{
							"internalType": "uint256",
							"name": "",
							"type": "uint256"
						}
					],
					"name": "proposals",
					"outputs": [
						{
							"internalType": "string",
							"name": "description",
							"type": "string"
						},
						{
							"internalType": "uint256",
							"name": "voteCount",
							"type": "uint256"
						}
					],
					"stateMutability": "view",
					"type": "function"
				},
				{
					"inputs": [
						{
							"internalType": "string",
							"name": "_proposal",
							"type": "string"
						}
					],
					"name": "propose",
					"outputs": [],
					"stateMutability": "nonpayable",
					"type": "function"
				},
				{
					"inputs": [],
					"name": "renounceOwnership",
					"outputs": [],
					"stateMutability": "nonpayable",
					"type": "function"
				},
				{
					"inputs": [],
					"name": "startProposalRegistration",
					"outputs": [],
					"stateMutability": "nonpayable",
					"type": "function"
				},
				{
					"inputs": [],
					"name": "startVotingSession",
					"outputs": [],
					"stateMutability": "nonpayable",
					"type": "function"
				},
				{
					"inputs": [
						{
							"internalType": "address",
							"name": "newOwner",
							"type": "address"
						}
					],
					"name": "transferOwnership",
					"outputs": [],
					"stateMutability": "nonpayable",
					"type": "function"
				},
				{
					"inputs": [
						{
							"internalType": "uint256",
							"name": "_voteProposalId",
							"type": "uint256"
						}
					],
					"name": "vote",
					"outputs": [],
					"stateMutability": "nonpayable",
					"type": "function"
				},
				{
					"inputs": [
						{
							"internalType": "address",
							"name": "",
							"type": "address"
						}
					],
					"name": "whitelist",
					"outputs": [
						{
							"internalType": "bool",
							"name": "isRegistered",
							"type": "bool"
						},
						{
							"internalType": "bool",
							"name": "hasVoted",
							"type": "bool"
						},
						{
							"internalType": "uint256",
							"name": "votedProposalId",
							"type": "uint256"
						}
					],
					"stateMutability": "view",
					"type": "function"
				},
				{
					"inputs": [],
					"name": "winningProposalId",
					"outputs": [
						{
							"internalType": "uint256",
							"name": "",
							"type": "uint256"
						}
					],
					"stateMutability": "view",
					"type": "function"
				}
			],
			"devdoc": {
				"errors": {
					"OwnableInvalidOwner(address)": [
						{
							"details": "The owner is not a valid owner account. (eg. `address(0)`)"
						}
					],
					"OwnableUnauthorizedAccount(address)": [
						{
							"details": "The caller account is not authorized to perform an operation."
						}
					]
				},
				"kind": "dev",
				"methods": {
					"owner()": {
						"details": "Returns the address of the current owner."
					},
					"renounceOwnership()": {
						"details": "Leaves the contract without owner. It will not be possible to call `onlyOwner` functions. Can only be called by the current owner. NOTE: Renouncing ownership will leave the contract without an owner, thereby disabling any functionality that is only available to the owner."
					},
					"transferOwnership(address)": {
						"details": "Transfers ownership of the contract to a new account (`newOwner`). Can only be called by the current owner."
					}
				},
				"version": 1
			},
			"evm": {
				"assembly": "    /* \"2. Solidity/Projet1/Voting.sol\":112:4190  contract Voting is Ownable {... */\n  mstore(0x40, 0x80)\n    /* \"2. Solidity/Projet1/Voting.sol\":545:636  constructor() Ownable(msg.sender){... */\n  callvalue\n  dup1\n  iszero\n  tag_1\n  jumpi\n  revert(0x00, 0x00)\ntag_1:\n  pop\n    /* \"2. Solidity/Projet1/Voting.sol\":567:577  msg.sender */\n  caller\n    /* \"@openzeppelin/contracts/access/Ownable.sol\":1297:1298  0 */\n  0x00\n    /* \"@openzeppelin/contracts/access/Ownable.sol\":1273:1299  initialOwner == address(0) */\n  0xffffffffffffffffffffffffffffffffffffffff\n  and\n    /* \"@openzeppelin/contracts/access/Ownable.sol\":1273:1285  initialOwner */\n  dup2\n    /* \"@openzeppelin/contracts/access/Ownable.sol\":1273:1299  initialOwner == address(0) */\n  0xffffffffffffffffffffffffffffffffffffffff\n  and\n  sub\n    /* \"@openzeppelin/contracts/access/Ownable.sol\":1269:1364  if (initialOwner == address(0)) {... */\n  tag_5\n  jumpi\n    /* \"@openzeppelin/contracts/access/Ownable.sol\":1350:1351  0 */\n  0x00\n    /* \"@openzeppelin/contracts/access/Ownable.sol\":1322:1353  OwnableInvalidOwner(address(0)) */\n  mload(0x40)\n  0x1e4fbdf700000000000000000000000000000000000000000000000000000000\n  dup2\n  mstore\n  0x04\n  add\n  tag_6\n  swap2\n  swap1\n  tag_7\n  jump\t// in\ntag_6:\n  mload(0x40)\n  dup1\n  swap2\n  sub\n  swap1\n  revert\n    /* \"@openzeppelin/contracts/access/Ownable.sol\":1269:1364  if (initialOwner == address(0)) {... */\ntag_5:\n    /* \"@openzeppelin/contracts/access/Ownable.sol\":1373:1405  _transferOwnership(initialOwner) */\n  tag_8\n    /* \"@openzeppelin/contracts/access/Ownable.sol\":1392:1404  initialOwner */\n  dup2\n    /* \"@openzeppelin/contracts/access/Ownable.sol\":1373:1391  _transferOwnership */\n  shl(0x20, tag_9)\n    /* \"@openzeppelin/contracts/access/Ownable.sol\":1373:1405  _transferOwnership(initialOwner) */\n  0x20\n  shr\n  jump\t// in\ntag_8:\n    /* \"@openzeppelin/contracts/access/Ownable.sol\":1225:1412  constructor(address initialOwner) {... */\n  pop\n    /* \"2. Solidity/Projet1/Voting.sol\":625:629  true */\n  0x01\n    /* \"2. Solidity/Projet1/Voting.sol\":588:597  whitelist */\n  0x04\n    /* \"2. Solidity/Projet1/Voting.sol\":588:609  whitelist[msg.sender] */\n  0x00\n    /* \"2. Solidity/Projet1/Voting.sol\":598:608  msg.sender */\n  caller\n    /* \"2. Solidity/Projet1/Voting.sol\":588:609  whitelist[msg.sender] */\n  0xffffffffffffffffffffffffffffffffffffffff\n  and\n  0xffffffffffffffffffffffffffffffffffffffff\n  and\n  dup2\n  mstore\n  0x20\n  add\n  swap1\n  dup2\n  mstore\n  0x20\n  add\n  0x00\n  keccak256\n    /* \"2. Solidity/Projet1/Voting.sol\":588:622  whitelist[msg.sender].isRegistered */\n  0x00\n  add\n  0x00\n    /* \"2. Solidity/Projet1/Voting.sol\":588:629  whitelist[msg.sender].isRegistered = true */\n  0x0100\n  exp\n  dup2\n  sload\n  dup2\n  0xff\n  mul\n  not\n  and\n  swap1\n  dup4\n  iszero\n  iszero\n  mul\n  or\n  swap1\n  sstore\n  pop\n    /* \"2. Solidity/Projet1/Voting.sol\":112:4190  contract Voting is Ownable {... */\n  jump(tag_11)\n    /* \"@openzeppelin/contracts/access/Ownable.sol\":2912:3099  function _transferOwnership(address newOwner) internal virtual {... */\ntag_9:\n    /* \"@openzeppelin/contracts/access/Ownable.sol\":2985:3001  address oldOwner */\n  0x00\n    /* \"@openzeppelin/contracts/access/Ownable.sol\":3004:3010  _owner */\n  0x00\n  0x00\n  swap1\n  sload\n  swap1\n  0x0100\n  exp\n  swap1\n  div\n  0xffffffffffffffffffffffffffffffffffffffff\n  and\n    /* \"@openzeppelin/contracts/access/Ownable.sol\":2985:3010  address oldOwner = _owner */\n  swap1\n  pop\n    /* \"@openzeppelin/contracts/access/Ownable.sol\":3029:3037  newOwner */\n  dup2\n    /* \"@openzeppelin/contracts/access/Ownable.sol\":3020:3026  _owner */\n  0x00\n  0x00\n    /* \"@openzeppelin/contracts/access/Ownable.sol\":3020:3037  _owner = newOwner */\n  0x0100\n  exp\n  dup2\n  sload\n  dup2\n  0xffffffffffffffffffffffffffffffffffffffff\n  mul\n  not\n  and\n  swap1\n  dup4\n  0xffffffffffffffffffffffffffffffffffffffff\n  and\n  mul\n  or\n  swap1\n  sstore\n  pop\n    /* \"@openzeppelin/contracts/access/Ownable.sol\":3083:3091  newOwner */\n  dup2\n    /* \"@openzeppelin/contracts/access/Ownable.sol\":3052:3092  OwnershipTransferred(oldOwner, newOwner) */\n  0xffffffffffffffffffffffffffffffffffffffff\n  and\n    /* \"@openzeppelin/contracts/access/Ownable.sol\":3073:3081  oldOwner */\n  dup2\n    /* \"@openzeppelin/contracts/access/Ownable.sol\":3052:3092  OwnershipTransferred(oldOwner, newOwner) */\n  0xffffffffffffffffffffffffffffffffffffffff\n  and\n  0x8be0079c531659141344cd1fd0a4f28419497f9722a3daafe3b4186f6b6457e0\n  mload(0x40)\n  mload(0x40)\n  dup1\n  swap2\n  sub\n  swap1\n  log3\n    /* \"@openzeppelin/contracts/access/Ownable.sol\":2975:3099  {... */\n  pop\n    /* \"@openzeppelin/contracts/access/Ownable.sol\":2912:3099  function _transferOwnership(address newOwner) internal virtual {... */\n  pop\n  jump\t// out\n    /* \"#utility.yul\":7:133   */\ntag_13:\n    /* \"#utility.yul\":44:51   */\n  0x00\n    /* \"#utility.yul\":84:126   */\n  0xffffffffffffffffffffffffffffffffffffffff\n    /* \"#utility.yul\":77:82   */\n  dup3\n    /* \"#utility.yul\":73:127   */\n  and\n    /* \"#utility.yul\":62:127   */\n  swap1\n  pop\n    /* \"#utility.yul\":7:133   */\n  swap2\n  swap1\n  pop\n  jump\t// out\n    /* \"#utility.yul\":139:235   */\ntag_14:\n    /* \"#utility.yul\":176:183   */\n  0x00\n    /* \"#utility.yul\":205:229   */\n  tag_19\n    /* \"#utility.yul\":223:228   */\n  dup3\n    /* \"#utility.yul\":205:229   */\n  tag_13\n  jump\t// in\ntag_19:\n    /* \"#utility.yul\":194:229   */\n  swap1\n  pop\n    /* \"#utility.yul\":139:235   */\n  swap2\n  swap1\n  pop\n  jump\t// out\n    /* \"#utility.yul\":241:359   */\ntag_15:\n    /* \"#utility.yul\":328:352   */\n  tag_21\n    /* \"#utility.yul\":346:351   */\n  dup2\n    /* \"#utility.yul\":328:352   */\n  tag_14\n  jump\t// in\ntag_21:\n    /* \"#utility.yul\":323:326   */\n  dup3\n    /* \"#utility.yul\":316:353   */\n  mstore\n    /* \"#utility.yul\":241:359   */\n  pop\n  pop\n  jump\t// out\n    /* \"#utility.yul\":365:587   */\ntag_7:\n    /* \"#utility.yul\":458:462   */\n  0x00\n    /* \"#utility.yul\":496:498   */\n  0x20\n    /* \"#utility.yul\":485:494   */\n  dup3\n    /* \"#utility.yul\":481:499   */\n  add\n    /* \"#utility.yul\":473:499   */\n  swap1\n  pop\n    /* \"#utility.yul\":509:580   */\n  tag_23\n    /* \"#utility.yul\":577:578   */\n  0x00\n    /* \"#utility.yul\":566:575   */\n  dup4\n    /* \"#utility.yul\":562:579   */\n  add\n    /* \"#utility.yul\":553:559   */\n  dup5\n    /* \"#utility.yul\":509:580   */\n  tag_15\n  jump\t// in\ntag_23:\n    /* \"#utility.yul\":365:587   */\n  swap3\n  swap2\n  pop\n  pop\n  jump\t// out\n    /* \"2. Solidity/Projet1/Voting.sol\":112:4190  contract Voting is Ownable {... */\ntag_11:\n  dataSize(sub_0)\n  dup1\n  dataOffset(sub_0)\n  0x00\n  codecopy\n  0x00\n  return\nstop\n\nsub_0: assembly {\n        /* \"2. Solidity/Projet1/Voting.sol\":112:4190  contract Voting is Ownable {... */\n      mstore(0x40, 0x80)\n      callvalue\n      dup1\n      iszero\n      tag_1\n      jumpi\n      revert(0x00, 0x00)\n    tag_1:\n      pop\n      jumpi(tag_2, lt(calldatasize, 0x04))\n      shr(0xe0, calldataload(0x00))\n      dup1\n      0xa7bfab16\n      gt\n      tag_18\n      jumpi\n      dup1\n      0xee74c678\n      gt\n      tag_19\n      jumpi\n      dup1\n      0xee74c678\n      eq\n      tag_14\n      jumpi\n      dup1\n      0xf2fde38b\n      eq\n      tag_15\n      jumpi\n      dup1\n      0xf7ad7645\n      eq\n      tag_16\n      jumpi\n      dup1\n      0xf80f5dd5\n      eq\n      tag_17\n      jumpi\n      jump(tag_2)\n    tag_19:\n      dup1\n      0xa7bfab16\n      eq\n      tag_10\n      jumpi\n      dup1\n      0xaa98df39\n      eq\n      tag_11\n      jumpi\n      dup1\n      0xc64963c5\n      eq\n      tag_12\n      jumpi\n      dup1\n      0xe85a8f2a\n      eq\n      tag_13\n      jumpi\n      jump(tag_2)\n    tag_18:\n      dup1\n      0x1a6cd2fd\n      gt\n      tag_20\n      jumpi\n      dup1\n      0x1a6cd2fd\n      eq\n      tag_6\n      jumpi\n      dup1\n      0x715018a6\n      eq\n      tag_7\n      jumpi\n      dup1\n      0x8da5cb5b\n      eq\n      tag_8\n      jumpi\n      dup1\n      0x9b19251a\n      eq\n      tag_9\n      jumpi\n      jump(tag_2)\n    tag_20:\n      dup1\n      0x0121b93f\n      eq\n      tag_3\n      jumpi\n      dup1\n      0x013cf08b\n      eq\n      tag_4\n      jumpi\n      dup1\n      0x0f7e2838\n      eq\n      tag_5\n      jumpi\n    tag_2:\n      revert(0x00, 0x00)\n        /* \"2. Solidity/Projet1/Voting.sol\":3077:3596  function vote(uint _voteProposalId) public isWhitelisted checkRightWorkflow(WorkflowStatus.VotingSessionStarted) {... */\n    tag_3:\n      tag_21\n      0x04\n      dup1\n      calldatasize\n      sub\n      dup2\n      add\n      swap1\n      tag_22\n      swap2\n      swap1\n      tag_23\n      jump\t// in\n    tag_22:\n      tag_24\n      jump\t// in\n    tag_21:\n      stop\n        /* \"2. Solidity/Projet1/Voting.sol\":962:989  Proposal[] public proposals */\n    tag_4:\n      tag_25\n      0x04\n      dup1\n      calldatasize\n      sub\n      dup2\n      add\n      swap1\n      tag_26\n      swap2\n      swap1\n      tag_23\n      jump\t// in\n    tag_26:\n      tag_27\n      jump\t// in\n    tag_25:\n      mload(0x40)\n      tag_28\n      swap3\n      swap2\n      swap1\n      tag_29\n      jump\t// in\n    tag_28:\n      mload(0x40)\n      dup1\n      swap2\n      sub\n      swap1\n      return\n        /* \"2. Solidity/Projet1/Voting.sol\":1617:1912  function startProposalRegistration() public checkRightWorkflow(WorkflowStatus.RegisteringVoters) {... */\n    tag_5:\n      tag_30\n      tag_31\n      jump\t// in\n    tag_30:\n      stop\n        /* \"2. Solidity/Projet1/Voting.sol\":3602:4188  function countVote() public onlyOwner checkRightWorkflow(WorkflowStatus.VotingSessionEnded) {... */\n    tag_6:\n      tag_32\n      tag_33\n      jump\t// in\n    tag_32:\n      stop\n        /* \"@openzeppelin/contracts/access/Ownable.sol\":2293:2394  function renounceOwnership() public virtual onlyOwner {... */\n    tag_7:\n      tag_34\n      tag_35\n      jump\t// in\n    tag_34:\n      stop\n        /* \"@openzeppelin/contracts/access/Ownable.sol\":1638:1723  function owner() public view virtual returns (address) {... */\n    tag_8:\n      tag_36\n      tag_37\n      jump\t// in\n    tag_36:\n      mload(0x40)\n      tag_38\n      swap2\n      swap1\n      tag_39\n      jump\t// in\n    tag_38:\n      mload(0x40)\n      dup1\n      swap2\n      sub\n      swap1\n      return\n        /* \"2. Solidity/Projet1/Voting.sol\":996:1038  mapping(address => Voter) public whitelist */\n    tag_9:\n      tag_40\n      0x04\n      dup1\n      calldatasize\n      sub\n      dup2\n      add\n      swap1\n      tag_41\n      swap2\n      swap1\n      tag_42\n      jump\t// in\n    tag_41:\n      tag_43\n      jump\t// in\n    tag_40:\n      mload(0x40)\n      tag_44\n      swap4\n      swap3\n      swap2\n      swap1\n      tag_45\n      jump\t// in\n    tag_44:\n      mload(0x40)\n      dup1\n      swap2\n      sub\n      swap1\n      return\n        /* \"2. Solidity/Projet1/Voting.sol\":2531:2803  function endVotingSession() public checkRightWorkflow(WorkflowStatus.VotingSessionStarted) {... */\n    tag_10:\n      tag_46\n      tag_47\n      jump\t// in\n    tag_46:\n      stop\n        /* \"2. Solidity/Projet1/Voting.sol\":2809:3071  function propose(string memory _proposal) public isWhitelisted checkRightWorkflow(WorkflowStatus.ProposalsRegistrationStarted) {... */\n    tag_11:\n      tag_48\n      0x04\n      dup1\n      calldatasize\n      sub\n      dup2\n      add\n      swap1\n      tag_49\n      swap2\n      swap1\n      tag_50\n      jump\t// in\n    tag_49:\n      tag_51\n      jump\t// in\n    tag_48:\n      stop\n        /* \"2. Solidity/Projet1/Voting.sol\":878:907  uint public winningProposalId */\n    tag_12:\n      tag_52\n      tag_53\n      jump\t// in\n    tag_52:\n      mload(0x40)\n      tag_54\n      swap2\n      swap1\n      tag_55\n      jump\t// in\n    tag_54:\n      mload(0x40)\n      dup1\n      swap2\n      sub\n      swap1\n      return\n        /* \"2. Solidity/Projet1/Voting.sol\":1918:2229  function endProposalRegistration() public checkRightWorkflow(WorkflowStatus.ProposalsRegistrationStarted) {... */\n    tag_13:\n      tag_56\n      tag_57\n      jump\t// in\n    tag_56:\n      stop\n        /* \"2. Solidity/Projet1/Voting.sol\":2235:2525  function startVotingSession() public checkRightWorkflow(WorkflowStatus.ProposalsRegistrationEnded) {... */\n    tag_14:\n      tag_58\n      tag_59\n      jump\t// in\n    tag_58:\n      stop\n        /* \"@openzeppelin/contracts/access/Ownable.sol\":2543:2758  function transferOwnership(address newOwner) public virtual onlyOwner {... */\n    tag_15:\n      tag_60\n      0x04\n      dup1\n      calldatasize\n      sub\n      dup2\n      add\n      swap1\n      tag_61\n      swap2\n      swap1\n      tag_42\n      jump\t// in\n    tag_61:\n      tag_62\n      jump\t// in\n    tag_60:\n      stop\n        /* \"2. Solidity/Projet1/Voting.sol\":913:956  WorkflowStatus public currentWorkflowStatus */\n    tag_16:\n      tag_63\n      tag_64\n      jump\t// in\n    tag_63:\n      mload(0x40)\n      tag_65\n      swap2\n      swap1\n      tag_66\n      jump\t// in\n    tag_65:\n      mload(0x40)\n      dup1\n      swap2\n      sub\n      swap1\n      return\n        /* \"2. Solidity/Projet1/Voting.sol\":1367:1611  function addWhitelist(address _voter) public onlyOwner {... */\n    tag_17:\n      tag_67\n      0x04\n      dup1\n      calldatasize\n      sub\n      dup2\n      add\n      swap1\n      tag_68\n      swap2\n      swap1\n      tag_42\n      jump\t// in\n    tag_68:\n      tag_69\n      jump\t// in\n    tag_67:\n      stop\n        /* \"2. Solidity/Projet1/Voting.sol\":3077:3596  function vote(uint _voteProposalId) public isWhitelisted checkRightWorkflow(WorkflowStatus.VotingSessionStarted) {... */\n    tag_24:\n        /* \"2. Solidity/Projet1/Voting.sol\":1312:1316  true */\n      0x01\n        /* \"2. Solidity/Projet1/Voting.sol\":1274:1316  whitelist[msg.sender].isRegistered == true */\n      iszero\n      iszero\n        /* \"2. Solidity/Projet1/Voting.sol\":1274:1283  whitelist */\n      0x04\n        /* \"2. Solidity/Projet1/Voting.sol\":1274:1295  whitelist[msg.sender] */\n      0x00\n        /* \"2. Solidity/Projet1/Voting.sol\":1284:1294  msg.sender */\n      caller\n        /* \"2. Solidity/Projet1/Voting.sol\":1274:1295  whitelist[msg.sender] */\n      0xffffffffffffffffffffffffffffffffffffffff\n      and\n      0xffffffffffffffffffffffffffffffffffffffff\n      and\n      dup2\n      mstore\n      0x20\n      add\n      swap1\n      dup2\n      mstore\n      0x20\n      add\n      0x00\n      keccak256\n        /* \"2. Solidity/Projet1/Voting.sol\":1274:1308  whitelist[msg.sender].isRegistered */\n      0x00\n      add\n      0x00\n      swap1\n      sload\n      swap1\n      0x0100\n      exp\n      swap1\n      div\n      0xff\n      and\n        /* \"2. Solidity/Projet1/Voting.sol\":1274:1316  whitelist[msg.sender].isRegistered == true */\n      iszero\n      iszero\n      eq\n        /* \"2. Solidity/Projet1/Voting.sol\":1266:1343  require(whitelist[msg.sender].isRegistered == true, \"You're not Whitelisted\") */\n      tag_71\n      jumpi\n      mload(0x40)\n      0x08c379a000000000000000000000000000000000000000000000000000000000\n      dup2\n      mstore\n      0x04\n      add\n      tag_72\n      swap1\n      tag_73\n      jump\t// in\n    tag_72:\n      mload(0x40)\n      dup1\n      swap2\n      sub\n      swap1\n      revert\n    tag_71:\n        /* \"2. Solidity/Projet1/Voting.sol\":3153:3188  WorkflowStatus.VotingSessionStarted */\n      0x03\n        /* \"2. Solidity/Projet1/Voting.sol\":1148:1163  _workflowStatus */\n      dup1\n        /* \"2. Solidity/Projet1/Voting.sol\":1123:1163  currentWorkflowStatus == _workflowStatus */\n      0x05\n      dup2\n      gt\n      iszero\n      tag_75\n      jumpi\n      tag_76\n      tag_77\n      jump\t// in\n    tag_76:\n    tag_75:\n        /* \"2. Solidity/Projet1/Voting.sol\":1123:1144  currentWorkflowStatus */\n      0x02\n      0x00\n      swap1\n      sload\n      swap1\n      0x0100\n      exp\n      swap1\n      div\n      0xff\n      and\n        /* \"2. Solidity/Projet1/Voting.sol\":1123:1163  currentWorkflowStatus == _workflowStatus */\n      0x05\n      dup2\n      gt\n      iszero\n      tag_78\n      jumpi\n      tag_79\n      tag_77\n      jump\t// in\n    tag_79:\n    tag_78:\n      eq\n        /* \"2. Solidity/Projet1/Voting.sol\":1115:1207  require(currentWorkflowStatus == _workflowStatus, \"You're not following the right Workflow\") */\n      tag_80\n      jumpi\n      mload(0x40)\n      0x08c379a000000000000000000000000000000000000000000000000000000000\n      dup2\n      mstore\n      0x04\n      add\n      tag_81\n      swap1\n      tag_82\n      jump\t// in\n    tag_81:\n      mload(0x40)\n      dup1\n      swap2\n      sub\n      swap1\n      revert\n    tag_80:\n        /* \"2. Solidity/Projet1/Voting.sol\":3242:3247  false */\n      0x00\n        /* \"2. Solidity/Projet1/Voting.sol\":3208:3247  whitelist[msg.sender].hasVoted == false */\n      iszero\n      iszero\n        /* \"2. Solidity/Projet1/Voting.sol\":3208:3217  whitelist */\n      0x04\n        /* \"2. Solidity/Projet1/Voting.sol\":3208:3229  whitelist[msg.sender] */\n      0x00\n        /* \"2. Solidity/Projet1/Voting.sol\":3218:3228  msg.sender */\n      caller\n        /* \"2. Solidity/Projet1/Voting.sol\":3208:3229  whitelist[msg.sender] */\n      0xffffffffffffffffffffffffffffffffffffffff\n      and\n      0xffffffffffffffffffffffffffffffffffffffff\n      and\n      dup2\n      mstore\n      0x20\n      add\n      swap1\n      dup2\n      mstore\n      0x20\n      add\n      0x00\n      keccak256\n        /* \"2. Solidity/Projet1/Voting.sol\":3208:3238  whitelist[msg.sender].hasVoted */\n      0x00\n      add\n      0x01\n      swap1\n      sload\n      swap1\n      0x0100\n      exp\n      swap1\n      div\n      0xff\n      and\n        /* \"2. Solidity/Projet1/Voting.sol\":3208:3247  whitelist[msg.sender].hasVoted == false */\n      iszero\n      iszero\n      eq\n        /* \"2. Solidity/Projet1/Voting.sol\":3200:3270  require(whitelist[msg.sender].hasVoted == false, \"You already voted!\") */\n      tag_84\n      jumpi\n      mload(0x40)\n      0x08c379a000000000000000000000000000000000000000000000000000000000\n      dup2\n      mstore\n      0x04\n      add\n      tag_85\n      swap1\n      tag_86\n      jump\t// in\n    tag_85:\n      mload(0x40)\n      dup1\n      swap2\n      sub\n      swap1\n      revert\n    tag_84:\n        /* \"2. Solidity/Projet1/Voting.sol\":3306:3315  proposals */\n      0x03\n        /* \"2. Solidity/Projet1/Voting.sol\":3306:3322  proposals.length */\n      dup1\n      sload\n      swap1\n      pop\n        /* \"2. Solidity/Projet1/Voting.sol\":3288:3303  _voteProposalId */\n      dup3\n        /* \"2. Solidity/Projet1/Voting.sol\":3288:3322  _voteProposalId < proposals.length */\n      lt\n        /* \"2. Solidity/Projet1/Voting.sol\":3280:3377  require(_voteProposalId < proposals.length, \"You tried to vote for a proposal who doesn't exist\") */\n      tag_87\n      jumpi\n      mload(0x40)\n      0x08c379a000000000000000000000000000000000000000000000000000000000\n      dup2\n      mstore\n      0x04\n      add\n      tag_88\n      swap1\n      tag_89\n      jump\t// in\n    tag_88:\n      mload(0x40)\n      dup1\n      swap2\n      sub\n      swap1\n      revert\n    tag_87:\n        /* \"2. Solidity/Projet1/Voting.sol\":3427:3428  1 */\n      0x01\n        /* \"2. Solidity/Projet1/Voting.sol\":3387:3396  proposals */\n      0x03\n        /* \"2. Solidity/Projet1/Voting.sol\":3397:3412  _voteProposalId */\n      dup4\n        /* \"2. Solidity/Projet1/Voting.sol\":3387:3413  proposals[_voteProposalId] */\n      dup2\n      sload\n      dup2\n      lt\n      tag_90\n      jumpi\n      tag_91\n      tag_92\n      jump\t// in\n    tag_91:\n    tag_90:\n      swap1\n      0x00\n      mstore\n      keccak256(0x00, 0x20)\n      swap1\n      0x02\n      mul\n      add\n        /* \"2. Solidity/Projet1/Voting.sol\":3387:3423  proposals[_voteProposalId].voteCount */\n      0x01\n      add\n      0x00\n        /* \"2. Solidity/Projet1/Voting.sol\":3387:3428  proposals[_voteProposalId].voteCount += 1 */\n      dup3\n      dup3\n      sload\n      tag_94\n      swap2\n      swap1\n      tag_95\n      jump\t// in\n    tag_94:\n      swap3\n      pop\n      pop\n      dup2\n      swap1\n      sstore\n      pop\n        /* \"2. Solidity/Projet1/Voting.sol\":3471:3475  true */\n      0x01\n        /* \"2. Solidity/Projet1/Voting.sol\":3438:3447  whitelist */\n      0x04\n        /* \"2. Solidity/Projet1/Voting.sol\":3438:3459  whitelist[msg.sender] */\n      0x00\n        /* \"2. Solidity/Projet1/Voting.sol\":3448:3458  msg.sender */\n      caller\n        /* \"2. Solidity/Projet1/Voting.sol\":3438:3459  whitelist[msg.sender] */\n      0xffffffffffffffffffffffffffffffffffffffff\n      and\n      0xffffffffffffffffffffffffffffffffffffffff\n      and\n      dup2\n      mstore\n      0x20\n      add\n      swap1\n      dup2\n      mstore\n      0x20\n      add\n      0x00\n      keccak256\n        /* \"2. Solidity/Projet1/Voting.sol\":3438:3468  whitelist[msg.sender].hasVoted */\n      0x00\n      add\n      0x01\n        /* \"2. Solidity/Projet1/Voting.sol\":3438:3475  whitelist[msg.sender].hasVoted = true */\n      0x0100\n      exp\n      dup2\n      sload\n      dup2\n      0xff\n      mul\n      not\n      and\n      swap1\n      dup4\n      iszero\n      iszero\n      mul\n      or\n      swap1\n      sstore\n      pop\n        /* \"2. Solidity/Projet1/Voting.sol\":3525:3540  _voteProposalId */\n      dup2\n        /* \"2. Solidity/Projet1/Voting.sol\":3485:3494  whitelist */\n      0x04\n        /* \"2. Solidity/Projet1/Voting.sol\":3485:3506  whitelist[msg.sender] */\n      0x00\n        /* \"2. Solidity/Projet1/Voting.sol\":3495:3505  msg.sender */\n      caller\n        /* \"2. Solidity/Projet1/Voting.sol\":3485:3506  whitelist[msg.sender] */\n      0xffffffffffffffffffffffffffffffffffffffff\n      and\n      0xffffffffffffffffffffffffffffffffffffffff\n      and\n      dup2\n      mstore\n      0x20\n      add\n      swap1\n      dup2\n      mstore\n      0x20\n      add\n      0x00\n      keccak256\n        /* \"2. Solidity/Projet1/Voting.sol\":3485:3522  whitelist[msg.sender].votedProposalId */\n      0x01\n      add\n        /* \"2. Solidity/Projet1/Voting.sol\":3485:3540  whitelist[msg.sender].votedProposalId = _voteProposalId */\n      dup2\n      swap1\n      sstore\n      pop\n        /* \"2. Solidity/Projet1/Voting.sol\":3555:3589  Voted(msg.sender, _voteProposalId) */\n      0x4d99b957a2bc29a30ebd96a7be8e68fe50a3c701db28a91436490b7d53870ca4\n        /* \"2. Solidity/Projet1/Voting.sol\":3561:3571  msg.sender */\n      caller\n        /* \"2. Solidity/Projet1/Voting.sol\":3573:3588  _voteProposalId */\n      dup4\n        /* \"2. Solidity/Projet1/Voting.sol\":3555:3589  Voted(msg.sender, _voteProposalId) */\n      mload(0x40)\n      tag_96\n      swap3\n      swap2\n      swap1\n      tag_97\n      jump\t// in\n    tag_96:\n      mload(0x40)\n      dup1\n      swap2\n      sub\n      swap1\n      log1\n        /* \"2. Solidity/Projet1/Voting.sol\":1353:1354  _ */\n      pop\n        /* \"2. Solidity/Projet1/Voting.sol\":3077:3596  function vote(uint _voteProposalId) public isWhitelisted checkRightWorkflow(WorkflowStatus.VotingSessionStarted) {... */\n      pop\n      jump\t// out\n        /* \"2. Solidity/Projet1/Voting.sol\":962:989  Proposal[] public proposals */\n    tag_27:\n      0x03\n      dup2\n      dup2\n      sload\n      dup2\n      lt\n      tag_98\n      jumpi\n      0x00\n      dup1\n      revert\n    tag_98:\n      swap1\n      0x00\n      mstore\n      keccak256(0x00, 0x20)\n      swap1\n      0x02\n      mul\n      add\n      0x00\n      swap2\n      pop\n      swap1\n      pop\n      dup1\n      0x00\n      add\n      dup1\n      sload\n      tag_100\n      swap1\n      tag_101\n      jump\t// in\n    tag_100:\n      dup1\n      0x1f\n      add\n      0x20\n      dup1\n      swap2\n      div\n      mul\n      0x20\n      add\n      mload(0x40)\n      swap1\n      dup2\n      add\n      0x40\n      mstore\n      dup1\n      swap3\n      swap2\n      swap1\n      dup2\n      dup2\n      mstore\n      0x20\n      add\n      dup3\n      dup1\n      sload\n      tag_102\n      swap1\n      tag_101\n      jump\t// in\n    tag_102:\n      dup1\n      iszero\n      tag_103\n      jumpi\n      dup1\n      0x1f\n      lt\n      tag_104\n      jumpi\n      0x0100\n      dup1\n      dup4\n      sload\n      div\n      mul\n      dup4\n      mstore\n      swap2\n      0x20\n      add\n      swap2\n      jump(tag_103)\n    tag_104:\n      dup3\n      add\n      swap2\n      swap1\n      0x00\n      mstore\n      keccak256(0x00, 0x20)\n      swap1\n    tag_105:\n      dup2\n      sload\n      dup2\n      mstore\n      swap1\n      0x01\n      add\n      swap1\n      0x20\n      add\n      dup1\n      dup4\n      gt\n      tag_105\n      jumpi\n      dup3\n      swap1\n      sub\n      0x1f\n      and\n      dup3\n      add\n      swap2\n    tag_103:\n      pop\n      pop\n      pop\n      pop\n      pop\n      swap1\n      dup1\n      0x01\n      add\n      sload\n      swap1\n      pop\n      dup3\n      jump\t// out\n        /* \"2. Solidity/Projet1/Voting.sol\":1617:1912  function startProposalRegistration() public checkRightWorkflow(WorkflowStatus.RegisteringVoters) {... */\n    tag_31:\n        /* \"2. Solidity/Projet1/Voting.sol\":1680:1712  WorkflowStatus.RegisteringVoters */\n      0x00\n        /* \"2. Solidity/Projet1/Voting.sol\":1148:1163  _workflowStatus */\n      dup1\n        /* \"2. Solidity/Projet1/Voting.sol\":1123:1163  currentWorkflowStatus == _workflowStatus */\n      0x05\n      dup2\n      gt\n      iszero\n      tag_107\n      jumpi\n      tag_108\n      tag_77\n      jump\t// in\n    tag_108:\n    tag_107:\n        /* \"2. Solidity/Projet1/Voting.sol\":1123:1144  currentWorkflowStatus */\n      0x02\n      0x00\n      swap1\n      sload\n      swap1\n      0x0100\n      exp\n      swap1\n      div\n      0xff\n      and\n        /* \"2. Solidity/Projet1/Voting.sol\":1123:1163  currentWorkflowStatus == _workflowStatus */\n      0x05\n      dup2\n      gt\n      iszero\n      tag_109\n      jumpi\n      tag_110\n      tag_77\n      jump\t// in\n    tag_110:\n    tag_109:\n      eq\n        /* \"2. Solidity/Projet1/Voting.sol\":1115:1207  require(currentWorkflowStatus == _workflowStatus, \"You're not following the right Workflow\") */\n      tag_111\n      jumpi\n      mload(0x40)\n      0x08c379a000000000000000000000000000000000000000000000000000000000\n      dup2\n      mstore\n      0x04\n      add\n      tag_112\n      swap1\n      tag_82\n      jump\t// in\n    tag_112:\n      mload(0x40)\n      dup1\n      swap2\n      sub\n      swap1\n      revert\n    tag_111:\n        /* \"2. Solidity/Projet1/Voting.sol\":1748:1791  WorkflowStatus.ProposalsRegistrationStarted */\n      0x01\n        /* \"2. Solidity/Projet1/Voting.sol\":1724:1745  currentWorkflowStatus */\n      0x02\n      0x00\n        /* \"2. Solidity/Projet1/Voting.sol\":1724:1791  currentWorkflowStatus = WorkflowStatus.ProposalsRegistrationStarted */\n      0x0100\n      exp\n      dup2\n      sload\n      dup2\n      0xff\n      mul\n      not\n      and\n      swap1\n      dup4\n      0x05\n      dup2\n      gt\n      iszero\n      tag_114\n      jumpi\n      tag_115\n      tag_77\n      jump\t// in\n    tag_115:\n    tag_114:\n      mul\n      or\n      swap1\n      sstore\n      pop\n        /* \"2. Solidity/Projet1/Voting.sol\":1806:1905  WorkflowStatusChange(WorkflowStatus.RegisteringVoters, WorkflowStatus.ProposalsRegistrationStarted) */\n      0x0a97a4ee45751e2abf3e4fc8946939630b11b371ea8ae39ccdc3056e98f5cc3f\n        /* \"2. Solidity/Projet1/Voting.sol\":1827:1859  WorkflowStatus.RegisteringVoters */\n      0x00\n        /* \"2. Solidity/Projet1/Voting.sol\":1861:1904  WorkflowStatus.ProposalsRegistrationStarted */\n      0x01\n        /* \"2. Solidity/Projet1/Voting.sol\":1806:1905  WorkflowStatusChange(WorkflowStatus.RegisteringVoters, WorkflowStatus.ProposalsRegistrationStarted) */\n      mload(0x40)\n      tag_116\n      swap3\n      swap2\n      swap1\n      tag_117\n      jump\t// in\n    tag_116:\n      mload(0x40)\n      dup1\n      swap2\n      sub\n      swap1\n      log1\n        /* \"2. Solidity/Projet1/Voting.sol\":1617:1912  function startProposalRegistration() public checkRightWorkflow(WorkflowStatus.RegisteringVoters) {... */\n      pop\n      jump\t// out\n        /* \"2. Solidity/Projet1/Voting.sol\":3602:4188  function countVote() public onlyOwner checkRightWorkflow(WorkflowStatus.VotingSessionEnded) {... */\n    tag_33:\n        /* \"@openzeppelin/contracts/access/Ownable.sol\":1531:1544  _checkOwner() */\n      tag_119\n        /* \"@openzeppelin/contracts/access/Ownable.sol\":1531:1542  _checkOwner */\n      tag_120\n        /* \"@openzeppelin/contracts/access/Ownable.sol\":1531:1544  _checkOwner() */\n      jump\t// in\n    tag_119:\n        /* \"2. Solidity/Projet1/Voting.sol\":3659:3692  WorkflowStatus.VotingSessionEnded */\n      0x04\n        /* \"2. Solidity/Projet1/Voting.sol\":1148:1163  _workflowStatus */\n      dup1\n        /* \"2. Solidity/Projet1/Voting.sol\":1123:1163  currentWorkflowStatus == _workflowStatus */\n      0x05\n      dup2\n      gt\n      iszero\n      tag_122\n      jumpi\n      tag_123\n      tag_77\n      jump\t// in\n    tag_123:\n    tag_122:\n        /* \"2. Solidity/Projet1/Voting.sol\":1123:1144  currentWorkflowStatus */\n      0x02\n      0x00\n      swap1\n      sload\n      swap1\n      0x0100\n      exp\n      swap1\n      div\n      0xff\n      and\n        /* \"2. Solidity/Projet1/Voting.sol\":1123:1163  currentWorkflowStatus == _workflowStatus */\n      0x05\n      dup2\n      gt\n      iszero\n      tag_124\n      jumpi\n      tag_125\n      tag_77\n      jump\t// in\n    tag_125:\n    tag_124:\n      eq\n        /* \"2. Solidity/Projet1/Voting.sol\":1115:1207  require(currentWorkflowStatus == _workflowStatus, \"You're not following the right Workflow\") */\n      tag_126\n      jumpi\n      mload(0x40)\n      0x08c379a000000000000000000000000000000000000000000000000000000000\n      dup2\n      mstore\n      0x04\n      add\n      tag_127\n      swap1\n      tag_82\n      jump\t// in\n    tag_127:\n      mload(0x40)\n      dup1\n      swap2\n      sub\n      swap1\n      revert\n    tag_126:\n        /* \"2. Solidity/Projet1/Voting.sol\":3704:3728  uint mostVotedProposalId */\n      0x00\n        /* \"2. Solidity/Projet1/Voting.sol\":3738:3751  uint mostVote */\n      0x00\n        /* \"2. Solidity/Projet1/Voting.sol\":3766:3772  uint i */\n      0x00\n        /* \"2. Solidity/Projet1/Voting.sol\":3773:3774  0 */\n      0x00\n        /* \"2. Solidity/Projet1/Voting.sol\":3766:3774  uint i=0 */\n      swap1\n      pop\n        /* \"2. Solidity/Projet1/Voting.sol\":3762:3972  for(uint i=0; i < proposals.length; i++) {... */\n    tag_129:\n        /* \"2. Solidity/Projet1/Voting.sol\":3780:3789  proposals */\n      0x03\n        /* \"2. Solidity/Projet1/Voting.sol\":3780:3796  proposals.length */\n      dup1\n      sload\n      swap1\n      pop\n        /* \"2. Solidity/Projet1/Voting.sol\":3776:3777  i */\n      dup2\n        /* \"2. Solidity/Projet1/Voting.sol\":3776:3796  i < proposals.length */\n      lt\n        /* \"2. Solidity/Projet1/Voting.sol\":3762:3972  for(uint i=0; i < proposals.length; i++) {... */\n      iszero\n      tag_130\n      jumpi\n        /* \"2. Solidity/Projet1/Voting.sol\":3845:3853  mostVote */\n      dup2\n        /* \"2. Solidity/Projet1/Voting.sol\":3820:3829  proposals */\n      0x03\n        /* \"2. Solidity/Projet1/Voting.sol\":3830:3831  i */\n      dup3\n        /* \"2. Solidity/Projet1/Voting.sol\":3820:3832  proposals[i] */\n      dup2\n      sload\n      dup2\n      lt\n      tag_132\n      jumpi\n      tag_133\n      tag_92\n      jump\t// in\n    tag_133:\n    tag_132:\n      swap1\n      0x00\n      mstore\n      keccak256(0x00, 0x20)\n      swap1\n      0x02\n      mul\n      add\n        /* \"2. Solidity/Projet1/Voting.sol\":3820:3842  proposals[i].voteCount */\n      0x01\n      add\n      sload\n        /* \"2. Solidity/Projet1/Voting.sol\":3820:3853  proposals[i].voteCount > mostVote */\n      gt\n        /* \"2. Solidity/Projet1/Voting.sol\":3817:3962  if(proposals[i].voteCount > mostVote) {... */\n      iszero\n      tag_135\n      jumpi\n        /* \"2. Solidity/Projet1/Voting.sol\":3884:3893  proposals */\n      0x03\n        /* \"2. Solidity/Projet1/Voting.sol\":3894:3895  i */\n      dup2\n        /* \"2. Solidity/Projet1/Voting.sol\":3884:3896  proposals[i] */\n      dup2\n      sload\n      dup2\n      lt\n      tag_136\n      jumpi\n      tag_137\n      tag_92\n      jump\t// in\n    tag_137:\n    tag_136:\n      swap1\n      0x00\n      mstore\n      keccak256(0x00, 0x20)\n      swap1\n      0x02\n      mul\n      add\n        /* \"2. Solidity/Projet1/Voting.sol\":3884:3906  proposals[i].voteCount */\n      0x01\n      add\n      sload\n        /* \"2. Solidity/Projet1/Voting.sol\":3873:3906  mostVote = proposals[i].voteCount */\n      swap2\n      pop\n        /* \"2. Solidity/Projet1/Voting.sol\":3946:3947  i */\n      dup1\n        /* \"2. Solidity/Projet1/Voting.sol\":3924:3947  mostVotedProposalId = i */\n      swap3\n      pop\n        /* \"2. Solidity/Projet1/Voting.sol\":3817:3962  if(proposals[i].voteCount > mostVote) {... */\n    tag_135:\n        /* \"2. Solidity/Projet1/Voting.sol\":3798:3801  i++ */\n      dup1\n      dup1\n      0x01\n      add\n      swap2\n      pop\n      pop\n        /* \"2. Solidity/Projet1/Voting.sol\":3762:3972  for(uint i=0; i < proposals.length; i++) {... */\n      jump(tag_129)\n    tag_130:\n      pop\n        /* \"2. Solidity/Projet1/Voting.sol\":4006:4033  WorkflowStatus.VotesTallied */\n      0x05\n        /* \"2. Solidity/Projet1/Voting.sol\":3982:4003  currentWorkflowStatus */\n      0x02\n      0x00\n        /* \"2. Solidity/Projet1/Voting.sol\":3982:4033  currentWorkflowStatus = WorkflowStatus.VotesTallied */\n      0x0100\n      exp\n      dup2\n      sload\n      dup2\n      0xff\n      mul\n      not\n      and\n      swap1\n      dup4\n      0x05\n      dup2\n      gt\n      iszero\n      tag_139\n      jumpi\n      tag_140\n      tag_77\n      jump\t// in\n    tag_140:\n    tag_139:\n      mul\n      or\n      swap1\n      sstore\n      pop\n        /* \"2. Solidity/Projet1/Voting.sol\":4048:4132  WorkflowStatusChange(WorkflowStatus.VotingSessionEnded, WorkflowStatus.VotesTallied) */\n      0x0a97a4ee45751e2abf3e4fc8946939630b11b371ea8ae39ccdc3056e98f5cc3f\n        /* \"2. Solidity/Projet1/Voting.sol\":4069:4102  WorkflowStatus.VotingSessionEnded */\n      0x04\n        /* \"2. Solidity/Projet1/Voting.sol\":4104:4131  WorkflowStatus.VotesTallied */\n      0x05\n        /* \"2. Solidity/Projet1/Voting.sol\":4048:4132  WorkflowStatusChange(WorkflowStatus.VotingSessionEnded, WorkflowStatus.VotesTallied) */\n      mload(0x40)\n      tag_141\n      swap3\n      swap2\n      swap1\n      tag_117\n      jump\t// in\n    tag_141:\n      mload(0x40)\n      dup1\n      swap2\n      sub\n      swap1\n      log1\n        /* \"2. Solidity/Projet1/Voting.sol\":4162:4181  mostVotedProposalId */\n      dup2\n        /* \"2. Solidity/Projet1/Voting.sol\":4142:4159  winningProposalId */\n      0x01\n        /* \"2. Solidity/Projet1/Voting.sol\":4142:4181  winningProposalId = mostVotedProposalId */\n      dup2\n      swap1\n      sstore\n      pop\n        /* \"2. Solidity/Projet1/Voting.sol\":3694:4188  {... */\n      pop\n      pop\n        /* \"@openzeppelin/contracts/access/Ownable.sol\":1554:1555  _ */\n      pop\n        /* \"2. Solidity/Projet1/Voting.sol\":3602:4188  function countVote() public onlyOwner checkRightWorkflow(WorkflowStatus.VotingSessionEnded) {... */\n      jump\t// out\n        /* \"@openzeppelin/contracts/access/Ownable.sol\":2293:2394  function renounceOwnership() public virtual onlyOwner {... */\n    tag_35:\n        /* \"@openzeppelin/contracts/access/Ownable.sol\":1531:1544  _checkOwner() */\n      tag_143\n        /* \"@openzeppelin/contracts/access/Ownable.sol\":1531:1542  _checkOwner */\n      tag_120\n        /* \"@openzeppelin/contracts/access/Ownable.sol\":1531:1544  _checkOwner() */\n      jump\t// in\n    tag_143:\n        /* \"@openzeppelin/contracts/access/Ownable.sol\":2357:2387  _transferOwnership(address(0)) */\n      tag_145\n        /* \"@openzeppelin/contracts/access/Ownable.sol\":2384:2385  0 */\n      0x00\n        /* \"@openzeppelin/contracts/access/Ownable.sol\":2357:2375  _transferOwnership */\n      tag_146\n        /* \"@openzeppelin/contracts/access/Ownable.sol\":2357:2387  _transferOwnership(address(0)) */\n      jump\t// in\n    tag_145:\n        /* \"@openzeppelin/contracts/access/Ownable.sol\":2293:2394  function renounceOwnership() public virtual onlyOwner {... */\n      jump\t// out\n        /* \"@openzeppelin/contracts/access/Ownable.sol\":1638:1723  function owner() public view virtual returns (address) {... */\n    tag_37:\n        /* \"@openzeppelin/contracts/access/Ownable.sol\":1684:1691  address */\n      0x00\n        /* \"@openzeppelin/contracts/access/Ownable.sol\":1710:1716  _owner */\n      0x00\n      0x00\n      swap1\n      sload\n      swap1\n      0x0100\n      exp\n      swap1\n      div\n      0xffffffffffffffffffffffffffffffffffffffff\n      and\n        /* \"@openzeppelin/contracts/access/Ownable.sol\":1703:1716  return _owner */\n      swap1\n      pop\n        /* \"@openzeppelin/contracts/access/Ownable.sol\":1638:1723  function owner() public view virtual returns (address) {... */\n      swap1\n      jump\t// out\n        /* \"2. Solidity/Projet1/Voting.sol\":996:1038  mapping(address => Voter) public whitelist */\n    tag_43:\n      mstore(0x20, 0x04)\n      dup1\n      0x00\n      mstore\n      keccak256(0x00, 0x40)\n      0x00\n      swap2\n      pop\n      swap1\n      pop\n      dup1\n      0x00\n      add\n      0x00\n      swap1\n      sload\n      swap1\n      0x0100\n      exp\n      swap1\n      div\n      0xff\n      and\n      swap1\n      dup1\n      0x00\n      add\n      0x01\n      swap1\n      sload\n      swap1\n      0x0100\n      exp\n      swap1\n      div\n      0xff\n      and\n      swap1\n      dup1\n      0x01\n      add\n      sload\n      swap1\n      pop\n      dup4\n      jump\t// out\n        /* \"2. Solidity/Projet1/Voting.sol\":2531:2803  function endVotingSession() public checkRightWorkflow(WorkflowStatus.VotingSessionStarted) {... */\n    tag_47:\n        /* \"2. Solidity/Projet1/Voting.sol\":2585:2620  WorkflowStatus.VotingSessionStarted */\n      0x03\n        /* \"2. Solidity/Projet1/Voting.sol\":1148:1163  _workflowStatus */\n      dup1\n        /* \"2. Solidity/Projet1/Voting.sol\":1123:1163  currentWorkflowStatus == _workflowStatus */\n      0x05\n      dup2\n      gt\n      iszero\n      tag_149\n      jumpi\n      tag_150\n      tag_77\n      jump\t// in\n    tag_150:\n    tag_149:\n        /* \"2. Solidity/Projet1/Voting.sol\":1123:1144  currentWorkflowStatus */\n      0x02\n      0x00\n      swap1\n      sload\n      swap1\n      0x0100\n      exp\n      swap1\n      div\n      0xff\n      and\n        /* \"2. Solidity/Projet1/Voting.sol\":1123:1163  currentWorkflowStatus == _workflowStatus */\n      0x05\n      dup2\n      gt\n      iszero\n      tag_151\n      jumpi\n      tag_152\n      tag_77\n      jump\t// in\n    tag_152:\n    tag_151:\n      eq\n        /* \"2. Solidity/Projet1/Voting.sol\":1115:1207  require(currentWorkflowStatus == _workflowStatus, \"You're not following the right Workflow\") */\n      tag_153\n      jumpi\n      mload(0x40)\n      0x08c379a000000000000000000000000000000000000000000000000000000000\n      dup2\n      mstore\n      0x04\n      add\n      tag_154\n      swap1\n      tag_82\n      jump\t// in\n    tag_154:\n      mload(0x40)\n      dup1\n      swap2\n      sub\n      swap1\n      revert\n    tag_153:\n        /* \"2. Solidity/Projet1/Voting.sol\":2656:2689  WorkflowStatus.VotingSessionEnded */\n      0x04\n        /* \"2. Solidity/Projet1/Voting.sol\":2632:2653  currentWorkflowStatus */\n      0x02\n      0x00\n        /* \"2. Solidity/Projet1/Voting.sol\":2632:2689  currentWorkflowStatus = WorkflowStatus.VotingSessionEnded */\n      0x0100\n      exp\n      dup2\n      sload\n      dup2\n      0xff\n      mul\n      not\n      and\n      swap1\n      dup4\n      0x05\n      dup2\n      gt\n      iszero\n      tag_156\n      jumpi\n      tag_157\n      tag_77\n      jump\t// in\n    tag_157:\n    tag_156:\n      mul\n      or\n      swap1\n      sstore\n      pop\n        /* \"2. Solidity/Projet1/Voting.sol\":2704:2796  WorkflowStatusChange(WorkflowStatus.VotingSessionStarted, WorkflowStatus.VotingSessionEnded) */\n      0x0a97a4ee45751e2abf3e4fc8946939630b11b371ea8ae39ccdc3056e98f5cc3f\n        /* \"2. Solidity/Projet1/Voting.sol\":2725:2760  WorkflowStatus.VotingSessionStarted */\n      0x03\n        /* \"2. Solidity/Projet1/Voting.sol\":2762:2795  WorkflowStatus.VotingSessionEnded */\n      0x04\n        /* \"2. Solidity/Projet1/Voting.sol\":2704:2796  WorkflowStatusChange(WorkflowStatus.VotingSessionStarted, WorkflowStatus.VotingSessionEnded) */\n      mload(0x40)\n      tag_158\n      swap3\n      swap2\n      swap1\n      tag_117\n      jump\t// in\n    tag_158:\n      mload(0x40)\n      dup1\n      swap2\n      sub\n      swap1\n      log1\n        /* \"2. Solidity/Projet1/Voting.sol\":2531:2803  function endVotingSession() public checkRightWorkflow(WorkflowStatus.VotingSessionStarted) {... */\n      pop\n      jump\t// out\n        /* \"2. Solidity/Projet1/Voting.sol\":2809:3071  function propose(string memory _proposal) public isWhitelisted checkRightWorkflow(WorkflowStatus.ProposalsRegistrationStarted) {... */\n    tag_51:\n        /* \"2. Solidity/Projet1/Voting.sol\":1312:1316  true */\n      0x01\n        /* \"2. Solidity/Projet1/Voting.sol\":1274:1316  whitelist[msg.sender].isRegistered == true */\n      iszero\n      iszero\n        /* \"2. Solidity/Projet1/Voting.sol\":1274:1283  whitelist */\n      0x04\n        /* \"2. Solidity/Projet1/Voting.sol\":1274:1295  whitelist[msg.sender] */\n      0x00\n        /* \"2. Solidity/Projet1/Voting.sol\":1284:1294  msg.sender */\n      caller\n        /* \"2. Solidity/Projet1/Voting.sol\":1274:1295  whitelist[msg.sender] */\n      0xffffffffffffffffffffffffffffffffffffffff\n      and\n      0xffffffffffffffffffffffffffffffffffffffff\n      and\n      dup2\n      mstore\n      0x20\n      add\n      swap1\n      dup2\n      mstore\n      0x20\n      add\n      0x00\n      keccak256\n        /* \"2. Solidity/Projet1/Voting.sol\":1274:1308  whitelist[msg.sender].isRegistered */\n      0x00\n      add\n      0x00\n      swap1\n      sload\n      swap1\n      0x0100\n      exp\n      swap1\n      div\n      0xff\n      and\n        /* \"2. Solidity/Projet1/Voting.sol\":1274:1316  whitelist[msg.sender].isRegistered == true */\n      iszero\n      iszero\n      eq\n        /* \"2. Solidity/Projet1/Voting.sol\":1266:1343  require(whitelist[msg.sender].isRegistered == true, \"You're not Whitelisted\") */\n      tag_160\n      jumpi\n      mload(0x40)\n      0x08c379a000000000000000000000000000000000000000000000000000000000\n      dup2\n      mstore\n      0x04\n      add\n      tag_161\n      swap1\n      tag_73\n      jump\t// in\n    tag_161:\n      mload(0x40)\n      dup1\n      swap2\n      sub\n      swap1\n      revert\n    tag_160:\n        /* \"2. Solidity/Projet1/Voting.sol\":2891:2934  WorkflowStatus.ProposalsRegistrationStarted */\n      0x01\n        /* \"2. Solidity/Projet1/Voting.sol\":1148:1163  _workflowStatus */\n      dup1\n        /* \"2. Solidity/Projet1/Voting.sol\":1123:1163  currentWorkflowStatus == _workflowStatus */\n      0x05\n      dup2\n      gt\n      iszero\n      tag_163\n      jumpi\n      tag_164\n      tag_77\n      jump\t// in\n    tag_164:\n    tag_163:\n        /* \"2. Solidity/Projet1/Voting.sol\":1123:1144  currentWorkflowStatus */\n      0x02\n      0x00\n      swap1\n      sload\n      swap1\n      0x0100\n      exp\n      swap1\n      div\n      0xff\n      and\n        /* \"2. Solidity/Projet1/Voting.sol\":1123:1163  currentWorkflowStatus == _workflowStatus */\n      0x05\n      dup2\n      gt\n      iszero\n      tag_165\n      jumpi\n      tag_166\n      tag_77\n      jump\t// in\n    tag_166:\n    tag_165:\n      eq\n        /* \"2. Solidity/Projet1/Voting.sol\":1115:1207  require(currentWorkflowStatus == _workflowStatus, \"You're not following the right Workflow\") */\n      tag_167\n      jumpi\n      mload(0x40)\n      0x08c379a000000000000000000000000000000000000000000000000000000000\n      dup2\n      mstore\n      0x04\n      add\n      tag_168\n      swap1\n      tag_82\n      jump\t// in\n    tag_168:\n      mload(0x40)\n      dup1\n      swap2\n      sub\n      swap1\n      revert\n    tag_167:\n        /* \"2. Solidity/Projet1/Voting.sol\":2946:2955  proposals */\n      0x03\n        /* \"2. Solidity/Projet1/Voting.sol\":2961:3009  Proposal({description: _proposal, voteCount: 0}) */\n      mload(0x40)\n      dup1\n      0x40\n      add\n      0x40\n      mstore\n      dup1\n        /* \"2. Solidity/Projet1/Voting.sol\":2984:2993  _proposal */\n      dup5\n        /* \"2. Solidity/Projet1/Voting.sol\":2961:3009  Proposal({description: _proposal, voteCount: 0}) */\n      dup2\n      mstore\n      0x20\n      add\n        /* \"2. Solidity/Projet1/Voting.sol\":3006:3007  0 */\n      0x00\n        /* \"2. Solidity/Projet1/Voting.sol\":2961:3009  Proposal({description: _proposal, voteCount: 0}) */\n      dup2\n      mstore\n      pop\n        /* \"2. Solidity/Projet1/Voting.sol\":2946:3010  proposals.push(Proposal({description: _proposal, voteCount: 0})) */\n      swap1\n      dup1\n      0x01\n      dup2\n      sload\n      add\n      dup1\n      dup3\n      sstore\n      dup1\n      swap2\n      pop\n      pop\n      0x01\n      swap1\n      sub\n      swap1\n      0x00\n      mstore\n      keccak256(0x00, 0x20)\n      swap1\n      0x02\n      mul\n      add\n      0x00\n      swap1\n      swap2\n      swap1\n      swap2\n      swap1\n      swap2\n      pop\n      0x00\n      dup3\n      add\n      mload\n      dup2\n      0x00\n      add\n      swap1\n      dup2\n      tag_171\n      swap2\n      swap1\n      tag_172\n      jump\t// in\n    tag_171:\n      pop\n      0x20\n      dup3\n      add\n      mload\n      dup2\n      0x01\n      add\n      sstore\n      pop\n      pop\n        /* \"2. Solidity/Projet1/Voting.sol\":3025:3064  ProposalRegistered(proposals.length -1) */\n      0x92e393e9b54e2f801d3ea4beb0c5e71a21cc34a5d34b77d0fb8a3aa1650dc18f\n        /* \"2. Solidity/Projet1/Voting.sol\":3062:3063  1 */\n      0x01\n        /* \"2. Solidity/Projet1/Voting.sol\":3044:3053  proposals */\n      0x03\n        /* \"2. Solidity/Projet1/Voting.sol\":3044:3060  proposals.length */\n      dup1\n      sload\n      swap1\n      pop\n        /* \"2. Solidity/Projet1/Voting.sol\":3044:3063  proposals.length -1 */\n      tag_173\n      swap2\n      swap1\n      tag_174\n      jump\t// in\n    tag_173:\n        /* \"2. Solidity/Projet1/Voting.sol\":3025:3064  ProposalRegistered(proposals.length -1) */\n      mload(0x40)\n      tag_175\n      swap2\n      swap1\n      tag_55\n      jump\t// in\n    tag_175:\n      mload(0x40)\n      dup1\n      swap2\n      sub\n      swap1\n      log1\n        /* \"2. Solidity/Projet1/Voting.sol\":1353:1354  _ */\n      pop\n        /* \"2. Solidity/Projet1/Voting.sol\":2809:3071  function propose(string memory _proposal) public isWhitelisted checkRightWorkflow(WorkflowStatus.ProposalsRegistrationStarted) {... */\n      pop\n      jump\t// out\n        /* \"2. Solidity/Projet1/Voting.sol\":878:907  uint public winningProposalId */\n    tag_53:\n      sload(0x01)\n      dup2\n      jump\t// out\n        /* \"2. Solidity/Projet1/Voting.sol\":1918:2229  function endProposalRegistration() public checkRightWorkflow(WorkflowStatus.ProposalsRegistrationStarted) {... */\n    tag_57:\n        /* \"2. Solidity/Projet1/Voting.sol\":1979:2022  WorkflowStatus.ProposalsRegistrationStarted */\n      0x01\n        /* \"2. Solidity/Projet1/Voting.sol\":1148:1163  _workflowStatus */\n      dup1\n        /* \"2. Solidity/Projet1/Voting.sol\":1123:1163  currentWorkflowStatus == _workflowStatus */\n      0x05\n      dup2\n      gt\n      iszero\n      tag_177\n      jumpi\n      tag_178\n      tag_77\n      jump\t// in\n    tag_178:\n    tag_177:\n        /* \"2. Solidity/Projet1/Voting.sol\":1123:1144  currentWorkflowStatus */\n      0x02\n      0x00\n      swap1\n      sload\n      swap1\n      0x0100\n      exp\n      swap1\n      div\n      0xff\n      and\n        /* \"2. Solidity/Projet1/Voting.sol\":1123:1163  currentWorkflowStatus == _workflowStatus */\n      0x05\n      dup2\n      gt\n      iszero\n      tag_179\n      jumpi\n      tag_180\n      tag_77\n      jump\t// in\n    tag_180:\n    tag_179:\n      eq\n        /* \"2. Solidity/Projet1/Voting.sol\":1115:1207  require(currentWorkflowStatus == _workflowStatus, \"You're not following the right Workflow\") */\n      tag_181\n      jumpi\n      mload(0x40)\n      0x08c379a000000000000000000000000000000000000000000000000000000000\n      dup2\n      mstore\n      0x04\n      add\n      tag_182\n      swap1\n      tag_82\n      jump\t// in\n    tag_182:\n      mload(0x40)\n      dup1\n      swap2\n      sub\n      swap1\n      revert\n    tag_181:\n        /* \"2. Solidity/Projet1/Voting.sol\":2058:2099  WorkflowStatus.ProposalsRegistrationEnded */\n      0x02\n        /* \"2. Solidity/Projet1/Voting.sol\":2034:2055  currentWorkflowStatus */\n      dup1\n      0x00\n        /* \"2. Solidity/Projet1/Voting.sol\":2034:2099  currentWorkflowStatus = WorkflowStatus.ProposalsRegistrationEnded */\n      0x0100\n      exp\n      dup2\n      sload\n      dup2\n      0xff\n      mul\n      not\n      and\n      swap1\n      dup4\n      0x05\n      dup2\n      gt\n      iszero\n      tag_184\n      jumpi\n      tag_185\n      tag_77\n      jump\t// in\n    tag_185:\n    tag_184:\n      mul\n      or\n      swap1\n      sstore\n      pop\n        /* \"2. Solidity/Projet1/Voting.sol\":2114:2222  WorkflowStatusChange(WorkflowStatus.ProposalsRegistrationStarted, WorkflowStatus.ProposalsRegistrationEnded) */\n      0x0a97a4ee45751e2abf3e4fc8946939630b11b371ea8ae39ccdc3056e98f5cc3f\n        /* \"2. Solidity/Projet1/Voting.sol\":2135:2178  WorkflowStatus.ProposalsRegistrationStarted */\n      0x01\n        /* \"2. Solidity/Projet1/Voting.sol\":2180:2221  WorkflowStatus.ProposalsRegistrationEnded */\n      0x02\n        /* \"2. Solidity/Projet1/Voting.sol\":2114:2222  WorkflowStatusChange(WorkflowStatus.ProposalsRegistrationStarted, WorkflowStatus.ProposalsRegistrationEnded) */\n      mload(0x40)\n      tag_186\n      swap3\n      swap2\n      swap1\n      tag_117\n      jump\t// in\n    tag_186:\n      mload(0x40)\n      dup1\n      swap2\n      sub\n      swap1\n      log1\n        /* \"2. Solidity/Projet1/Voting.sol\":1918:2229  function endProposalRegistration() public checkRightWorkflow(WorkflowStatus.ProposalsRegistrationStarted) {... */\n      pop\n      jump\t// out\n        /* \"2. Solidity/Projet1/Voting.sol\":2235:2525  function startVotingSession() public checkRightWorkflow(WorkflowStatus.ProposalsRegistrationEnded) {... */\n    tag_59:\n        /* \"2. Solidity/Projet1/Voting.sol\":2291:2332  WorkflowStatus.ProposalsRegistrationEnded */\n      0x02\n        /* \"2. Solidity/Projet1/Voting.sol\":1148:1163  _workflowStatus */\n      dup1\n        /* \"2. Solidity/Projet1/Voting.sol\":1123:1163  currentWorkflowStatus == _workflowStatus */\n      0x05\n      dup2\n      gt\n      iszero\n      tag_188\n      jumpi\n      tag_189\n      tag_77\n      jump\t// in\n    tag_189:\n    tag_188:\n        /* \"2. Solidity/Projet1/Voting.sol\":1123:1144  currentWorkflowStatus */\n      0x02\n      0x00\n      swap1\n      sload\n      swap1\n      0x0100\n      exp\n      swap1\n      div\n      0xff\n      and\n        /* \"2. Solidity/Projet1/Voting.sol\":1123:1163  currentWorkflowStatus == _workflowStatus */\n      0x05\n      dup2\n      gt\n      iszero\n      tag_190\n      jumpi\n      tag_191\n      tag_77\n      jump\t// in\n    tag_191:\n    tag_190:\n      eq\n        /* \"2. Solidity/Projet1/Voting.sol\":1115:1207  require(currentWorkflowStatus == _workflowStatus, \"You're not following the right Workflow\") */\n      tag_192\n      jumpi\n      mload(0x40)\n      0x08c379a000000000000000000000000000000000000000000000000000000000\n      dup2\n      mstore\n      0x04\n      add\n      tag_193\n      swap1\n      tag_82\n      jump\t// in\n    tag_193:\n      mload(0x40)\n      dup1\n      swap2\n      sub\n      swap1\n      revert\n    tag_192:\n        /* \"2. Solidity/Projet1/Voting.sol\":2368:2403  WorkflowStatus.VotingSessionStarted */\n      0x03\n        /* \"2. Solidity/Projet1/Voting.sol\":2344:2365  currentWorkflowStatus */\n      0x02\n      0x00\n        /* \"2. Solidity/Projet1/Voting.sol\":2344:2403  currentWorkflowStatus = WorkflowStatus.VotingSessionStarted */\n      0x0100\n      exp\n      dup2\n      sload\n      dup2\n      0xff\n      mul\n      not\n      and\n      swap1\n      dup4\n      0x05\n      dup2\n      gt\n      iszero\n      tag_195\n      jumpi\n      tag_196\n      tag_77\n      jump\t// in\n    tag_196:\n    tag_195:\n      mul\n      or\n      swap1\n      sstore\n      pop\n        /* \"2. Solidity/Projet1/Voting.sol\":2418:2518  WorkflowStatusChange(WorkflowStatus.ProposalsRegistrationEnded, WorkflowStatus.VotingSessionStarted) */\n      0x0a97a4ee45751e2abf3e4fc8946939630b11b371ea8ae39ccdc3056e98f5cc3f\n        /* \"2. Solidity/Projet1/Voting.sol\":2439:2480  WorkflowStatus.ProposalsRegistrationEnded */\n      0x02\n        /* \"2. Solidity/Projet1/Voting.sol\":2482:2517  WorkflowStatus.VotingSessionStarted */\n      0x03\n        /* \"2. Solidity/Projet1/Voting.sol\":2418:2518  WorkflowStatusChange(WorkflowStatus.ProposalsRegistrationEnded, WorkflowStatus.VotingSessionStarted) */\n      mload(0x40)\n      tag_197\n      swap3\n      swap2\n      swap1\n      tag_117\n      jump\t// in\n    tag_197:\n      mload(0x40)\n      dup1\n      swap2\n      sub\n      swap1\n      log1\n        /* \"2. Solidity/Projet1/Voting.sol\":2235:2525  function startVotingSession() public checkRightWorkflow(WorkflowStatus.ProposalsRegistrationEnded) {... */\n      pop\n      jump\t// out\n        /* \"@openzeppelin/contracts/access/Ownable.sol\":2543:2758  function transferOwnership(address newOwner) public virtual onlyOwner {... */\n    tag_62:\n        /* \"@openzeppelin/contracts/access/Ownable.sol\":1531:1544  _checkOwner() */\n      tag_199\n        /* \"@openzeppelin/contracts/access/Ownable.sol\":1531:1542  _checkOwner */\n      tag_120\n        /* \"@openzeppelin/contracts/access/Ownable.sol\":1531:1544  _checkOwner() */\n      jump\t// in\n    tag_199:\n        /* \"@openzeppelin/contracts/access/Ownable.sol\":2647:2648  0 */\n      0x00\n        /* \"@openzeppelin/contracts/access/Ownable.sol\":2627:2649  newOwner == address(0) */\n      0xffffffffffffffffffffffffffffffffffffffff\n      and\n        /* \"@openzeppelin/contracts/access/Ownable.sol\":2627:2635  newOwner */\n      dup2\n        /* \"@openzeppelin/contracts/access/Ownable.sol\":2627:2649  newOwner == address(0) */\n      0xffffffffffffffffffffffffffffffffffffffff\n      and\n      sub\n        /* \"@openzeppelin/contracts/access/Ownable.sol\":2623:2714  if (newOwner == address(0)) {... */\n      tag_201\n      jumpi\n        /* \"@openzeppelin/contracts/access/Ownable.sol\":2700:2701  0 */\n      0x00\n        /* \"@openzeppelin/contracts/access/Ownable.sol\":2672:2703  OwnableInvalidOwner(address(0)) */\n      mload(0x40)\n      0x1e4fbdf700000000000000000000000000000000000000000000000000000000\n      dup2\n      mstore\n      0x04\n      add\n      tag_202\n      swap2\n      swap1\n      tag_39\n      jump\t// in\n    tag_202:\n      mload(0x40)\n      dup1\n      swap2\n      sub\n      swap1\n      revert\n        /* \"@openzeppelin/contracts/access/Ownable.sol\":2623:2714  if (newOwner == address(0)) {... */\n    tag_201:\n        /* \"@openzeppelin/contracts/access/Ownable.sol\":2723:2751  _transferOwnership(newOwner) */\n      tag_203\n        /* \"@openzeppelin/contracts/access/Ownable.sol\":2742:2750  newOwner */\n      dup2\n        /* \"@openzeppelin/contracts/access/Ownable.sol\":2723:2741  _transferOwnership */\n      tag_146\n        /* \"@openzeppelin/contracts/access/Ownable.sol\":2723:2751  _transferOwnership(newOwner) */\n      jump\t// in\n    tag_203:\n        /* \"@openzeppelin/contracts/access/Ownable.sol\":2543:2758  function transferOwnership(address newOwner) public virtual onlyOwner {... */\n      pop\n      jump\t// out\n        /* \"2. Solidity/Projet1/Voting.sol\":913:956  WorkflowStatus public currentWorkflowStatus */\n    tag_64:\n      0x02\n      0x00\n      swap1\n      sload\n      swap1\n      0x0100\n      exp\n      swap1\n      div\n      0xff\n      and\n      dup2\n      jump\t// out\n        /* \"2. Solidity/Projet1/Voting.sol\":1367:1611  function addWhitelist(address _voter) public onlyOwner {... */\n    tag_69:\n        /* \"@openzeppelin/contracts/access/Ownable.sol\":1531:1544  _checkOwner() */\n      tag_205\n        /* \"@openzeppelin/contracts/access/Ownable.sol\":1531:1542  _checkOwner */\n      tag_120\n        /* \"@openzeppelin/contracts/access/Ownable.sol\":1531:1544  _checkOwner() */\n      jump\t// in\n    tag_205:\n        /* \"2. Solidity/Projet1/Voting.sol\":1474:1479  false */\n      0x00\n        /* \"2. Solidity/Projet1/Voting.sol\":1440:1479  whitelist[_voter].isRegistered == false */\n      iszero\n      iszero\n        /* \"2. Solidity/Projet1/Voting.sol\":1440:1449  whitelist */\n      0x04\n        /* \"2. Solidity/Projet1/Voting.sol\":1440:1457  whitelist[_voter] */\n      0x00\n        /* \"2. Solidity/Projet1/Voting.sol\":1450:1456  _voter */\n      dup4\n        /* \"2. Solidity/Projet1/Voting.sol\":1440:1457  whitelist[_voter] */\n      0xffffffffffffffffffffffffffffffffffffffff\n      and\n      0xffffffffffffffffffffffffffffffffffffffff\n      and\n      dup2\n      mstore\n      0x20\n      add\n      swap1\n      dup2\n      mstore\n      0x20\n      add\n      0x00\n      keccak256\n        /* \"2. Solidity/Projet1/Voting.sol\":1440:1470  whitelist[_voter].isRegistered */\n      0x00\n      add\n      0x00\n      swap1\n      sload\n      swap1\n      0x0100\n      exp\n      swap1\n      div\n      0xff\n      and\n        /* \"2. Solidity/Projet1/Voting.sol\":1440:1479  whitelist[_voter].isRegistered == false */\n      iszero\n      iszero\n      eq\n        /* \"2. Solidity/Projet1/Voting.sol\":1432:1519  require(whitelist[_voter].isRegistered == false, \"This address is already whitelisted\") */\n      tag_207\n      jumpi\n      mload(0x40)\n      0x08c379a000000000000000000000000000000000000000000000000000000000\n      dup2\n      mstore\n      0x04\n      add\n      tag_208\n      swap1\n      tag_209\n      jump\t// in\n    tag_208:\n      mload(0x40)\n      dup1\n      swap2\n      sub\n      swap1\n      revert\n    tag_207:\n        /* \"2. Solidity/Projet1/Voting.sol\":1562:1566  true */\n      0x01\n        /* \"2. Solidity/Projet1/Voting.sol\":1529:1538  whitelist */\n      0x04\n        /* \"2. Solidity/Projet1/Voting.sol\":1529:1546  whitelist[_voter] */\n      0x00\n        /* \"2. Solidity/Projet1/Voting.sol\":1539:1545  _voter */\n      dup4\n        /* \"2. Solidity/Projet1/Voting.sol\":1529:1546  whitelist[_voter] */\n      0xffffffffffffffffffffffffffffffffffffffff\n      and\n      0xffffffffffffffffffffffffffffffffffffffff\n      and\n      dup2\n      mstore\n      0x20\n      add\n      swap1\n      dup2\n      mstore\n      0x20\n      add\n      0x00\n      keccak256\n        /* \"2. Solidity/Projet1/Voting.sol\":1529:1559  whitelist[_voter].isRegistered */\n      0x00\n      add\n      0x00\n        /* \"2. Solidity/Projet1/Voting.sol\":1529:1566  whitelist[_voter].isRegistered = true */\n      0x0100\n      exp\n      dup2\n      sload\n      dup2\n      0xff\n      mul\n      not\n      and\n      swap1\n      dup4\n      iszero\n      iszero\n      mul\n      or\n      swap1\n      sstore\n      pop\n        /* \"2. Solidity/Projet1/Voting.sol\":1581:1604  VoterRegistered(_voter) */\n      0xb6be2187d059cc2a55fe29e0e503b566e1e0f8c8780096e185429350acffd3dd\n        /* \"2. Solidity/Projet1/Voting.sol\":1597:1603  _voter */\n      dup2\n        /* \"2. Solidity/Projet1/Voting.sol\":1581:1604  VoterRegistered(_voter) */\n      mload(0x40)\n      tag_210\n      swap2\n      swap1\n      tag_39\n      jump\t// in\n    tag_210:\n      mload(0x40)\n      dup1\n      swap2\n      sub\n      swap1\n      log1\n        /* \"2. Solidity/Projet1/Voting.sol\":1367:1611  function addWhitelist(address _voter) public onlyOwner {... */\n      pop\n      jump\t// out\n        /* \"@openzeppelin/contracts/access/Ownable.sol\":1796:1958  function _checkOwner() internal view virtual {... */\n    tag_120:\n        /* \"@openzeppelin/contracts/access/Ownable.sol\":1866:1878  _msgSender() */\n      tag_212\n        /* \"@openzeppelin/contracts/access/Ownable.sol\":1866:1876  _msgSender */\n      tag_213\n        /* \"@openzeppelin/contracts/access/Ownable.sol\":1866:1878  _msgSender() */\n      jump\t// in\n    tag_212:\n        /* \"@openzeppelin/contracts/access/Ownable.sol\":1855:1878  owner() != _msgSender() */\n      0xffffffffffffffffffffffffffffffffffffffff\n      and\n        /* \"@openzeppelin/contracts/access/Ownable.sol\":1855:1862  owner() */\n      tag_214\n        /* \"@openzeppelin/contracts/access/Ownable.sol\":1855:1860  owner */\n      tag_37\n        /* \"@openzeppelin/contracts/access/Ownable.sol\":1855:1862  owner() */\n      jump\t// in\n    tag_214:\n        /* \"@openzeppelin/contracts/access/Ownable.sol\":1855:1878  owner() != _msgSender() */\n      0xffffffffffffffffffffffffffffffffffffffff\n      and\n      eq\n        /* \"@openzeppelin/contracts/access/Ownable.sol\":1851:1952  if (owner() != _msgSender()) {... */\n      tag_215\n      jumpi\n        /* \"@openzeppelin/contracts/access/Ownable.sol\":1928:1940  _msgSender() */\n      tag_216\n        /* \"@openzeppelin/contracts/access/Ownable.sol\":1928:1938  _msgSender */\n      tag_213\n        /* \"@openzeppelin/contracts/access/Ownable.sol\":1928:1940  _msgSender() */\n      jump\t// in\n    tag_216:\n        /* \"@openzeppelin/contracts/access/Ownable.sol\":1901:1941  OwnableUnauthorizedAccount(_msgSender()) */\n      mload(0x40)\n      0x118cdaa700000000000000000000000000000000000000000000000000000000\n      dup2\n      mstore\n      0x04\n      add\n      tag_217\n      swap2\n      swap1\n      tag_39\n      jump\t// in\n    tag_217:\n      mload(0x40)\n      dup1\n      swap2\n      sub\n      swap1\n      revert\n        /* \"@openzeppelin/contracts/access/Ownable.sol\":1851:1952  if (owner() != _msgSender()) {... */\n    tag_215:\n        /* \"@openzeppelin/contracts/access/Ownable.sol\":1796:1958  function _checkOwner() internal view virtual {... */\n      jump\t// out\n        /* \"@openzeppelin/contracts/access/Ownable.sol\":2912:3099  function _transferOwnership(address newOwner) internal virtual {... */\n    tag_146:\n        /* \"@openzeppelin/contracts/access/Ownable.sol\":2985:3001  address oldOwner */\n      0x00\n        /* \"@openzeppelin/contracts/access/Ownable.sol\":3004:3010  _owner */\n      0x00\n      0x00\n      swap1\n      sload\n      swap1\n      0x0100\n      exp\n      swap1\n      div\n      0xffffffffffffffffffffffffffffffffffffffff\n      and\n        /* \"@openzeppelin/contracts/access/Ownable.sol\":2985:3010  address oldOwner = _owner */\n      swap1\n      pop\n        /* \"@openzeppelin/contracts/access/Ownable.sol\":3029:3037  newOwner */\n      dup2\n        /* \"@openzeppelin/contracts/access/Ownable.sol\":3020:3026  _owner */\n      0x00\n      0x00\n        /* \"@openzeppelin/contracts/access/Ownable.sol\":3020:3037  _owner = newOwner */\n      0x0100\n      exp\n      dup2\n      sload\n      dup2\n      0xffffffffffffffffffffffffffffffffffffffff\n      mul\n      not\n      and\n      swap1\n      dup4\n      0xffffffffffffffffffffffffffffffffffffffff\n      and\n      mul\n      or\n      swap1\n      sstore\n      pop\n        /* \"@openzeppelin/contracts/access/Ownable.sol\":3083:3091  newOwner */\n      dup2\n        /* \"@openzeppelin/contracts/access/Ownable.sol\":3052:3092  OwnershipTransferred(oldOwner, newOwner) */\n      0xffffffffffffffffffffffffffffffffffffffff\n      and\n        /* \"@openzeppelin/contracts/access/Ownable.sol\":3073:3081  oldOwner */\n      dup2\n        /* \"@openzeppelin/contracts/access/Ownable.sol\":3052:3092  OwnershipTransferred(oldOwner, newOwner) */\n      0xffffffffffffffffffffffffffffffffffffffff\n      and\n      0x8be0079c531659141344cd1fd0a4f28419497f9722a3daafe3b4186f6b6457e0\n      mload(0x40)\n      mload(0x40)\n      dup1\n      swap2\n      sub\n      swap1\n      log3\n        /* \"@openzeppelin/contracts/access/Ownable.sol\":2975:3099  {... */\n      pop\n        /* \"@openzeppelin/contracts/access/Ownable.sol\":2912:3099  function _transferOwnership(address newOwner) internal virtual {... */\n      pop\n      jump\t// out\n        /* \"@openzeppelin/contracts/utils/Context.sol\":656:752  function _msgSender() internal view virtual returns (address) {... */\n    tag_213:\n        /* \"@openzeppelin/contracts/utils/Context.sol\":709:716  address */\n      0x00\n        /* \"@openzeppelin/contracts/utils/Context.sol\":735:745  msg.sender */\n      caller\n        /* \"@openzeppelin/contracts/utils/Context.sol\":728:745  return msg.sender */\n      swap1\n      pop\n        /* \"@openzeppelin/contracts/utils/Context.sol\":656:752  function _msgSender() internal view virtual returns (address) {... */\n      swap1\n      jump\t// out\n        /* \"#utility.yul\":7:82   */\n    tag_220:\n        /* \"#utility.yul\":40:46   */\n      0x00\n        /* \"#utility.yul\":73:75   */\n      0x40\n        /* \"#utility.yul\":67:76   */\n      mload\n        /* \"#utility.yul\":57:76   */\n      swap1\n      pop\n        /* \"#utility.yul\":7:82   */\n      swap1\n      jump\t// out\n        /* \"#utility.yul\":88:205   */\n    tag_221:\n        /* \"#utility.yul\":197:198   */\n      0x00\n        /* \"#utility.yul\":194:195   */\n      0x00\n        /* \"#utility.yul\":187:199   */\n      revert\n        /* \"#utility.yul\":211:328   */\n    tag_222:\n        /* \"#utility.yul\":320:321   */\n      0x00\n        /* \"#utility.yul\":317:318   */\n      0x00\n        /* \"#utility.yul\":310:322   */\n      revert\n        /* \"#utility.yul\":334:411   */\n    tag_223:\n        /* \"#utility.yul\":371:378   */\n      0x00\n        /* \"#utility.yul\":400:405   */\n      dup2\n        /* \"#utility.yul\":389:405   */\n      swap1\n      pop\n        /* \"#utility.yul\":334:411   */\n      swap2\n      swap1\n      pop\n      jump\t// out\n        /* \"#utility.yul\":417:539   */\n    tag_224:\n        /* \"#utility.yul\":490:514   */\n      tag_285\n        /* \"#utility.yul\":508:513   */\n      dup2\n        /* \"#utility.yul\":490:514   */\n      tag_223\n      jump\t// in\n    tag_285:\n        /* \"#utility.yul\":483:488   */\n      dup2\n        /* \"#utility.yul\":480:515   */\n      eq\n        /* \"#utility.yul\":470:533   */\n      tag_286\n      jumpi\n        /* \"#utility.yul\":529:530   */\n      0x00\n        /* \"#utility.yul\":526:527   */\n      0x00\n        /* \"#utility.yul\":519:531   */\n      revert\n        /* \"#utility.yul\":470:533   */\n    tag_286:\n        /* \"#utility.yul\":417:539   */\n      pop\n      jump\t// out\n        /* \"#utility.yul\":545:684   */\n    tag_225:\n        /* \"#utility.yul\":591:596   */\n      0x00\n        /* \"#utility.yul\":629:635   */\n      dup2\n        /* \"#utility.yul\":616:636   */\n      calldataload\n        /* \"#utility.yul\":607:636   */\n      swap1\n      pop\n        /* \"#utility.yul\":645:678   */\n      tag_288\n        /* \"#utility.yul\":672:677   */\n      dup2\n        /* \"#utility.yul\":645:678   */\n      tag_224\n      jump\t// in\n    tag_288:\n        /* \"#utility.yul\":545:684   */\n      swap3\n      swap2\n      pop\n      pop\n      jump\t// out\n        /* \"#utility.yul\":690:1019   */\n    tag_23:\n        /* \"#utility.yul\":749:755   */\n      0x00\n        /* \"#utility.yul\":798:800   */\n      0x20\n        /* \"#utility.yul\":786:795   */\n      dup3\n        /* \"#utility.yul\":777:784   */\n      dup5\n        /* \"#utility.yul\":773:796   */\n      sub\n        /* \"#utility.yul\":769:801   */\n      slt\n        /* \"#utility.yul\":766:885   */\n      iszero\n      tag_290\n      jumpi\n        /* \"#utility.yul\":804:883   */\n      tag_291\n      tag_221\n      jump\t// in\n    tag_291:\n        /* \"#utility.yul\":766:885   */\n    tag_290:\n        /* \"#utility.yul\":924:925   */\n      0x00\n        /* \"#utility.yul\":949:1002   */\n      tag_292\n        /* \"#utility.yul\":994:1001   */\n      dup5\n        /* \"#utility.yul\":985:991   */\n      dup3\n        /* \"#utility.yul\":974:983   */\n      dup6\n        /* \"#utility.yul\":970:992   */\n      add\n        /* \"#utility.yul\":949:1002   */\n      tag_225\n      jump\t// in\n    tag_292:\n        /* \"#utility.yul\":939:1002   */\n      swap2\n      pop\n        /* \"#utility.yul\":895:1012   */\n      pop\n        /* \"#utility.yul\":690:1019   */\n      swap3\n      swap2\n      pop\n      pop\n      jump\t// out\n        /* \"#utility.yul\":1025:1124   */\n    tag_226:\n        /* \"#utility.yul\":1077:1083   */\n      0x00\n        /* \"#utility.yul\":1111:1116   */\n      dup2\n        /* \"#utility.yul\":1105:1117   */\n      mload\n        /* \"#utility.yul\":1095:1117   */\n      swap1\n      pop\n        /* \"#utility.yul\":1025:1124   */\n      swap2\n      swap1\n      pop\n      jump\t// out\n        /* \"#utility.yul\":1130:1299   */\n    tag_227:\n        /* \"#utility.yul\":1214:1225   */\n      0x00\n        /* \"#utility.yul\":1248:1254   */\n      dup3\n        /* \"#utility.yul\":1243:1246   */\n      dup3\n        /* \"#utility.yul\":1236:1255   */\n      mstore\n        /* \"#utility.yul\":1288:1292   */\n      0x20\n        /* \"#utility.yul\":1283:1286   */\n      dup3\n        /* \"#utility.yul\":1279:1293   */\n      add\n        /* \"#utility.yul\":1264:1293   */\n      swap1\n      pop\n        /* \"#utility.yul\":1130:1299   */\n      swap3\n      swap2\n      pop\n      pop\n      jump\t// out\n        /* \"#utility.yul\":1305:1444   */\n    tag_228:\n        /* \"#utility.yul\":1394:1400   */\n      dup3\n        /* \"#utility.yul\":1389:1392   */\n      dup2\n        /* \"#utility.yul\":1384:1387   */\n      dup4\n        /* \"#utility.yul\":1378:1401   */\n      mcopy\n        /* \"#utility.yul\":1435:1436   */\n      0x00\n        /* \"#utility.yul\":1426:1432   */\n      dup4\n        /* \"#utility.yul\":1421:1424   */\n      dup4\n        /* \"#utility.yul\":1417:1433   */\n      add\n        /* \"#utility.yul\":1410:1437   */\n      mstore\n        /* \"#utility.yul\":1305:1444   */\n      pop\n      pop\n      pop\n      jump\t// out\n        /* \"#utility.yul\":1450:1552   */\n    tag_229:\n        /* \"#utility.yul\":1491:1497   */\n      0x00\n        /* \"#utility.yul\":1542:1544   */\n      0x1f\n        /* \"#utility.yul\":1538:1545   */\n      not\n        /* \"#utility.yul\":1533:1535   */\n      0x1f\n        /* \"#utility.yul\":1526:1531   */\n      dup4\n        /* \"#utility.yul\":1522:1536   */\n      add\n        /* \"#utility.yul\":1518:1546   */\n      and\n        /* \"#utility.yul\":1508:1546   */\n      swap1\n      pop\n        /* \"#utility.yul\":1450:1552   */\n      swap2\n      swap1\n      pop\n      jump\t// out\n        /* \"#utility.yul\":1558:1935   */\n    tag_230:\n        /* \"#utility.yul\":1646:1649   */\n      0x00\n        /* \"#utility.yul\":1674:1713   */\n      tag_298\n        /* \"#utility.yul\":1707:1712   */\n      dup3\n        /* \"#utility.yul\":1674:1713   */\n      tag_226\n      jump\t// in\n    tag_298:\n        /* \"#utility.yul\":1729:1800   */\n      tag_299\n        /* \"#utility.yul\":1793:1799   */\n      dup2\n        /* \"#utility.yul\":1788:1791   */\n      dup6\n        /* \"#utility.yul\":1729:1800   */\n      tag_227\n      jump\t// in\n    tag_299:\n        /* \"#utility.yul\":1722:1800   */\n      swap4\n      pop\n        /* \"#utility.yul\":1809:1874   */\n      tag_300\n        /* \"#utility.yul\":1867:1873   */\n      dup2\n        /* \"#utility.yul\":1862:1865   */\n      dup6\n        /* \"#utility.yul\":1855:1859   */\n      0x20\n        /* \"#utility.yul\":1848:1853   */\n      dup7\n        /* \"#utility.yul\":1844:1860   */\n      add\n        /* \"#utility.yul\":1809:1874   */\n      tag_228\n      jump\t// in\n    tag_300:\n        /* \"#utility.yul\":1899:1928   */\n      tag_301\n        /* \"#utility.yul\":1921:1927   */\n      dup2\n        /* \"#utility.yul\":1899:1928   */\n      tag_229\n      jump\t// in\n    tag_301:\n        /* \"#utility.yul\":1894:1897   */\n      dup5\n        /* \"#utility.yul\":1890:1929   */\n      add\n        /* \"#utility.yul\":1883:1929   */\n      swap2\n      pop\n        /* \"#utility.yul\":1650:1935   */\n      pop\n        /* \"#utility.yul\":1558:1935   */\n      swap3\n      swap2\n      pop\n      pop\n      jump\t// out\n        /* \"#utility.yul\":1941:2059   */\n    tag_231:\n        /* \"#utility.yul\":2028:2052   */\n      tag_303\n        /* \"#utility.yul\":2046:2051   */\n      dup2\n        /* \"#utility.yul\":2028:2052   */\n      tag_223\n      jump\t// in\n    tag_303:\n        /* \"#utility.yul\":2023:2026   */\n      dup3\n        /* \"#utility.yul\":2016:2053   */\n      mstore\n        /* \"#utility.yul\":1941:2059   */\n      pop\n      pop\n      jump\t// out\n        /* \"#utility.yul\":2065:2488   */\n    tag_29:\n        /* \"#utility.yul\":2206:2210   */\n      0x00\n        /* \"#utility.yul\":2244:2246   */\n      0x40\n        /* \"#utility.yul\":2233:2242   */\n      dup3\n        /* \"#utility.yul\":2229:2247   */\n      add\n        /* \"#utility.yul\":2221:2247   */\n      swap1\n      pop\n        /* \"#utility.yul\":2293:2302   */\n      dup2\n        /* \"#utility.yul\":2287:2291   */\n      dup2\n        /* \"#utility.yul\":2283:2303   */\n      sub\n        /* \"#utility.yul\":2279:2280   */\n      0x00\n        /* \"#utility.yul\":2268:2277   */\n      dup4\n        /* \"#utility.yul\":2264:2281   */\n      add\n        /* \"#utility.yul\":2257:2304   */\n      mstore\n        /* \"#utility.yul\":2321:2399   */\n      tag_305\n        /* \"#utility.yul\":2394:2398   */\n      dup2\n        /* \"#utility.yul\":2385:2391   */\n      dup6\n        /* \"#utility.yul\":2321:2399   */\n      tag_230\n      jump\t// in\n    tag_305:\n        /* \"#utility.yul\":2313:2399   */\n      swap1\n      pop\n        /* \"#utility.yul\":2409:2481   */\n      tag_306\n        /* \"#utility.yul\":2477:2479   */\n      0x20\n        /* \"#utility.yul\":2466:2475   */\n      dup4\n        /* \"#utility.yul\":2462:2480   */\n      add\n        /* \"#utility.yul\":2453:2459   */\n      dup5\n        /* \"#utility.yul\":2409:2481   */\n      tag_231\n      jump\t// in\n    tag_306:\n        /* \"#utility.yul\":2065:2488   */\n      swap4\n      swap3\n      pop\n      pop\n      pop\n      jump\t// out\n        /* \"#utility.yul\":2494:2620   */\n    tag_232:\n        /* \"#utility.yul\":2531:2538   */\n      0x00\n        /* \"#utility.yul\":2571:2613   */\n      0xffffffffffffffffffffffffffffffffffffffff\n        /* \"#utility.yul\":2564:2569   */\n      dup3\n        /* \"#utility.yul\":2560:2614   */\n      and\n        /* \"#utility.yul\":2549:2614   */\n      swap1\n      pop\n        /* \"#utility.yul\":2494:2620   */\n      swap2\n      swap1\n      pop\n      jump\t// out\n        /* \"#utility.yul\":2626:2722   */\n    tag_233:\n        /* \"#utility.yul\":2663:2670   */\n      0x00\n        /* \"#utility.yul\":2692:2716   */\n      tag_309\n        /* \"#utility.yul\":2710:2715   */\n      dup3\n        /* \"#utility.yul\":2692:2716   */\n      tag_232\n      jump\t// in\n    tag_309:\n        /* \"#utility.yul\":2681:2716   */\n      swap1\n      pop\n        /* \"#utility.yul\":2626:2722   */\n      swap2\n      swap1\n      pop\n      jump\t// out\n        /* \"#utility.yul\":2728:2846   */\n    tag_234:\n        /* \"#utility.yul\":2815:2839   */\n      tag_311\n        /* \"#utility.yul\":2833:2838   */\n      dup2\n        /* \"#utility.yul\":2815:2839   */\n      tag_233\n      jump\t// in\n    tag_311:\n        /* \"#utility.yul\":2810:2813   */\n      dup3\n        /* \"#utility.yul\":2803:2840   */\n      mstore\n        /* \"#utility.yul\":2728:2846   */\n      pop\n      pop\n      jump\t// out\n        /* \"#utility.yul\":2852:3074   */\n    tag_39:\n        /* \"#utility.yul\":2945:2949   */\n      0x00\n        /* \"#utility.yul\":2983:2985   */\n      0x20\n        /* \"#utility.yul\":2972:2981   */\n      dup3\n        /* \"#utility.yul\":2968:2986   */\n      add\n        /* \"#utility.yul\":2960:2986   */\n      swap1\n      pop\n        /* \"#utility.yul\":2996:3067   */\n      tag_313\n        /* \"#utility.yul\":3064:3065   */\n      0x00\n        /* \"#utility.yul\":3053:3062   */\n      dup4\n        /* \"#utility.yul\":3049:3066   */\n      add\n        /* \"#utility.yul\":3040:3046   */\n      dup5\n        /* \"#utility.yul\":2996:3067   */\n      tag_234\n      jump\t// in\n    tag_313:\n        /* \"#utility.yul\":2852:3074   */\n      swap3\n      swap2\n      pop\n      pop\n      jump\t// out\n        /* \"#utility.yul\":3080:3202   */\n    tag_235:\n        /* \"#utility.yul\":3153:3177   */\n      tag_315\n        /* \"#utility.yul\":3171:3176   */\n      dup2\n        /* \"#utility.yul\":3153:3177   */\n      tag_233\n      jump\t// in\n    tag_315:\n        /* \"#utility.yul\":3146:3151   */\n      dup2\n        /* \"#utility.yul\":3143:3178   */\n      eq\n        /* \"#utility.yul\":3133:3196   */\n      tag_316\n      jumpi\n        /* \"#utility.yul\":3192:3193   */\n      0x00\n        /* \"#utility.yul\":3189:3190   */\n      0x00\n        /* \"#utility.yul\":3182:3194   */\n      revert\n        /* \"#utility.yul\":3133:3196   */\n    tag_316:\n        /* \"#utility.yul\":3080:3202   */\n      pop\n      jump\t// out\n        /* \"#utility.yul\":3208:3347   */\n    tag_236:\n        /* \"#utility.yul\":3254:3259   */\n      0x00\n        /* \"#utility.yul\":3292:3298   */\n      dup2\n        /* \"#utility.yul\":3279:3299   */\n      calldataload\n        /* \"#utility.yul\":3270:3299   */\n      swap1\n      pop\n        /* \"#utility.yul\":3308:3341   */\n      tag_318\n        /* \"#utility.yul\":3335:3340   */\n      dup2\n        /* \"#utility.yul\":3308:3341   */\n      tag_235\n      jump\t// in\n    tag_318:\n        /* \"#utility.yul\":3208:3347   */\n      swap3\n      swap2\n      pop\n      pop\n      jump\t// out\n        /* \"#utility.yul\":3353:3682   */\n    tag_42:\n        /* \"#utility.yul\":3412:3418   */\n      0x00\n        /* \"#utility.yul\":3461:3463   */\n      0x20\n        /* \"#utility.yul\":3449:3458   */\n      dup3\n        /* \"#utility.yul\":3440:3447   */\n      dup5\n        /* \"#utility.yul\":3436:3459   */\n      sub\n        /* \"#utility.yul\":3432:3464   */\n      slt\n        /* \"#utility.yul\":3429:3548   */\n      iszero\n      tag_320\n      jumpi\n        /* \"#utility.yul\":3467:3546   */\n      tag_321\n      tag_221\n      jump\t// in\n    tag_321:\n        /* \"#utility.yul\":3429:3548   */\n    tag_320:\n        /* \"#utility.yul\":3587:3588   */\n      0x00\n        /* \"#utility.yul\":3612:3665   */\n      tag_322\n        /* \"#utility.yul\":3657:3664   */\n      dup5\n        /* \"#utility.yul\":3648:3654   */\n      dup3\n        /* \"#utility.yul\":3637:3646   */\n      dup6\n        /* \"#utility.yul\":3633:3655   */\n      add\n        /* \"#utility.yul\":3612:3665   */\n      tag_236\n      jump\t// in\n    tag_322:\n        /* \"#utility.yul\":3602:3665   */\n      swap2\n      pop\n        /* \"#utility.yul\":3558:3675   */\n      pop\n        /* \"#utility.yul\":3353:3682   */\n      swap3\n      swap2\n      pop\n      pop\n      jump\t// out\n        /* \"#utility.yul\":3688:3778   */\n    tag_237:\n        /* \"#utility.yul\":3722:3729   */\n      0x00\n        /* \"#utility.yul\":3765:3770   */\n      dup2\n        /* \"#utility.yul\":3758:3771   */\n      iszero\n        /* \"#utility.yul\":3751:3772   */\n      iszero\n        /* \"#utility.yul\":3740:3772   */\n      swap1\n      pop\n        /* \"#utility.yul\":3688:3778   */\n      swap2\n      swap1\n      pop\n      jump\t// out\n        /* \"#utility.yul\":3784:3893   */\n    tag_238:\n        /* \"#utility.yul\":3865:3886   */\n      tag_325\n        /* \"#utility.yul\":3880:3885   */\n      dup2\n        /* \"#utility.yul\":3865:3886   */\n      tag_237\n      jump\t// in\n    tag_325:\n        /* \"#utility.yul\":3860:3863   */\n      dup3\n        /* \"#utility.yul\":3853:3887   */\n      mstore\n        /* \"#utility.yul\":3784:3893   */\n      pop\n      pop\n      jump\t// out\n        /* \"#utility.yul\":3899:4317   */\n    tag_45:\n        /* \"#utility.yul\":4036:4040   */\n      0x00\n        /* \"#utility.yul\":4074:4076   */\n      0x60\n        /* \"#utility.yul\":4063:4072   */\n      dup3\n        /* \"#utility.yul\":4059:4077   */\n      add\n        /* \"#utility.yul\":4051:4077   */\n      swap1\n      pop\n        /* \"#utility.yul\":4087:4152   */\n      tag_327\n        /* \"#utility.yul\":4149:4150   */\n      0x00\n        /* \"#utility.yul\":4138:4147   */\n      dup4\n        /* \"#utility.yul\":4134:4151   */\n      add\n        /* \"#utility.yul\":4125:4131   */\n      dup7\n        /* \"#utility.yul\":4087:4152   */\n      tag_238\n      jump\t// in\n    tag_327:\n        /* \"#utility.yul\":4162:4228   */\n      tag_328\n        /* \"#utility.yul\":4224:4226   */\n      0x20\n        /* \"#utility.yul\":4213:4222   */\n      dup4\n        /* \"#utility.yul\":4209:4227   */\n      add\n        /* \"#utility.yul\":4200:4206   */\n      dup6\n        /* \"#utility.yul\":4162:4228   */\n      tag_238\n      jump\t// in\n    tag_328:\n        /* \"#utility.yul\":4238:4310   */\n      tag_329\n        /* \"#utility.yul\":4306:4308   */\n      0x40\n        /* \"#utility.yul\":4295:4304   */\n      dup4\n        /* \"#utility.yul\":4291:4309   */\n      add\n        /* \"#utility.yul\":4282:4288   */\n      dup5\n        /* \"#utility.yul\":4238:4310   */\n      tag_231\n      jump\t// in\n    tag_329:\n        /* \"#utility.yul\":3899:4317   */\n      swap5\n      swap4\n      pop\n      pop\n      pop\n      pop\n      jump\t// out\n        /* \"#utility.yul\":4323:4440   */\n    tag_239:\n        /* \"#utility.yul\":4432:4433   */\n      0x00\n        /* \"#utility.yul\":4429:4430   */\n      0x00\n        /* \"#utility.yul\":4422:4434   */\n      revert\n        /* \"#utility.yul\":4446:4563   */\n    tag_240:\n        /* \"#utility.yul\":4555:4556   */\n      0x00\n        /* \"#utility.yul\":4552:4553   */\n      0x00\n        /* \"#utility.yul\":4545:4557   */\n      revert\n        /* \"#utility.yul\":4569:4749   */\n    tag_241:\n        /* \"#utility.yul\":4617:4694   */\n      0x4e487b7100000000000000000000000000000000000000000000000000000000\n        /* \"#utility.yul\":4614:4615   */\n      0x00\n        /* \"#utility.yul\":4607:4695   */\n      mstore\n        /* \"#utility.yul\":4714:4718   */\n      0x41\n        /* \"#utility.yul\":4711:4712   */\n      0x04\n        /* \"#utility.yul\":4704:4719   */\n      mstore\n        /* \"#utility.yul\":4738:4742   */\n      0x24\n        /* \"#utility.yul\":4735:4736   */\n      0x00\n        /* \"#utility.yul\":4728:4743   */\n      revert\n        /* \"#utility.yul\":4755:5036   */\n    tag_242:\n        /* \"#utility.yul\":4838:4865   */\n      tag_334\n        /* \"#utility.yul\":4860:4864   */\n      dup3\n        /* \"#utility.yul\":4838:4865   */\n      tag_229\n      jump\t// in\n    tag_334:\n        /* \"#utility.yul\":4830:4836   */\n      dup2\n        /* \"#utility.yul\":4826:4866   */\n      add\n        /* \"#utility.yul\":4968:4974   */\n      dup2\n        /* \"#utility.yul\":4956:4966   */\n      dup2\n        /* \"#utility.yul\":4953:4975   */\n      lt\n        /* \"#utility.yul\":4932:4950   */\n      0xffffffffffffffff\n        /* \"#utility.yul\":4920:4930   */\n      dup3\n        /* \"#utility.yul\":4917:4951   */\n      gt\n        /* \"#utility.yul\":4914:4976   */\n      or\n        /* \"#utility.yul\":4911:4999   */\n      iszero\n      tag_335\n      jumpi\n        /* \"#utility.yul\":4979:4997   */\n      tag_336\n      tag_241\n      jump\t// in\n    tag_336:\n        /* \"#utility.yul\":4911:4999   */\n    tag_335:\n        /* \"#utility.yul\":5019:5029   */\n      dup1\n        /* \"#utility.yul\":5015:5017   */\n      0x40\n        /* \"#utility.yul\":5008:5030   */\n      mstore\n        /* \"#utility.yul\":4798:5036   */\n      pop\n        /* \"#utility.yul\":4755:5036   */\n      pop\n      pop\n      jump\t// out\n        /* \"#utility.yul\":5042:5171   */\n    tag_243:\n        /* \"#utility.yul\":5076:5082   */\n      0x00\n        /* \"#utility.yul\":5103:5123   */\n      tag_338\n      tag_220\n      jump\t// in\n    tag_338:\n        /* \"#utility.yul\":5093:5123   */\n      swap1\n      pop\n        /* \"#utility.yul\":5132:5165   */\n      tag_339\n        /* \"#utility.yul\":5160:5164   */\n      dup3\n        /* \"#utility.yul\":5152:5158   */\n      dup3\n        /* \"#utility.yul\":5132:5165   */\n      tag_242\n      jump\t// in\n    tag_339:\n        /* \"#utility.yul\":5042:5171   */\n      swap2\n      swap1\n      pop\n      jump\t// out\n        /* \"#utility.yul\":5177:5485   */\n    tag_244:\n        /* \"#utility.yul\":5239:5243   */\n      0x00\n        /* \"#utility.yul\":5329:5347   */\n      0xffffffffffffffff\n        /* \"#utility.yul\":5321:5327   */\n      dup3\n        /* \"#utility.yul\":5318:5348   */\n      gt\n        /* \"#utility.yul\":5315:5371   */\n      iszero\n      tag_341\n      jumpi\n        /* \"#utility.yul\":5351:5369   */\n      tag_342\n      tag_241\n      jump\t// in\n    tag_342:\n        /* \"#utility.yul\":5315:5371   */\n    tag_341:\n        /* \"#utility.yul\":5389:5418   */\n      tag_343\n        /* \"#utility.yul\":5411:5417   */\n      dup3\n        /* \"#utility.yul\":5389:5418   */\n      tag_229\n      jump\t// in\n    tag_343:\n        /* \"#utility.yul\":5381:5418   */\n      swap1\n      pop\n        /* \"#utility.yul\":5473:5477   */\n      0x20\n        /* \"#utility.yul\":5467:5471   */\n      dup2\n        /* \"#utility.yul\":5463:5478   */\n      add\n        /* \"#utility.yul\":5455:5478   */\n      swap1\n      pop\n        /* \"#utility.yul\":5177:5485   */\n      swap2\n      swap1\n      pop\n      jump\t// out\n        /* \"#utility.yul\":5491:5639   */\n    tag_245:\n        /* \"#utility.yul\":5589:5595   */\n      dup3\n        /* \"#utility.yul\":5584:5587   */\n      dup2\n        /* \"#utility.yul\":5579:5582   */\n      dup4\n        /* \"#utility.yul\":5566:5596   */\n      calldatacopy\n        /* \"#utility.yul\":5630:5631   */\n      0x00\n        /* \"#utility.yul\":5621:5627   */\n      dup4\n        /* \"#utility.yul\":5616:5619   */\n      dup4\n        /* \"#utility.yul\":5612:5628   */\n      add\n        /* \"#utility.yul\":5605:5632   */\n      mstore\n        /* \"#utility.yul\":5491:5639   */\n      pop\n      pop\n      pop\n      jump\t// out\n        /* \"#utility.yul\":5645:6070   */\n    tag_246:\n        /* \"#utility.yul\":5723:5728   */\n      0x00\n        /* \"#utility.yul\":5748:5814   */\n      tag_346\n        /* \"#utility.yul\":5764:5813   */\n      tag_347\n        /* \"#utility.yul\":5806:5812   */\n      dup5\n        /* \"#utility.yul\":5764:5813   */\n      tag_244\n      jump\t// in\n    tag_347:\n        /* \"#utility.yul\":5748:5814   */\n      tag_243\n      jump\t// in\n    tag_346:\n        /* \"#utility.yul\":5739:5814   */\n      swap1\n      pop\n        /* \"#utility.yul\":5837:5843   */\n      dup3\n        /* \"#utility.yul\":5830:5835   */\n      dup2\n        /* \"#utility.yul\":5823:5844   */\n      mstore\n        /* \"#utility.yul\":5875:5879   */\n      0x20\n        /* \"#utility.yul\":5868:5873   */\n      dup2\n        /* \"#utility.yul\":5864:5880   */\n      add\n        /* \"#utility.yul\":5913:5916   */\n      dup5\n        /* \"#utility.yul\":5904:5910   */\n      dup5\n        /* \"#utility.yul\":5899:5902   */\n      dup5\n        /* \"#utility.yul\":5895:5911   */\n      add\n        /* \"#utility.yul\":5892:5917   */\n      gt\n        /* \"#utility.yul\":5889:6001   */\n      iszero\n      tag_348\n      jumpi\n        /* \"#utility.yul\":5920:5999   */\n      tag_349\n      tag_240\n      jump\t// in\n    tag_349:\n        /* \"#utility.yul\":5889:6001   */\n    tag_348:\n        /* \"#utility.yul\":6010:6064   */\n      tag_350\n        /* \"#utility.yul\":6057:6063   */\n      dup5\n        /* \"#utility.yul\":6052:6055   */\n      dup3\n        /* \"#utility.yul\":6047:6050   */\n      dup6\n        /* \"#utility.yul\":6010:6064   */\n      tag_245\n      jump\t// in\n    tag_350:\n        /* \"#utility.yul\":5729:6070   */\n      pop\n        /* \"#utility.yul\":5645:6070   */\n      swap4\n      swap3\n      pop\n      pop\n      pop\n      jump\t// out\n        /* \"#utility.yul\":6090:6430   */\n    tag_247:\n        /* \"#utility.yul\":6146:6151   */\n      0x00\n        /* \"#utility.yul\":6195:6198   */\n      dup3\n        /* \"#utility.yul\":6188:6192   */\n      0x1f\n        /* \"#utility.yul\":6180:6186   */\n      dup4\n        /* \"#utility.yul\":6176:6193   */\n      add\n        /* \"#utility.yul\":6172:6199   */\n      slt\n        /* \"#utility.yul\":6162:6284   */\n      tag_352\n      jumpi\n        /* \"#utility.yul\":6203:6282   */\n      tag_353\n      tag_239\n      jump\t// in\n    tag_353:\n        /* \"#utility.yul\":6162:6284   */\n    tag_352:\n        /* \"#utility.yul\":6320:6326   */\n      dup2\n        /* \"#utility.yul\":6307:6327   */\n      calldataload\n        /* \"#utility.yul\":6345:6424   */\n      tag_354\n        /* \"#utility.yul\":6420:6423   */\n      dup5\n        /* \"#utility.yul\":6412:6418   */\n      dup3\n        /* \"#utility.yul\":6405:6409   */\n      0x20\n        /* \"#utility.yul\":6397:6403   */\n      dup7\n        /* \"#utility.yul\":6393:6410   */\n      add\n        /* \"#utility.yul\":6345:6424   */\n      tag_246\n      jump\t// in\n    tag_354:\n        /* \"#utility.yul\":6336:6424   */\n      swap2\n      pop\n        /* \"#utility.yul\":6152:6430   */\n      pop\n        /* \"#utility.yul\":6090:6430   */\n      swap3\n      swap2\n      pop\n      pop\n      jump\t// out\n        /* \"#utility.yul\":6436:6945   */\n    tag_50:\n        /* \"#utility.yul\":6505:6511   */\n      0x00\n        /* \"#utility.yul\":6554:6556   */\n      0x20\n        /* \"#utility.yul\":6542:6551   */\n      dup3\n        /* \"#utility.yul\":6533:6540   */\n      dup5\n        /* \"#utility.yul\":6529:6552   */\n      sub\n        /* \"#utility.yul\":6525:6557   */\n      slt\n        /* \"#utility.yul\":6522:6641   */\n      iszero\n      tag_356\n      jumpi\n        /* \"#utility.yul\":6560:6639   */\n      tag_357\n      tag_221\n      jump\t// in\n    tag_357:\n        /* \"#utility.yul\":6522:6641   */\n    tag_356:\n        /* \"#utility.yul\":6708:6709   */\n      0x00\n        /* \"#utility.yul\":6697:6706   */\n      dup3\n        /* \"#utility.yul\":6693:6710   */\n      add\n        /* \"#utility.yul\":6680:6711   */\n      calldataload\n        /* \"#utility.yul\":6738:6756   */\n      0xffffffffffffffff\n        /* \"#utility.yul\":6730:6736   */\n      dup2\n        /* \"#utility.yul\":6727:6757   */\n      gt\n        /* \"#utility.yul\":6724:6841   */\n      iszero\n      tag_358\n      jumpi\n        /* \"#utility.yul\":6760:6839   */\n      tag_359\n      tag_222\n      jump\t// in\n    tag_359:\n        /* \"#utility.yul\":6724:6841   */\n    tag_358:\n        /* \"#utility.yul\":6865:6928   */\n      tag_360\n        /* \"#utility.yul\":6920:6927   */\n      dup5\n        /* \"#utility.yul\":6911:6917   */\n      dup3\n        /* \"#utility.yul\":6900:6909   */\n      dup6\n        /* \"#utility.yul\":6896:6918   */\n      add\n        /* \"#utility.yul\":6865:6928   */\n      tag_247\n      jump\t// in\n    tag_360:\n        /* \"#utility.yul\":6855:6928   */\n      swap2\n      pop\n        /* \"#utility.yul\":6651:6938   */\n      pop\n        /* \"#utility.yul\":6436:6945   */\n      swap3\n      swap2\n      pop\n      pop\n      jump\t// out\n        /* \"#utility.yul\":6951:7173   */\n    tag_55:\n        /* \"#utility.yul\":7044:7048   */\n      0x00\n        /* \"#utility.yul\":7082:7084   */\n      0x20\n        /* \"#utility.yul\":7071:7080   */\n      dup3\n        /* \"#utility.yul\":7067:7085   */\n      add\n        /* \"#utility.yul\":7059:7085   */\n      swap1\n      pop\n        /* \"#utility.yul\":7095:7166   */\n      tag_362\n        /* \"#utility.yul\":7163:7164   */\n      0x00\n        /* \"#utility.yul\":7152:7161   */\n      dup4\n        /* \"#utility.yul\":7148:7165   */\n      add\n        /* \"#utility.yul\":7139:7145   */\n      dup5\n        /* \"#utility.yul\":7095:7166   */\n      tag_231\n      jump\t// in\n    tag_362:\n        /* \"#utility.yul\":6951:7173   */\n      swap3\n      swap2\n      pop\n      pop\n      jump\t// out\n        /* \"#utility.yul\":7179:7359   */\n    tag_77:\n        /* \"#utility.yul\":7227:7304   */\n      0x4e487b7100000000000000000000000000000000000000000000000000000000\n        /* \"#utility.yul\":7224:7225   */\n      0x00\n        /* \"#utility.yul\":7217:7305   */\n      mstore\n        /* \"#utility.yul\":7324:7328   */\n      0x21\n        /* \"#utility.yul\":7321:7322   */\n      0x04\n        /* \"#utility.yul\":7314:7329   */\n      mstore\n        /* \"#utility.yul\":7348:7352   */\n      0x24\n        /* \"#utility.yul\":7345:7346   */\n      0x00\n        /* \"#utility.yul\":7338:7353   */\n      revert\n        /* \"#utility.yul\":7365:7487   */\n    tag_248:\n        /* \"#utility.yul\":7455:7456   */\n      0x06\n        /* \"#utility.yul\":7448:7453   */\n      dup2\n        /* \"#utility.yul\":7445:7457   */\n      lt\n        /* \"#utility.yul\":7435:7481   */\n      tag_365\n      jumpi\n        /* \"#utility.yul\":7461:7479   */\n      tag_366\n      tag_77\n      jump\t// in\n    tag_366:\n        /* \"#utility.yul\":7435:7481   */\n    tag_365:\n        /* \"#utility.yul\":7365:7487   */\n      pop\n      jump\t// out\n        /* \"#utility.yul\":7493:7638   */\n    tag_249:\n        /* \"#utility.yul\":7547:7554   */\n      0x00\n        /* \"#utility.yul\":7576:7581   */\n      dup2\n        /* \"#utility.yul\":7565:7581   */\n      swap1\n      pop\n        /* \"#utility.yul\":7582:7632   */\n      tag_368\n        /* \"#utility.yul\":7626:7631   */\n      dup3\n        /* \"#utility.yul\":7582:7632   */\n      tag_248\n      jump\t// in\n    tag_368:\n        /* \"#utility.yul\":7493:7638   */\n      swap2\n      swap1\n      pop\n      jump\t// out\n        /* \"#utility.yul\":7644:7789   */\n    tag_250:\n        /* \"#utility.yul\":7709:7718   */\n      0x00\n        /* \"#utility.yul\":7742:7783   */\n      tag_370\n        /* \"#utility.yul\":7777:7782   */\n      dup3\n        /* \"#utility.yul\":7742:7783   */\n      tag_249\n      jump\t// in\n    tag_370:\n        /* \"#utility.yul\":7729:7783   */\n      swap1\n      pop\n        /* \"#utility.yul\":7644:7789   */\n      swap2\n      swap1\n      pop\n      jump\t// out\n        /* \"#utility.yul\":7795:7956   */\n    tag_251:\n        /* \"#utility.yul\":7897:7949   */\n      tag_372\n        /* \"#utility.yul\":7943:7948   */\n      dup2\n        /* \"#utility.yul\":7897:7949   */\n      tag_250\n      jump\t// in\n    tag_372:\n        /* \"#utility.yul\":7892:7895   */\n      dup3\n        /* \"#utility.yul\":7885:7950   */\n      mstore\n        /* \"#utility.yul\":7795:7956   */\n      pop\n      pop\n      jump\t// out\n        /* \"#utility.yul\":7962:8214   */\n    tag_66:\n        /* \"#utility.yul\":8070:8074   */\n      0x00\n        /* \"#utility.yul\":8108:8110   */\n      0x20\n        /* \"#utility.yul\":8097:8106   */\n      dup3\n        /* \"#utility.yul\":8093:8111   */\n      add\n        /* \"#utility.yul\":8085:8111   */\n      swap1\n      pop\n        /* \"#utility.yul\":8121:8207   */\n      tag_374\n        /* \"#utility.yul\":8204:8205   */\n      0x00\n        /* \"#utility.yul\":8193:8202   */\n      dup4\n        /* \"#utility.yul\":8189:8206   */\n      add\n        /* \"#utility.yul\":8180:8186   */\n      dup5\n        /* \"#utility.yul\":8121:8207   */\n      tag_251\n      jump\t// in\n    tag_374:\n        /* \"#utility.yul\":7962:8214   */\n      swap3\n      swap2\n      pop\n      pop\n      jump\t// out\n        /* \"#utility.yul\":8220:8392   */\n    tag_252:\n        /* \"#utility.yul\":8360:8384   */\n      0x596f75277265206e6f742057686974656c697374656400000000000000000000\n        /* \"#utility.yul\":8356:8357   */\n      0x00\n        /* \"#utility.yul\":8348:8354   */\n      dup3\n        /* \"#utility.yul\":8344:8358   */\n      add\n        /* \"#utility.yul\":8337:8385   */\n      mstore\n        /* \"#utility.yul\":8220:8392   */\n      pop\n      jump\t// out\n        /* \"#utility.yul\":8398:8764   */\n    tag_253:\n        /* \"#utility.yul\":8540:8543   */\n      0x00\n        /* \"#utility.yul\":8561:8628   */\n      tag_377\n        /* \"#utility.yul\":8625:8627   */\n      0x16\n        /* \"#utility.yul\":8620:8623   */\n      dup4\n        /* \"#utility.yul\":8561:8628   */\n      tag_227\n      jump\t// in\n    tag_377:\n        /* \"#utility.yul\":8554:8628   */\n      swap2\n      pop\n        /* \"#utility.yul\":8637:8730   */\n      tag_378\n        /* \"#utility.yul\":8726:8729   */\n      dup3\n        /* \"#utility.yul\":8637:8730   */\n      tag_252\n      jump\t// in\n    tag_378:\n        /* \"#utility.yul\":8755:8757   */\n      0x20\n        /* \"#utility.yul\":8750:8753   */\n      dup3\n        /* \"#utility.yul\":8746:8758   */\n      add\n        /* \"#utility.yul\":8739:8758   */\n      swap1\n      pop\n        /* \"#utility.yul\":8398:8764   */\n      swap2\n      swap1\n      pop\n      jump\t// out\n        /* \"#utility.yul\":8770:9189   */\n    tag_73:\n        /* \"#utility.yul\":8936:8940   */\n      0x00\n        /* \"#utility.yul\":8974:8976   */\n      0x20\n        /* \"#utility.yul\":8963:8972   */\n      dup3\n        /* \"#utility.yul\":8959:8977   */\n      add\n        /* \"#utility.yul\":8951:8977   */\n      swap1\n      pop\n        /* \"#utility.yul\":9023:9032   */\n      dup2\n        /* \"#utility.yul\":9017:9021   */\n      dup2\n        /* \"#utility.yul\":9013:9033   */\n      sub\n        /* \"#utility.yul\":9009:9010   */\n      0x00\n        /* \"#utility.yul\":8998:9007   */\n      dup4\n        /* \"#utility.yul\":8994:9011   */\n      add\n        /* \"#utility.yul\":8987:9034   */\n      mstore\n        /* \"#utility.yul\":9051:9182   */\n      tag_380\n        /* \"#utility.yul\":9177:9181   */\n      dup2\n        /* \"#utility.yul\":9051:9182   */\n      tag_253\n      jump\t// in\n    tag_380:\n        /* \"#utility.yul\":9043:9182   */\n      swap1\n      pop\n        /* \"#utility.yul\":8770:9189   */\n      swap2\n      swap1\n      pop\n      jump\t// out\n        /* \"#utility.yul\":9195:9421   */\n    tag_254:\n        /* \"#utility.yul\":9335:9369   */\n      0x596f75277265206e6f7420666f6c6c6f77696e67207468652072696768742057\n        /* \"#utility.yul\":9331:9332   */\n      0x00\n        /* \"#utility.yul\":9323:9329   */\n      dup3\n        /* \"#utility.yul\":9319:9333   */\n      add\n        /* \"#utility.yul\":9312:9370   */\n      mstore\n        /* \"#utility.yul\":9404:9413   */\n      0x6f726b666c6f7700000000000000000000000000000000000000000000000000\n        /* \"#utility.yul\":9399:9401   */\n      0x20\n        /* \"#utility.yul\":9391:9397   */\n      dup3\n        /* \"#utility.yul\":9387:9402   */\n      add\n        /* \"#utility.yul\":9380:9414   */\n      mstore\n        /* \"#utility.yul\":9195:9421   */\n      pop\n      jump\t// out\n        /* \"#utility.yul\":9427:9793   */\n    tag_255:\n        /* \"#utility.yul\":9569:9572   */\n      0x00\n        /* \"#utility.yul\":9590:9657   */\n      tag_383\n        /* \"#utility.yul\":9654:9656   */\n      0x27\n        /* \"#utility.yul\":9649:9652   */\n      dup4\n        /* \"#utility.yul\":9590:9657   */\n      tag_227\n      jump\t// in\n    tag_383:\n        /* \"#utility.yul\":9583:9657   */\n      swap2\n      pop\n        /* \"#utility.yul\":9666:9759   */\n      tag_384\n        /* \"#utility.yul\":9755:9758   */\n      dup3\n        /* \"#utility.yul\":9666:9759   */\n      tag_254\n      jump\t// in\n    tag_384:\n        /* \"#utility.yul\":9784:9786   */\n      0x40\n        /* \"#utility.yul\":9779:9782   */\n      dup3\n        /* \"#utility.yul\":9775:9787   */\n      add\n        /* \"#utility.yul\":9768:9787   */\n      swap1\n      pop\n        /* \"#utility.yul\":9427:9793   */\n      swap2\n      swap1\n      pop\n      jump\t// out\n        /* \"#utility.yul\":9799:10218   */\n    tag_82:\n        /* \"#utility.yul\":9965:9969   */\n      0x00\n        /* \"#utility.yul\":10003:10005   */\n      0x20\n        /* \"#utility.yul\":9992:10001   */\n      dup3\n        /* \"#utility.yul\":9988:10006   */\n      add\n        /* \"#utility.yul\":9980:10006   */\n      swap1\n      pop\n        /* \"#utility.yul\":10052:10061   */\n      dup2\n        /* \"#utility.yul\":10046:10050   */\n      dup2\n        /* \"#utility.yul\":10042:10062   */\n      sub\n        /* \"#utility.yul\":10038:10039   */\n      0x00\n        /* \"#utility.yul\":10027:10036   */\n      dup4\n        /* \"#utility.yul\":10023:10040   */\n      add\n        /* \"#utility.yul\":10016:10063   */\n      mstore\n        /* \"#utility.yul\":10080:10211   */\n      tag_386\n        /* \"#utility.yul\":10206:10210   */\n      dup2\n        /* \"#utility.yul\":10080:10211   */\n      tag_255\n      jump\t// in\n    tag_386:\n        /* \"#utility.yul\":10072:10211   */\n      swap1\n      pop\n        /* \"#utility.yul\":9799:10218   */\n      swap2\n      swap1\n      pop\n      jump\t// out\n        /* \"#utility.yul\":10224:10392   */\n    tag_256:\n        /* \"#utility.yul\":10364:10384   */\n      0x596f7520616c726561647920766f746564210000000000000000000000000000\n        /* \"#utility.yul\":10360:10361   */\n      0x00\n        /* \"#utility.yul\":10352:10358   */\n      dup3\n        /* \"#utility.yul\":10348:10362   */\n      add\n        /* \"#utility.yul\":10341:10385   */\n      mstore\n        /* \"#utility.yul\":10224:10392   */\n      pop\n      jump\t// out\n        /* \"#utility.yul\":10398:10764   */\n    tag_257:\n        /* \"#utility.yul\":10540:10543   */\n      0x00\n        /* \"#utility.yul\":10561:10628   */\n      tag_389\n        /* \"#utility.yul\":10625:10627   */\n      0x12\n        /* \"#utility.yul\":10620:10623   */\n      dup4\n        /* \"#utility.yul\":10561:10628   */\n      tag_227\n      jump\t// in\n    tag_389:\n        /* \"#utility.yul\":10554:10628   */\n      swap2\n      pop\n        /* \"#utility.yul\":10637:10730   */\n      tag_390\n        /* \"#utility.yul\":10726:10729   */\n      dup3\n        /* \"#utility.yul\":10637:10730   */\n      tag_256\n      jump\t// in\n    tag_390:\n        /* \"#utility.yul\":10755:10757   */\n      0x20\n        /* \"#utility.yul\":10750:10753   */\n      dup3\n        /* \"#utility.yul\":10746:10758   */\n      add\n        /* \"#utility.yul\":10739:10758   */\n      swap1\n      pop\n        /* \"#utility.yul\":10398:10764   */\n      swap2\n      swap1\n      pop\n      jump\t// out\n        /* \"#utility.yul\":10770:11189   */\n    tag_86:\n        /* \"#utility.yul\":10936:10940   */\n      0x00\n        /* \"#utility.yul\":10974:10976   */\n      0x20\n        /* \"#utility.yul\":10963:10972   */\n      dup3\n        /* \"#utility.yul\":10959:10977   */\n      add\n        /* \"#utility.yul\":10951:10977   */\n      swap1\n      pop\n        /* \"#utility.yul\":11023:11032   */\n      dup2\n        /* \"#utility.yul\":11017:11021   */\n      dup2\n        /* \"#utility.yul\":11013:11033   */\n      sub\n        /* \"#utility.yul\":11009:11010   */\n      0x00\n        /* \"#utility.yul\":10998:11007   */\n      dup4\n        /* \"#utility.yul\":10994:11011   */\n      add\n        /* \"#utility.yul\":10987:11034   */\n      mstore\n        /* \"#utility.yul\":11051:11182   */\n      tag_392\n        /* \"#utility.yul\":11177:11181   */\n      dup2\n        /* \"#utility.yul\":11051:11182   */\n      tag_257\n      jump\t// in\n    tag_392:\n        /* \"#utility.yul\":11043:11182   */\n      swap1\n      pop\n        /* \"#utility.yul\":10770:11189   */\n      swap2\n      swap1\n      pop\n      jump\t// out\n        /* \"#utility.yul\":11195:11432   */\n    tag_258:\n        /* \"#utility.yul\":11335:11369   */\n      0x596f7520747269656420746f20766f746520666f7220612070726f706f73616c\n        /* \"#utility.yul\":11331:11332   */\n      0x00\n        /* \"#utility.yul\":11323:11329   */\n      dup3\n        /* \"#utility.yul\":11319:11333   */\n      add\n        /* \"#utility.yul\":11312:11370   */\n      mstore\n        /* \"#utility.yul\":11404:11424   */\n      0x2077686f20646f65736e27742065786973740000000000000000000000000000\n        /* \"#utility.yul\":11399:11401   */\n      0x20\n        /* \"#utility.yul\":11391:11397   */\n      dup3\n        /* \"#utility.yul\":11387:11402   */\n      add\n        /* \"#utility.yul\":11380:11425   */\n      mstore\n        /* \"#utility.yul\":11195:11432   */\n      pop\n      jump\t// out\n        /* \"#utility.yul\":11438:11804   */\n    tag_259:\n        /* \"#utility.yul\":11580:11583   */\n      0x00\n        /* \"#utility.yul\":11601:11668   */\n      tag_395\n        /* \"#utility.yul\":11665:11667   */\n      0x32\n        /* \"#utility.yul\":11660:11663   */\n      dup4\n        /* \"#utility.yul\":11601:11668   */\n      tag_227\n      jump\t// in\n    tag_395:\n        /* \"#utility.yul\":11594:11668   */\n      swap2\n      pop\n        /* \"#utility.yul\":11677:11770   */\n      tag_396\n        /* \"#utility.yul\":11766:11769   */\n      dup3\n        /* \"#utility.yul\":11677:11770   */\n      tag_258\n      jump\t// in\n    tag_396:\n        /* \"#utility.yul\":11795:11797   */\n      0x40\n        /* \"#utility.yul\":11790:11793   */\n      dup3\n        /* \"#utility.yul\":11786:11798   */\n      add\n        /* \"#utility.yul\":11779:11798   */\n      swap1\n      pop\n        /* \"#utility.yul\":11438:11804   */\n      swap2\n      swap1\n      pop\n      jump\t// out\n        /* \"#utility.yul\":11810:12229   */\n    tag_89:\n        /* \"#utility.yul\":11976:11980   */\n      0x00\n        /* \"#utility.yul\":12014:12016   */\n      0x20\n        /* \"#utility.yul\":12003:12012   */\n      dup3\n        /* \"#utility.yul\":11999:12017   */\n      add\n        /* \"#utility.yul\":11991:12017   */\n      swap1\n      pop\n        /* \"#utility.yul\":12063:12072   */\n      dup2\n        /* \"#utility.yul\":12057:12061   */\n      dup2\n        /* \"#utility.yul\":12053:12073   */\n      sub\n        /* \"#utility.yul\":12049:12050   */\n      0x00\n        /* \"#utility.yul\":12038:12047   */\n      dup4\n        /* \"#utility.yul\":12034:12051   */\n      add\n        /* \"#utility.yul\":12027:12074   */\n      mstore\n        /* \"#utility.yul\":12091:12222   */\n      tag_398\n        /* \"#utility.yul\":12217:12221   */\n      dup2\n        /* \"#utility.yul\":12091:12222   */\n      tag_259\n      jump\t// in\n    tag_398:\n        /* \"#utility.yul\":12083:12222   */\n      swap1\n      pop\n        /* \"#utility.yul\":11810:12229   */\n      swap2\n      swap1\n      pop\n      jump\t// out\n        /* \"#utility.yul\":12235:12415   */\n    tag_92:\n        /* \"#utility.yul\":12283:12360   */\n      0x4e487b7100000000000000000000000000000000000000000000000000000000\n        /* \"#utility.yul\":12280:12281   */\n      0x00\n        /* \"#utility.yul\":12273:12361   */\n      mstore\n        /* \"#utility.yul\":12380:12384   */\n      0x32\n        /* \"#utility.yul\":12377:12378   */\n      0x04\n        /* \"#utility.yul\":12370:12385   */\n      mstore\n        /* \"#utility.yul\":12404:12408   */\n      0x24\n        /* \"#utility.yul\":12401:12402   */\n      0x00\n        /* \"#utility.yul\":12394:12409   */\n      revert\n        /* \"#utility.yul\":12421:12601   */\n    tag_260:\n        /* \"#utility.yul\":12469:12546   */\n      0x4e487b7100000000000000000000000000000000000000000000000000000000\n        /* \"#utility.yul\":12466:12467   */\n      0x00\n        /* \"#utility.yul\":12459:12547   */\n      mstore\n        /* \"#utility.yul\":12566:12570   */\n      0x11\n        /* \"#utility.yul\":12563:12564   */\n      0x04\n        /* \"#utility.yul\":12556:12571   */\n      mstore\n        /* \"#utility.yul\":12590:12594   */\n      0x24\n        /* \"#utility.yul\":12587:12588   */\n      0x00\n        /* \"#utility.yul\":12580:12595   */\n      revert\n        /* \"#utility.yul\":12607:12798   */\n    tag_95:\n        /* \"#utility.yul\":12647:12650   */\n      0x00\n        /* \"#utility.yul\":12666:12686   */\n      tag_402\n        /* \"#utility.yul\":12684:12685   */\n      dup3\n        /* \"#utility.yul\":12666:12686   */\n      tag_223\n      jump\t// in\n    tag_402:\n        /* \"#utility.yul\":12661:12686   */\n      swap2\n      pop\n        /* \"#utility.yul\":12700:12720   */\n      tag_403\n        /* \"#utility.yul\":12718:12719   */\n      dup4\n        /* \"#utility.yul\":12700:12720   */\n      tag_223\n      jump\t// in\n    tag_403:\n        /* \"#utility.yul\":12695:12720   */\n      swap3\n      pop\n        /* \"#utility.yul\":12743:12744   */\n      dup3\n        /* \"#utility.yul\":12740:12741   */\n      dup3\n        /* \"#utility.yul\":12736:12745   */\n      add\n        /* \"#utility.yul\":12729:12745   */\n      swap1\n      pop\n        /* \"#utility.yul\":12764:12767   */\n      dup1\n        /* \"#utility.yul\":12761:12762   */\n      dup3\n        /* \"#utility.yul\":12758:12768   */\n      gt\n        /* \"#utility.yul\":12755:12791   */\n      iszero\n      tag_404\n      jumpi\n        /* \"#utility.yul\":12771:12789   */\n      tag_405\n      tag_260\n      jump\t// in\n    tag_405:\n        /* \"#utility.yul\":12755:12791   */\n    tag_404:\n        /* \"#utility.yul\":12607:12798   */\n      swap3\n      swap2\n      pop\n      pop\n      jump\t// out\n        /* \"#utility.yul\":12804:13136   */\n    tag_97:\n        /* \"#utility.yul\":12925:12929   */\n      0x00\n        /* \"#utility.yul\":12963:12965   */\n      0x40\n        /* \"#utility.yul\":12952:12961   */\n      dup3\n        /* \"#utility.yul\":12948:12966   */\n      add\n        /* \"#utility.yul\":12940:12966   */\n      swap1\n      pop\n        /* \"#utility.yul\":12976:13047   */\n      tag_407\n        /* \"#utility.yul\":13044:13045   */\n      0x00\n        /* \"#utility.yul\":13033:13042   */\n      dup4\n        /* \"#utility.yul\":13029:13046   */\n      add\n        /* \"#utility.yul\":13020:13026   */\n      dup6\n        /* \"#utility.yul\":12976:13047   */\n      tag_234\n      jump\t// in\n    tag_407:\n        /* \"#utility.yul\":13057:13129   */\n      tag_408\n        /* \"#utility.yul\":13125:13127   */\n      0x20\n        /* \"#utility.yul\":13114:13123   */\n      dup4\n        /* \"#utility.yul\":13110:13128   */\n      add\n        /* \"#utility.yul\":13101:13107   */\n      dup5\n        /* \"#utility.yul\":13057:13129   */\n      tag_231\n      jump\t// in\n    tag_408:\n        /* \"#utility.yul\":12804:13136   */\n      swap4\n      swap3\n      pop\n      pop\n      pop\n      jump\t// out\n        /* \"#utility.yul\":13142:13322   */\n    tag_261:\n        /* \"#utility.yul\":13190:13267   */\n      0x4e487b7100000000000000000000000000000000000000000000000000000000\n        /* \"#utility.yul\":13187:13188   */\n      0x00\n        /* \"#utility.yul\":13180:13268   */\n      mstore\n        /* \"#utility.yul\":13287:13291   */\n      0x22\n        /* \"#utility.yul\":13284:13285   */\n      0x04\n        /* \"#utility.yul\":13277:13292   */\n      mstore\n        /* \"#utility.yul\":13311:13315   */\n      0x24\n        /* \"#utility.yul\":13308:13309   */\n      0x00\n        /* \"#utility.yul\":13301:13316   */\n      revert\n        /* \"#utility.yul\":13328:13648   */\n    tag_101:\n        /* \"#utility.yul\":13372:13378   */\n      0x00\n        /* \"#utility.yul\":13409:13410   */\n      0x02\n        /* \"#utility.yul\":13403:13407   */\n      dup3\n        /* \"#utility.yul\":13399:13411   */\n      div\n        /* \"#utility.yul\":13389:13411   */\n      swap1\n      pop\n        /* \"#utility.yul\":13456:13457   */\n      0x01\n        /* \"#utility.yul\":13450:13454   */\n      dup3\n        /* \"#utility.yul\":13446:13458   */\n      and\n        /* \"#utility.yul\":13477:13495   */\n      dup1\n        /* \"#utility.yul\":13467:13548   */\n      tag_411\n      jumpi\n        /* \"#utility.yul\":13533:13537   */\n      0x7f\n        /* \"#utility.yul\":13525:13531   */\n      dup3\n        /* \"#utility.yul\":13521:13538   */\n      and\n        /* \"#utility.yul\":13511:13538   */\n      swap2\n      pop\n        /* \"#utility.yul\":13467:13548   */\n    tag_411:\n        /* \"#utility.yul\":13595:13597   */\n      0x20\n        /* \"#utility.yul\":13587:13593   */\n      dup3\n        /* \"#utility.yul\":13584:13598   */\n      lt\n        /* \"#utility.yul\":13564:13582   */\n      dup2\n        /* \"#utility.yul\":13561:13599   */\n      sub\n        /* \"#utility.yul\":13558:13642   */\n      tag_412\n      jumpi\n        /* \"#utility.yul\":13614:13632   */\n      tag_413\n      tag_261\n      jump\t// in\n    tag_413:\n        /* \"#utility.yul\":13558:13642   */\n    tag_412:\n        /* \"#utility.yul\":13379:13648   */\n      pop\n        /* \"#utility.yul\":13328:13648   */\n      swap2\n      swap1\n      pop\n      jump\t// out\n        /* \"#utility.yul\":13654:14046   */\n    tag_117:\n        /* \"#utility.yul\":13805:13809   */\n      0x00\n        /* \"#utility.yul\":13843:13845   */\n      0x40\n        /* \"#utility.yul\":13832:13841   */\n      dup3\n        /* \"#utility.yul\":13828:13846   */\n      add\n        /* \"#utility.yul\":13820:13846   */\n      swap1\n      pop\n        /* \"#utility.yul\":13856:13942   */\n      tag_415\n        /* \"#utility.yul\":13939:13940   */\n      0x00\n        /* \"#utility.yul\":13928:13937   */\n      dup4\n        /* \"#utility.yul\":13924:13941   */\n      add\n        /* \"#utility.yul\":13915:13921   */\n      dup6\n        /* \"#utility.yul\":13856:13942   */\n      tag_251\n      jump\t// in\n    tag_415:\n        /* \"#utility.yul\":13952:14039   */\n      tag_416\n        /* \"#utility.yul\":14035:14037   */\n      0x20\n        /* \"#utility.yul\":14024:14033   */\n      dup4\n        /* \"#utility.yul\":14020:14038   */\n      add\n        /* \"#utility.yul\":14011:14017   */\n      dup5\n        /* \"#utility.yul\":13952:14039   */\n      tag_251\n      jump\t// in\n    tag_416:\n        /* \"#utility.yul\":13654:14046   */\n      swap4\n      swap3\n      pop\n      pop\n      pop\n      jump\t// out\n        /* \"#utility.yul\":14052:14193   */\n    tag_262:\n        /* \"#utility.yul\":14101:14105   */\n      0x00\n        /* \"#utility.yul\":14124:14127   */\n      dup2\n        /* \"#utility.yul\":14116:14127   */\n      swap1\n      pop\n        /* \"#utility.yul\":14147:14150   */\n      dup2\n        /* \"#utility.yul\":14144:14145   */\n      0x00\n        /* \"#utility.yul\":14137:14151   */\n      mstore\n        /* \"#utility.yul\":14181:14185   */\n      0x20\n        /* \"#utility.yul\":14178:14179   */\n      0x00\n        /* \"#utility.yul\":14168:14186   */\n      keccak256\n        /* \"#utility.yul\":14160:14186   */\n      swap1\n      pop\n        /* \"#utility.yul\":14052:14193   */\n      swap2\n      swap1\n      pop\n      jump\t// out\n        /* \"#utility.yul\":14199:14292   */\n    tag_263:\n        /* \"#utility.yul\":14236:14242   */\n      0x00\n        /* \"#utility.yul\":14283:14285   */\n      0x20\n        /* \"#utility.yul\":14278:14280   */\n      0x1f\n        /* \"#utility.yul\":14271:14276   */\n      dup4\n        /* \"#utility.yul\":14267:14281   */\n      add\n        /* \"#utility.yul\":14263:14286   */\n      div\n        /* \"#utility.yul\":14253:14286   */\n      swap1\n      pop\n        /* \"#utility.yul\":14199:14292   */\n      swap2\n      swap1\n      pop\n      jump\t// out\n        /* \"#utility.yul\":14298:14405   */\n    tag_264:\n        /* \"#utility.yul\":14342:14350   */\n      0x00\n        /* \"#utility.yul\":14392:14397   */\n      dup3\n        /* \"#utility.yul\":14386:14390   */\n      dup3\n        /* \"#utility.yul\":14382:14398   */\n      shl\n        /* \"#utility.yul\":14361:14398   */\n      swap1\n      pop\n        /* \"#utility.yul\":14298:14405   */\n      swap3\n      swap2\n      pop\n      pop\n      jump\t// out\n        /* \"#utility.yul\":14411:14804   */\n    tag_265:\n        /* \"#utility.yul\":14480:14486   */\n      0x00\n        /* \"#utility.yul\":14530:14531   */\n      0x08\n        /* \"#utility.yul\":14518:14528   */\n      dup4\n        /* \"#utility.yul\":14514:14532   */\n      mul\n        /* \"#utility.yul\":14553:14650   */\n      tag_421\n        /* \"#utility.yul\":14583:14649   */\n      0xffffffffffffffffffffffffffffffffffffffffffffffffffffffffffffffff\n        /* \"#utility.yul\":14572:14581   */\n      dup3\n        /* \"#utility.yul\":14553:14650   */\n      tag_264\n      jump\t// in\n    tag_421:\n        /* \"#utility.yul\":14671:14710   */\n      tag_422\n        /* \"#utility.yul\":14701:14709   */\n      dup7\n        /* \"#utility.yul\":14690:14699   */\n      dup4\n        /* \"#utility.yul\":14671:14710   */\n      tag_264\n      jump\t// in\n    tag_422:\n        /* \"#utility.yul\":14659:14710   */\n      swap6\n      pop\n        /* \"#utility.yul\":14743:14747   */\n      dup1\n        /* \"#utility.yul\":14739:14748   */\n      not\n        /* \"#utility.yul\":14732:14737   */\n      dup5\n        /* \"#utility.yul\":14728:14749   */\n      and\n        /* \"#utility.yul\":14719:14749   */\n      swap4\n      pop\n        /* \"#utility.yul\":14792:14796   */\n      dup1\n        /* \"#utility.yul\":14782:14790   */\n      dup7\n        /* \"#utility.yul\":14778:14797   */\n      and\n        /* \"#utility.yul\":14771:14776   */\n      dup5\n        /* \"#utility.yul\":14768:14798   */\n      or\n        /* \"#utility.yul\":14758:14798   */\n      swap3\n      pop\n        /* \"#utility.yul\":14487:14804   */\n      pop\n      pop\n        /* \"#utility.yul\":14411:14804   */\n      swap4\n      swap3\n      pop\n      pop\n      pop\n      jump\t// out\n        /* \"#utility.yul\":14810:14870   */\n    tag_266:\n        /* \"#utility.yul\":14838:14841   */\n      0x00\n        /* \"#utility.yul\":14859:14864   */\n      dup2\n        /* \"#utility.yul\":14852:14864   */\n      swap1\n      pop\n        /* \"#utility.yul\":14810:14870   */\n      swap2\n      swap1\n      pop\n      jump\t// out\n        /* \"#utility.yul\":14876:15018   */\n    tag_267:\n        /* \"#utility.yul\":14926:14935   */\n      0x00\n        /* \"#utility.yul\":14959:15012   */\n      tag_425\n        /* \"#utility.yul\":14977:15011   */\n      tag_426\n        /* \"#utility.yul\":14986:15010   */\n      tag_427\n        /* \"#utility.yul\":15004:15009   */\n      dup5\n        /* \"#utility.yul\":14986:15010   */\n      tag_223\n      jump\t// in\n    tag_427:\n        /* \"#utility.yul\":14977:15011   */\n      tag_266\n      jump\t// in\n    tag_426:\n        /* \"#utility.yul\":14959:15012   */\n      tag_223\n      jump\t// in\n    tag_425:\n        /* \"#utility.yul\":14946:15012   */\n      swap1\n      pop\n        /* \"#utility.yul\":14876:15018   */\n      swap2\n      swap1\n      pop\n      jump\t// out\n        /* \"#utility.yul\":15024:15099   */\n    tag_268:\n        /* \"#utility.yul\":15067:15070   */\n      0x00\n        /* \"#utility.yul\":15088:15093   */\n      dup2\n        /* \"#utility.yul\":15081:15093   */\n      swap1\n      pop\n        /* \"#utility.yul\":15024:15099   */\n      swap2\n      swap1\n      pop\n      jump\t// out\n        /* \"#utility.yul\":15105:15374   */\n    tag_269:\n        /* \"#utility.yul\":15215:15254   */\n      tag_430\n        /* \"#utility.yul\":15246:15253   */\n      dup4\n        /* \"#utility.yul\":15215:15254   */\n      tag_267\n      jump\t// in\n    tag_430:\n        /* \"#utility.yul\":15276:15367   */\n      tag_431\n        /* \"#utility.yul\":15325:15366   */\n      tag_432\n        /* \"#utility.yul\":15349:15365   */\n      dup3\n        /* \"#utility.yul\":15325:15366   */\n      tag_268\n      jump\t// in\n    tag_432:\n        /* \"#utility.yul\":15317:15323   */\n      dup5\n        /* \"#utility.yul\":15310:15314   */\n      dup5\n        /* \"#utility.yul\":15304:15315   */\n      sload\n        /* \"#utility.yul\":15276:15367   */\n      tag_265\n      jump\t// in\n    tag_431:\n        /* \"#utility.yul\":15270:15274   */\n      dup3\n        /* \"#utility.yul\":15263:15368   */\n      sstore\n        /* \"#utility.yul\":15181:15374   */\n      pop\n        /* \"#utility.yul\":15105:15374   */\n      pop\n      pop\n      pop\n      jump\t// out\n        /* \"#utility.yul\":15380:15453   */\n    tag_270:\n        /* \"#utility.yul\":15425:15428   */\n      0x00\n        /* \"#utility.yul\":15446:15447   */\n      0x00\n        /* \"#utility.yul\":15439:15447   */\n      swap1\n      pop\n        /* \"#utility.yul\":15380:15453   */\n      swap1\n      jump\t// out\n        /* \"#utility.yul\":15459:15648   */\n    tag_271:\n        /* \"#utility.yul\":15536:15568   */\n      tag_435\n      tag_270\n      jump\t// in\n    tag_435:\n        /* \"#utility.yul\":15577:15642   */\n      tag_436\n        /* \"#utility.yul\":15635:15641   */\n      dup2\n        /* \"#utility.yul\":15627:15633   */\n      dup5\n        /* \"#utility.yul\":15621:15625   */\n      dup5\n        /* \"#utility.yul\":15577:15642   */\n      tag_269\n      jump\t// in\n    tag_436:\n        /* \"#utility.yul\":15512:15648   */\n      pop\n        /* \"#utility.yul\":15459:15648   */\n      pop\n      pop\n      jump\t// out\n        /* \"#utility.yul\":15654:15840   */\n    tag_272:\n        /* \"#utility.yul\":15714:15834   */\n    tag_438:\n        /* \"#utility.yul\":15731:15734   */\n      dup2\n        /* \"#utility.yul\":15724:15729   */\n      dup2\n        /* \"#utility.yul\":15721:15735   */\n      lt\n        /* \"#utility.yul\":15714:15834   */\n      iszero\n      tag_440\n      jumpi\n        /* \"#utility.yul\":15785:15824   */\n      tag_441\n        /* \"#utility.yul\":15822:15823   */\n      0x00\n        /* \"#utility.yul\":15815:15820   */\n      dup3\n        /* \"#utility.yul\":15785:15824   */\n      tag_271\n      jump\t// in\n    tag_441:\n        /* \"#utility.yul\":15758:15759   */\n      0x01\n        /* \"#utility.yul\":15751:15756   */\n      dup2\n        /* \"#utility.yul\":15747:15760   */\n      add\n        /* \"#utility.yul\":15738:15760   */\n      swap1\n      pop\n        /* \"#utility.yul\":15714:15834   */\n      jump(tag_438)\n    tag_440:\n        /* \"#utility.yul\":15654:15840   */\n      pop\n      pop\n      jump\t// out\n        /* \"#utility.yul\":15846:16389   */\n    tag_273:\n        /* \"#utility.yul\":15947:15949   */\n      0x1f\n        /* \"#utility.yul\":15942:15945   */\n      dup3\n        /* \"#utility.yul\":15939:15950   */\n      gt\n        /* \"#utility.yul\":15936:16382   */\n      iszero\n      tag_443\n      jumpi\n        /* \"#utility.yul\":15981:16019   */\n      tag_444\n        /* \"#utility.yul\":16013:16018   */\n      dup2\n        /* \"#utility.yul\":15981:16019   */\n      tag_262\n      jump\t// in\n    tag_444:\n        /* \"#utility.yul\":16065:16094   */\n      tag_445\n        /* \"#utility.yul\":16083:16093   */\n      dup5\n        /* \"#utility.yul\":16065:16094   */\n      tag_263\n      jump\t// in\n    tag_445:\n        /* \"#utility.yul\":16055:16063   */\n      dup2\n        /* \"#utility.yul\":16051:16095   */\n      add\n        /* \"#utility.yul\":16248:16250   */\n      0x20\n        /* \"#utility.yul\":16236:16246   */\n      dup6\n        /* \"#utility.yul\":16233:16251   */\n      lt\n        /* \"#utility.yul\":16230:16279   */\n      iszero\n      tag_446\n      jumpi\n        /* \"#utility.yul\":16269:16277   */\n      dup2\n        /* \"#utility.yul\":16254:16277   */\n      swap1\n      pop\n        /* \"#utility.yul\":16230:16279   */\n    tag_446:\n        /* \"#utility.yul\":16292:16372   */\n      tag_447\n        /* \"#utility.yul\":16348:16370   */\n      tag_448\n        /* \"#utility.yul\":16366:16369   */\n      dup6\n        /* \"#utility.yul\":16348:16370   */\n      tag_263\n      jump\t// in\n    tag_448:\n        /* \"#utility.yul\":16338:16346   */\n      dup4\n        /* \"#utility.yul\":16334:16371   */\n      add\n        /* \"#utility.yul\":16321:16332   */\n      dup3\n        /* \"#utility.yul\":16292:16372   */\n      tag_272\n      jump\t// in\n    tag_447:\n        /* \"#utility.yul\":15951:16382   */\n      pop\n      pop\n        /* \"#utility.yul\":15936:16382   */\n    tag_443:\n        /* \"#utility.yul\":15846:16389   */\n      pop\n      pop\n      pop\n      jump\t// out\n        /* \"#utility.yul\":16395:16512   */\n    tag_274:\n        /* \"#utility.yul\":16449:16457   */\n      0x00\n        /* \"#utility.yul\":16499:16504   */\n      dup3\n        /* \"#utility.yul\":16493:16497   */\n      dup3\n        /* \"#utility.yul\":16489:16505   */\n      shr\n        /* \"#utility.yul\":16468:16505   */\n      swap1\n      pop\n        /* \"#utility.yul\":16395:16512   */\n      swap3\n      swap2\n      pop\n      pop\n      jump\t// out\n        /* \"#utility.yul\":16518:16687   */\n    tag_275:\n        /* \"#utility.yul\":16562:16568   */\n      0x00\n        /* \"#utility.yul\":16595:16646   */\n      tag_451\n        /* \"#utility.yul\":16643:16644   */\n      0x00\n        /* \"#utility.yul\":16639:16645   */\n      not\n        /* \"#utility.yul\":16631:16636   */\n      dup5\n        /* \"#utility.yul\":16628:16629   */\n      0x08\n        /* \"#utility.yul\":16624:16637   */\n      mul\n        /* \"#utility.yul\":16595:16646   */\n      tag_274\n      jump\t// in\n    tag_451:\n        /* \"#utility.yul\":16591:16647   */\n      not\n        /* \"#utility.yul\":16676:16680   */\n      dup1\n        /* \"#utility.yul\":16670:16674   */\n      dup4\n        /* \"#utility.yul\":16666:16681   */\n      and\n        /* \"#utility.yul\":16656:16681   */\n      swap2\n      pop\n        /* \"#utility.yul\":16569:16687   */\n      pop\n        /* \"#utility.yul\":16518:16687   */\n      swap3\n      swap2\n      pop\n      pop\n      jump\t// out\n        /* \"#utility.yul\":16692:16987   */\n    tag_276:\n        /* \"#utility.yul\":16768:16772   */\n      0x00\n        /* \"#utility.yul\":16914:16943   */\n      tag_453\n        /* \"#utility.yul\":16939:16942   */\n      dup4\n        /* \"#utility.yul\":16933:16937   */\n      dup4\n        /* \"#utility.yul\":16914:16943   */\n      tag_275\n      jump\t// in\n    tag_453:\n        /* \"#utility.yul\":16906:16943   */\n      swap2\n      pop\n        /* \"#utility.yul\":16976:16979   */\n      dup3\n        /* \"#utility.yul\":16973:16974   */\n      0x02\n        /* \"#utility.yul\":16969:16980   */\n      mul\n        /* \"#utility.yul\":16963:16967   */\n      dup3\n        /* \"#utility.yul\":16960:16981   */\n      or\n        /* \"#utility.yul\":16952:16981   */\n      swap1\n      pop\n        /* \"#utility.yul\":16692:16987   */\n      swap3\n      swap2\n      pop\n      pop\n      jump\t// out\n        /* \"#utility.yul\":16992:18387   */\n    tag_172:\n        /* \"#utility.yul\":17109:17146   */\n      tag_455\n        /* \"#utility.yul\":17142:17145   */\n      dup3\n        /* \"#utility.yul\":17109:17146   */\n      tag_226\n      jump\t// in\n    tag_455:\n        /* \"#utility.yul\":17211:17229   */\n      0xffffffffffffffff\n        /* \"#utility.yul\":17203:17209   */\n      dup2\n        /* \"#utility.yul\":17200:17230   */\n      gt\n        /* \"#utility.yul\":17197:17253   */\n      iszero\n      tag_456\n      jumpi\n        /* \"#utility.yul\":17233:17251   */\n      tag_457\n      tag_241\n      jump\t// in\n    tag_457:\n        /* \"#utility.yul\":17197:17253   */\n    tag_456:\n        /* \"#utility.yul\":17277:17315   */\n      tag_458\n        /* \"#utility.yul\":17309:17313   */\n      dup3\n        /* \"#utility.yul\":17303:17314   */\n      sload\n        /* \"#utility.yul\":17277:17315   */\n      tag_101\n      jump\t// in\n    tag_458:\n        /* \"#utility.yul\":17362:17429   */\n      tag_459\n        /* \"#utility.yul\":17422:17428   */\n      dup3\n        /* \"#utility.yul\":17414:17420   */\n      dup3\n        /* \"#utility.yul\":17408:17412   */\n      dup6\n        /* \"#utility.yul\":17362:17429   */\n      tag_273\n      jump\t// in\n    tag_459:\n        /* \"#utility.yul\":17456:17457   */\n      0x00\n        /* \"#utility.yul\":17480:17484   */\n      0x20\n        /* \"#utility.yul\":17467:17484   */\n      swap1\n      pop\n        /* \"#utility.yul\":17512:17514   */\n      0x1f\n        /* \"#utility.yul\":17504:17510   */\n      dup4\n        /* \"#utility.yul\":17501:17515   */\n      gt\n        /* \"#utility.yul\":17529:17530   */\n      0x01\n        /* \"#utility.yul\":17524:18142   */\n      dup2\n      eq\n      tag_461\n      jumpi\n        /* \"#utility.yul\":18186:18187   */\n      0x00\n        /* \"#utility.yul\":18203:18209   */\n      dup5\n        /* \"#utility.yul\":18200:18277   */\n      iszero\n      tag_462\n      jumpi\n        /* \"#utility.yul\":18252:18261   */\n      dup3\n        /* \"#utility.yul\":18247:18250   */\n      dup8\n        /* \"#utility.yul\":18243:18262   */\n      add\n        /* \"#utility.yul\":18237:18263   */\n      mload\n        /* \"#utility.yul\":18228:18263   */\n      swap1\n      pop\n        /* \"#utility.yul\":18200:18277   */\n    tag_462:\n        /* \"#utility.yul\":18303:18370   */\n      tag_463\n        /* \"#utility.yul\":18363:18369   */\n      dup6\n        /* \"#utility.yul\":18356:18361   */\n      dup3\n        /* \"#utility.yul\":18303:18370   */\n      tag_276\n      jump\t// in\n    tag_463:\n        /* \"#utility.yul\":18297:18301   */\n      dup7\n        /* \"#utility.yul\":18290:18371   */\n      sstore\n        /* \"#utility.yul\":18159:18381   */\n      pop\n        /* \"#utility.yul\":17494:18381   */\n      jump(tag_460)\n        /* \"#utility.yul\":17524:18142   */\n    tag_461:\n        /* \"#utility.yul\":17576:17580   */\n      0x1f\n        /* \"#utility.yul\":17572:17581   */\n      not\n        /* \"#utility.yul\":17564:17570   */\n      dup5\n        /* \"#utility.yul\":17560:17582   */\n      and\n        /* \"#utility.yul\":17610:17647   */\n      tag_464\n        /* \"#utility.yul\":17642:17646   */\n      dup7\n        /* \"#utility.yul\":17610:17647   */\n      tag_262\n      jump\t// in\n    tag_464:\n        /* \"#utility.yul\":17669:17670   */\n      0x00\n        /* \"#utility.yul\":17683:17891   */\n    tag_465:\n        /* \"#utility.yul\":17697:17704   */\n      dup3\n        /* \"#utility.yul\":17694:17695   */\n      dup2\n        /* \"#utility.yul\":17691:17705   */\n      lt\n        /* \"#utility.yul\":17683:17891   */\n      iszero\n      tag_467\n      jumpi\n        /* \"#utility.yul\":17776:17785   */\n      dup5\n        /* \"#utility.yul\":17771:17774   */\n      dup10\n        /* \"#utility.yul\":17767:17786   */\n      add\n        /* \"#utility.yul\":17761:17787   */\n      mload\n        /* \"#utility.yul\":17753:17759   */\n      dup3\n        /* \"#utility.yul\":17746:17788   */\n      sstore\n        /* \"#utility.yul\":17827:17828   */\n      0x01\n        /* \"#utility.yul\":17819:17825   */\n      dup3\n        /* \"#utility.yul\":17815:17829   */\n      add\n        /* \"#utility.yul\":17805:17829   */\n      swap2\n      pop\n        /* \"#utility.yul\":17874:17876   */\n      0x20\n        /* \"#utility.yul\":17863:17872   */\n      dup6\n        /* \"#utility.yul\":17859:17877   */\n      add\n        /* \"#utility.yul\":17846:17877   */\n      swap5\n      pop\n        /* \"#utility.yul\":17720:17724   */\n      0x20\n        /* \"#utility.yul\":17717:17718   */\n      dup2\n        /* \"#utility.yul\":17713:17725   */\n      add\n        /* \"#utility.yul\":17708:17725   */\n      swap1\n      pop\n        /* \"#utility.yul\":17683:17891   */\n      jump(tag_465)\n    tag_467:\n        /* \"#utility.yul\":17919:17925   */\n      dup7\n        /* \"#utility.yul\":17910:17917   */\n      dup4\n        /* \"#utility.yul\":17907:17926   */\n      lt\n        /* \"#utility.yul\":17904:18083   */\n      iszero\n      tag_468\n      jumpi\n        /* \"#utility.yul\":17977:17986   */\n      dup5\n        /* \"#utility.yul\":17972:17975   */\n      dup10\n        /* \"#utility.yul\":17968:17987   */\n      add\n        /* \"#utility.yul\":17962:17988   */\n      mload\n        /* \"#utility.yul\":18020:18068   */\n      tag_469\n        /* \"#utility.yul\":18062:18066   */\n      0x1f\n        /* \"#utility.yul\":18054:18060   */\n      dup10\n        /* \"#utility.yul\":18050:18067   */\n      and\n        /* \"#utility.yul\":18039:18048   */\n      dup3\n        /* \"#utility.yul\":18020:18068   */\n      tag_275\n      jump\t// in\n    tag_469:\n        /* \"#utility.yul\":18012:18018   */\n      dup4\n        /* \"#utility.yul\":18005:18069   */\n      sstore\n        /* \"#utility.yul\":17927:18083   */\n      pop\n        /* \"#utility.yul\":17904:18083   */\n    tag_468:\n        /* \"#utility.yul\":18129:18130   */\n      0x01\n        /* \"#utility.yul\":18125:18126   */\n      0x02\n        /* \"#utility.yul\":18117:18123   */\n      dup9\n        /* \"#utility.yul\":18113:18127   */\n      mul\n        /* \"#utility.yul\":18109:18131   */\n      add\n        /* \"#utility.yul\":18103:18107   */\n      dup9\n        /* \"#utility.yul\":18096:18132   */\n      sstore\n        /* \"#utility.yul\":17531:18142   */\n      pop\n      pop\n      pop\n        /* \"#utility.yul\":17494:18381   */\n    tag_460:\n      pop\n        /* \"#utility.yul\":17084:18387   */\n      pop\n      pop\n      pop\n        /* \"#utility.yul\":16992:18387   */\n      pop\n      pop\n      jump\t// out\n        /* \"#utility.yul\":18393:18587   */\n    tag_174:\n        /* \"#utility.yul\":18433:18437   */\n      0x00\n        /* \"#utility.yul\":18453:18473   */\n      tag_471\n        /* \"#utility.yul\":18471:18472   */\n      dup3\n        /* \"#utility.yul\":18453:18473   */\n      tag_223\n      jump\t// in\n    tag_471:\n        /* \"#utility.yul\":18448:18473   */\n      swap2\n      pop\n        /* \"#utility.yul\":18487:18507   */\n      tag_472\n        /* \"#utility.yul\":18505:18506   */\n      dup4\n        /* \"#utility.yul\":18487:18507   */\n      tag_223\n      jump\t// in\n    tag_472:\n        /* \"#utility.yul\":18482:18507   */\n      swap3\n      pop\n        /* \"#utility.yul\":18531:18532   */\n      dup3\n        /* \"#utility.yul\":18528:18529   */\n      dup3\n        /* \"#utility.yul\":18524:18533   */\n      sub\n        /* \"#utility.yul\":18516:18533   */\n      swap1\n      pop\n        /* \"#utility.yul\":18555:18556   */\n      dup2\n        /* \"#utility.yul\":18549:18553   */\n      dup2\n        /* \"#utility.yul\":18546:18557   */\n      gt\n        /* \"#utility.yul\":18543:18580   */\n      iszero\n      tag_473\n      jumpi\n        /* \"#utility.yul\":18560:18578   */\n      tag_474\n      tag_260\n      jump\t// in\n    tag_474:\n        /* \"#utility.yul\":18543:18580   */\n    tag_473:\n        /* \"#utility.yul\":18393:18587   */\n      swap3\n      swap2\n      pop\n      pop\n      jump\t// out\n        /* \"#utility.yul\":18593:18815   */\n    tag_277:\n        /* \"#utility.yul\":18733:18767   */\n      0x54686973206164647265737320697320616c72656164792077686974656c6973\n        /* \"#utility.yul\":18729:18730   */\n      0x00\n        /* \"#utility.yul\":18721:18727   */\n      dup3\n        /* \"#utility.yul\":18717:18731   */\n      add\n        /* \"#utility.yul\":18710:18768   */\n      mstore\n        /* \"#utility.yul\":18802:18807   */\n      0x7465640000000000000000000000000000000000000000000000000000000000\n        /* \"#utility.yul\":18797:18799   */\n      0x20\n        /* \"#utility.yul\":18789:18795   */\n      dup3\n        /* \"#utility.yul\":18785:18800   */\n      add\n        /* \"#utility.yul\":18778:18808   */\n      mstore\n        /* \"#utility.yul\":18593:18815   */\n      pop\n      jump\t// out\n        /* \"#utility.yul\":18821:19187   */\n    tag_278:\n        /* \"#utility.yul\":18963:18966   */\n      0x00\n        /* \"#utility.yul\":18984:19051   */\n      tag_477\n        /* \"#utility.yul\":19048:19050   */\n      0x23\n        /* \"#utility.yul\":19043:19046   */\n      dup4\n        /* \"#utility.yul\":18984:19051   */\n      tag_227\n      jump\t// in\n    tag_477:\n        /* \"#utility.yul\":18977:19051   */\n      swap2\n      pop\n        /* \"#utility.yul\":19060:19153   */\n      tag_478\n        /* \"#utility.yul\":19149:19152   */\n      dup3\n        /* \"#utility.yul\":19060:19153   */\n      tag_277\n      jump\t// in\n    tag_478:\n        /* \"#utility.yul\":19178:19180   */\n      0x40\n        /* \"#utility.yul\":19173:19176   */\n      dup3\n        /* \"#utility.yul\":19169:19181   */\n      add\n        /* \"#utility.yul\":19162:19181   */\n      swap1\n      pop\n        /* \"#utility.yul\":18821:19187   */\n      swap2\n      swap1\n      pop\n      jump\t// out\n        /* \"#utility.yul\":19193:19612   */\n    tag_209:\n        /* \"#utility.yul\":19359:19363   */\n      0x00\n        /* \"#utility.yul\":19397:19399   */\n      0x20\n        /* \"#utility.yul\":19386:19395   */\n      dup3\n        /* \"#utility.yul\":19382:19400   */\n      add\n        /* \"#utility.yul\":19374:19400   */\n      swap1\n      pop\n        /* \"#utility.yul\":19446:19455   */\n      dup2\n        /* \"#utility.yul\":19440:19444   */\n      dup2\n        /* \"#utility.yul\":19436:19456   */\n      sub\n        /* \"#utility.yul\":19432:19433   */\n      0x00\n        /* \"#utility.yul\":19421:19430   */\n      dup4\n        /* \"#utility.yul\":19417:19434   */\n      add\n        /* \"#utility.yul\":19410:19457   */\n      mstore\n        /* \"#utility.yul\":19474:19605   */\n      tag_480\n        /* \"#utility.yul\":19600:19604   */\n      dup2\n        /* \"#utility.yul\":19474:19605   */\n      tag_278\n      jump\t// in\n    tag_480:\n        /* \"#utility.yul\":19466:19605   */\n      swap1\n      pop\n        /* \"#utility.yul\":19193:19612   */\n      swap2\n      swap1\n      pop\n      jump\t// out\n\n    auxdata: 0xa2646970667358221220bc1b067dd1f8abadd8137f50839a5302cb381ae528598c7a6a8f00dfebaefe4b64736f6c634300081e0033\n}\n",
				"bytecode": {
					"linkReferences": {},
					"object": "608060405234801561000f575f5ffd5b50335f73ffffffffffffffffffffffffffffffffffffffff168173ffffffffffffffffffffffffffffffffffffffff1603610081575f6040517f1e4fbdf700000000000000000000000000000000000000000000000000000000815260040161007891906101ed565b60405180910390fd5b610090816100ed60201b60201c565b50600160045f3373ffffffffffffffffffffffffffffffffffffffff1673ffffffffffffffffffffffffffffffffffffffff1681526020019081526020015f205f015f6101000a81548160ff021916908315150217905550610206565b5f5f5f9054906101000a900473ffffffffffffffffffffffffffffffffffffffff169050815f5f6101000a81548173ffffffffffffffffffffffffffffffffffffffff021916908373ffffffffffffffffffffffffffffffffffffffff1602179055508173ffffffffffffffffffffffffffffffffffffffff168173ffffffffffffffffffffffffffffffffffffffff167f8be0079c531659141344cd1fd0a4f28419497f9722a3daafe3b4186f6b6457e060405160405180910390a35050565b5f73ffffffffffffffffffffffffffffffffffffffff82169050919050565b5f6101d7826101ae565b9050919050565b6101e7816101cd565b82525050565b5f6020820190506102005f8301846101de565b92915050565b611add806102135f395ff3fe608060405234801561000f575f5ffd5b50600436106100f3575f3560e01c8063a7bfab1611610095578063ee74c67811610064578063ee74c67814610200578063f2fde38b1461020a578063f7ad764514610226578063f80f5dd514610244576100f3565b8063a7bfab16146101b2578063aa98df39146101bc578063c64963c5146101d8578063e85a8f2a146101f6576100f3565b80631a6cd2fd116100d15780631a6cd2fd1461014e578063715018a6146101585780638da5cb5b146101625780639b19251a14610180576100f3565b80630121b93f146100f7578063013cf08b146101135780630f7e283814610144575b5f5ffd5b610111600480360381019061010c9190611067565b610260565b005b61012d60048036038101906101289190611067565b610555565b60405161013b929190611111565b60405180910390f35b61014c61060a565b005b6101566106e6565b005b61016061084c565b005b61016a61085f565b604051610177919061117e565b60405180910390f35b61019a600480360381019061019591906111c1565b610886565b6040516101a993929190611206565b60405180910390f35b6101ba6108c4565b005b6101d660048036038101906101d19190611367565b6109a2565b005b6101e0610b53565b6040516101ed91906113ae565b60405180910390f35b6101fe610b59565b005b610208610c36565b005b610224600480360381019061021f91906111c1565b610d14565b005b61022e610d98565b60405161023b919061143a565b60405180910390f35b61025e600480360381019061025991906111c1565b610daa565b005b6001151560045f3373ffffffffffffffffffffffffffffffffffffffff1673ffffffffffffffffffffffffffffffffffffffff1681526020019081526020015f205f015f9054906101000a900460ff161515146102f2576040517f08c379a00000000000000000000000000000000000000000000000000000000081526004016102e99061149d565b60405180910390fd5b6003806005811115610307576103066113c7565b5b60025f9054906101000a900460ff166005811115610328576103276113c7565b5b14610368576040517f08c379a000000000000000000000000000000000000000000000000000000000815260040161035f9061152b565b60405180910390fd5b5f151560045f3373ffffffffffffffffffffffffffffffffffffffff1673ffffffffffffffffffffffffffffffffffffffff1681526020019081526020015f205f0160019054906101000a900460ff161515146103fa576040517f08c379a00000000000000000000000000000000000000000000000000000000081526004016103f190611593565b60405180910390fd5b6003805490508210610441576040517f08c379a000000000000000000000000000000000000000000000000000000000815260040161043890611621565b60405180910390fd5b6001600383815481106104575761045661163f565b5b905f5260205f2090600202016001015f8282546104749190611699565b92505081905550600160045f3373ffffffffffffffffffffffffffffffffffffffff1673ffffffffffffffffffffffffffffffffffffffff1681526020019081526020015f205f0160016101000a81548160ff0219169083151502179055508160045f3373ffffffffffffffffffffffffffffffffffffffff1673ffffffffffffffffffffffffffffffffffffffff1681526020019081526020015f20600101819055507f4d99b957a2bc29a30ebd96a7be8e68fe50a3c701db28a91436490b7d53870ca433836040516105499291906116cc565b60405180910390a15050565b60038181548110610564575f80fd5b905f5260205f2090600202015f91509050805f01805461058390611720565b80601f01602080910402602001604051908101604052809291908181526020018280546105af90611720565b80156105fa5780601f106105d1576101008083540402835291602001916105fa565b820191905f5260205f20905b8154815290600101906020018083116105dd57829003601f168201915b5050505050908060010154905082565b5f80600581111561061e5761061d6113c7565b5b60025f9054906101000a900460ff16600581111561063f5761063e6113c7565b5b1461067f576040517f08c379a00000000000000000000000000000000000000000000000000000000081526004016106769061152b565b60405180910390fd5b600160025f6101000a81548160ff021916908360058111156106a4576106a36113c7565b5b02179055507f0a97a4ee45751e2abf3e4fc8946939630b11b371ea8ae39ccdc3056e98f5cc3f5f60016040516106db929190611750565b60405180910390a150565b6106ee610ed4565b6004806005811115610703576107026113c7565b5b60025f9054906101000a900460ff166005811115610724576107236113c7565b5b14610764576040517f08c379a000000000000000000000000000000000000000000000000000000000815260040161075b9061152b565b60405180910390fd5b5f5f5f5f90505b6003805490508110156107da57816003828154811061078d5761078c61163f565b5b905f5260205f2090600202016001015411156107cd57600381815481106107b7576107b661163f565b5b905f5260205f2090600202016001015491508092505b808060010191505061076b565b50600560025f6101000a81548160ff02191690836005811115610800576107ff6113c7565b5b02179055507f0a97a4ee45751e2abf3e4fc8946939630b11b371ea8ae39ccdc3056e98f5cc3f60046005604051610838929190611750565b60405180910390a181600181905550505050565b610854610ed4565b61085d5f610f5b565b565b5f5f5f9054906101000a900473ffffffffffffffffffffffffffffffffffffffff16905090565b6004602052805f5260405f205f91509050805f015f9054906101000a900460ff1690805f0160019054906101000a900460ff16908060010154905083565b60038060058111156108d9576108d86113c7565b5b60025f9054906101000a900460ff1660058111156108fa576108f96113c7565b5b1461093a576040517f08c379a00000000000000000000000000000000000000000000000000000000081526004016109319061152b565b60405180910390fd5b600460025f6101000a81548160ff0219169083600581111561095f5761095e6113c7565b5b02179055507f0a97a4ee45751e2abf3e4fc8946939630b11b371ea8ae39ccdc3056e98f5cc3f60036004604051610997929190611750565b60405180910390a150565b6001151560045f3373ffffffffffffffffffffffffffffffffffffffff1673ffffffffffffffffffffffffffffffffffffffff1681526020019081526020015f205f015f9054906101000a900460ff16151514610a34576040517f08c379a0000000000000000000000000000000000000000000000000000000008152600401610a2b9061149d565b60405180910390fd5b6001806005811115610a4957610a486113c7565b5b60025f9054906101000a900460ff166005811115610a6a57610a696113c7565b5b14610aaa576040517f08c379a0000000000000000000000000000000000000000000000000000000008152600401610aa19061152b565b60405180910390fd5b600360405180604001604052808481526020015f815250908060018154018082558091505060019003905f5260205f2090600202015f909190919091505f820151815f019081610afa9190611917565b506020820151816001015550507f92e393e9b54e2f801d3ea4beb0c5e71a21cc34a5d34b77d0fb8a3aa1650dc18f6001600380549050610b3a91906119e6565b604051610b4791906113ae565b60405180910390a15050565b60015481565b6001806005811115610b6e57610b6d6113c7565b5b60025f9054906101000a900460ff166005811115610b8f57610b8e6113c7565b5b14610bcf576040517f08c379a0000000000000000000000000000000000000000000000000000000008152600401610bc69061152b565b60405180910390fd5b6002805f6101000a81548160ff02191690836005811115610bf357610bf26113c7565b5b02179055507f0a97a4ee45751e2abf3e4fc8946939630b11b371ea8ae39ccdc3056e98f5cc3f60016002604051610c2b929190611750565b60405180910390a150565b6002806005811115610c4b57610c4a6113c7565b5b60025f9054906101000a900460ff166005811115610c6c57610c6b6113c7565b5b14610cac576040517f08c379a0000000000000000000000000000000000000000000000000000000008152600401610ca39061152b565b60405180910390fd5b600360025f6101000a81548160ff02191690836005811115610cd157610cd06113c7565b5b02179055507f0a97a4ee45751e2abf3e4fc8946939630b11b371ea8ae39ccdc3056e98f5cc3f60026003604051610d09929190611750565b60405180910390a150565b610d1c610ed4565b5f73ffffffffffffffffffffffffffffffffffffffff168173ffffffffffffffffffffffffffffffffffffffff1603610d8c575f6040517f1e4fbdf7000000000000000000000000000000000000000000000000000000008152600401610d83919061117e565b60405180910390fd5b610d9581610f5b565b50565b60025f9054906101000a900460ff1681565b610db2610ed4565b5f151560045f8373ffffffffffffffffffffffffffffffffffffffff1673ffffffffffffffffffffffffffffffffffffffff1681526020019081526020015f205f015f9054906101000a900460ff16151514610e43576040517f08c379a0000000000000000000000000000000000000000000000000000000008152600401610e3a90611a89565b60405180910390fd5b600160045f8373ffffffffffffffffffffffffffffffffffffffff1673ffffffffffffffffffffffffffffffffffffffff1681526020019081526020015f205f015f6101000a81548160ff0219169083151502179055507fb6be2187d059cc2a55fe29e0e503b566e1e0f8c8780096e185429350acffd3dd81604051610ec9919061117e565b60405180910390a150565b610edc61101c565b73ffffffffffffffffffffffffffffffffffffffff16610efa61085f565b73ffffffffffffffffffffffffffffffffffffffff1614610f5957610f1d61101c565b6040517f118cdaa7000000000000000000000000000000000000000000000000000000008152600401610f50919061117e565b60405180910390fd5b565b5f5f5f9054906101000a900473ffffffffffffffffffffffffffffffffffffffff169050815f5f6101000a81548173ffffffffffffffffffffffffffffffffffffffff021916908373ffffffffffffffffffffffffffffffffffffffff1602179055508173ffffffffffffffffffffffffffffffffffffffff168173ffffffffffffffffffffffffffffffffffffffff167f8be0079c531659141344cd1fd0a4f28419497f9722a3daafe3b4186f6b6457e060405160405180910390a35050565b5f33905090565b5f604051905090565b5f5ffd5b5f5ffd5b5f819050919050565b61104681611034565b8114611050575f5ffd5b50565b5f813590506110618161103d565b92915050565b5f6020828403121561107c5761107b61102c565b5b5f61108984828501611053565b91505092915050565b5f81519050919050565b5f82825260208201905092915050565b8281835e5f83830152505050565b5f601f19601f8301169050919050565b5f6110d482611092565b6110de818561109c565b93506110ee8185602086016110ac565b6110f7816110ba565b840191505092915050565b61110b81611034565b82525050565b5f6040820190508181035f83015261112981856110ca565b90506111386020830184611102565b9392505050565b5f73ffffffffffffffffffffffffffffffffffffffff82169050919050565b5f6111688261113f565b9050919050565b6111788161115e565b82525050565b5f6020820190506111915f83018461116f565b92915050565b6111a08161115e565b81146111aa575f5ffd5b50565b5f813590506111bb81611197565b92915050565b5f602082840312156111d6576111d561102c565b5b5f6111e3848285016111ad565b91505092915050565b5f8115159050919050565b611200816111ec565b82525050565b5f6060820190506112195f8301866111f7565b61122660208301856111f7565b6112336040830184611102565b949350505050565b5f5ffd5b5f5ffd5b7f4e487b71000000000000000000000000000000000000000000000000000000005f52604160045260245ffd5b611279826110ba565b810181811067ffffffffffffffff8211171561129857611297611243565b5b80604052505050565b5f6112aa611023565b90506112b68282611270565b919050565b5f67ffffffffffffffff8211156112d5576112d4611243565b5b6112de826110ba565b9050602081019050919050565b828183375f83830152505050565b5f61130b611306846112bb565b6112a1565b9050828152602081018484840111156113275761132661123f565b5b6113328482856112eb565b509392505050565b5f82601f83011261134e5761134d61123b565b5b813561135e8482602086016112f9565b91505092915050565b5f6020828403121561137c5761137b61102c565b5b5f82013567ffffffffffffffff81111561139957611398611030565b5b6113a58482850161133a565b91505092915050565b5f6020820190506113c15f830184611102565b92915050565b7f4e487b71000000000000000000000000000000000000000000000000000000005f52602160045260245ffd5b60068110611405576114046113c7565b5b50565b5f819050611415826113f4565b919050565b5f61142482611408565b9050919050565b6114348161141a565b82525050565b5f60208201905061144d5f83018461142b565b92915050565b7f596f75277265206e6f742057686974656c6973746564000000000000000000005f82015250565b5f61148760168361109c565b915061149282611453565b602082019050919050565b5f6020820190508181035f8301526114b48161147b565b9050919050565b7f596f75277265206e6f7420666f6c6c6f77696e672074686520726967687420575f8201527f6f726b666c6f7700000000000000000000000000000000000000000000000000602082015250565b5f61151560278361109c565b9150611520826114bb565b604082019050919050565b5f6020820190508181035f83015261154281611509565b9050919050565b7f596f7520616c726561647920766f7465642100000000000000000000000000005f82015250565b5f61157d60128361109c565b915061158882611549565b602082019050919050565b5f6020820190508181035f8301526115aa81611571565b9050919050565b7f596f7520747269656420746f20766f746520666f7220612070726f706f73616c5f8201527f2077686f20646f65736e27742065786973740000000000000000000000000000602082015250565b5f61160b60328361109c565b9150611616826115b1565b604082019050919050565b5f6020820190508181035f830152611638816115ff565b9050919050565b7f4e487b71000000000000000000000000000000000000000000000000000000005f52603260045260245ffd5b7f4e487b71000000000000000000000000000000000000000000000000000000005f52601160045260245ffd5b5f6116a382611034565b91506116ae83611034565b92508282019050808211156116c6576116c561166c565b5b92915050565b5f6040820190506116df5f83018561116f565b6116ec6020830184611102565b9392505050565b7f4e487b71000000000000000000000000000000000000000000000000000000005f52602260045260245ffd5b5f600282049050600182168061173757607f821691505b60208210810361174a576117496116f3565b5b50919050565b5f6040820190506117635f83018561142b565b611770602083018461142b565b9392505050565b5f819050815f5260205f209050919050565b5f6020601f8301049050919050565b5f82821b905092915050565b5f600883026117d37fffffffffffffffffffffffffffffffffffffffffffffffffffffffffffffffff82611798565b6117dd8683611798565b95508019841693508086168417925050509392505050565b5f819050919050565b5f61181861181361180e84611034565b6117f5565b611034565b9050919050565b5f819050919050565b611831836117fe565b61184561183d8261181f565b8484546117a4565b825550505050565b5f5f905090565b61185c61184d565b611867818484611828565b505050565b5b8181101561188a5761187f5f82611854565b60018101905061186d565b5050565b601f8211156118cf576118a081611777565b6118a984611789565b810160208510156118b8578190505b6118cc6118c485611789565b83018261186c565b50505b505050565b5f82821c905092915050565b5f6118ef5f19846008026118d4565b1980831691505092915050565b5f61190783836118e0565b9150826002028217905092915050565b61192082611092565b67ffffffffffffffff81111561193957611938611243565b5b6119438254611720565b61194e82828561188e565b5f60209050601f83116001811461197f575f841561196d578287015190505b61197785826118fc565b8655506119de565b601f19841661198d86611777565b5f5b828110156119b45784890151825560018201915060208501945060208101905061198f565b868310156119d157848901516119cd601f8916826118e0565b8355505b6001600288020188555050505b505050505050565b5f6119f082611034565b91506119fb83611034565b9250828203905081811115611a1357611a1261166c565b5b92915050565b7f54686973206164647265737320697320616c72656164792077686974656c69735f8201527f7465640000000000000000000000000000000000000000000000000000000000602082015250565b5f611a7360238361109c565b9150611a7e82611a19565b604082019050919050565b5f6020820190508181035f830152611aa081611a67565b905091905056fea2646970667358221220bc1b067dd1f8abadd8137f50839a5302cb381ae528598c7a6a8f00dfebaefe4b64736f6c634300081e0033",
					"opcodes": "PUSH1 0x80 PUSH1 0x40 MSTORE CALLVALUE DUP1 ISZERO PUSH2 0xF JUMPI PUSH0 PUSH0 REVERT JUMPDEST POP CALLER PUSH0 PUSH20 0xFFFFFFFFFFFFFFFFFFFFFFFFFFFFFFFFFFFFFFFF AND DUP2 PUSH20 0xFFFFFFFFFFFFFFFFFFFFFFFFFFFFFFFFFFFFFFFF AND SUB PUSH2 0x81 JUMPI PUSH0 PUSH1 0x40 MLOAD PUSH32 0x1E4FBDF700000000000000000000000000000000000000000000000000000000 DUP2 MSTORE PUSH1 0x4 ADD PUSH2 0x78 SWAP2 SWAP1 PUSH2 0x1ED JUMP JUMPDEST PUSH1 0x40 MLOAD DUP1 SWAP2 SUB SWAP1 REVERT JUMPDEST PUSH2 0x90 DUP2 PUSH2 0xED PUSH1 0x20 SHL PUSH1 0x20 SHR JUMP JUMPDEST POP PUSH1 0x1 PUSH1 0x4 PUSH0 CALLER PUSH20 0xFFFFFFFFFFFFFFFFFFFFFFFFFFFFFFFFFFFFFFFF AND PUSH20 0xFFFFFFFFFFFFFFFFFFFFFFFFFFFFFFFFFFFFFFFF AND DUP2 MSTORE PUSH1 0x20 ADD SWAP1 DUP2 MSTORE PUSH1 0x20 ADD PUSH0 KECCAK256 PUSH0 ADD PUSH0 PUSH2 0x100 EXP DUP2 SLOAD DUP2 PUSH1 0xFF MUL NOT AND SWAP1 DUP4 ISZERO ISZERO MUL OR SWAP1 SSTORE POP PUSH2 0x206 JUMP JUMPDEST PUSH0 PUSH0 PUSH0 SWAP1 SLOAD SWAP1 PUSH2 0x100 EXP SWAP1 DIV PUSH20 0xFFFFFFFFFFFFFFFFFFFFFFFFFFFFFFFFFFFFFFFF AND SWAP1 POP DUP2 PUSH0 PUSH0 PUSH2 0x100 EXP DUP2 SLOAD DUP2 PUSH20 0xFFFFFFFFFFFFFFFFFFFFFFFFFFFFFFFFFFFFFFFF MUL NOT AND SWAP1 DUP4 PUSH20 0xFFFFFFFFFFFFFFFFFFFFFFFFFFFFFFFFFFFFFFFF AND MUL OR SWAP1 SSTORE POP DUP2 PUSH20 0xFFFFFFFFFFFFFFFFFFFFFFFFFFFFFFFFFFFFFFFF AND DUP2 PUSH20 0xFFFFFFFFFFFFFFFFFFFFFFFFFFFFFFFFFFFFFFFF AND PUSH32 0x8BE0079C531659141344CD1FD0A4F28419497F9722A3DAAFE3B4186F6B6457E0 PUSH1 0x40 MLOAD PUSH1 0x40 MLOAD DUP1 SWAP2 SUB SWAP1 LOG3 POP POP JUMP JUMPDEST PUSH0 PUSH20 0xFFFFFFFFFFFFFFFFFFFFFFFFFFFFFFFFFFFFFFFF DUP3 AND SWAP1 POP SWAP2 SWAP1 POP JUMP JUMPDEST PUSH0 PUSH2 0x1D7 DUP3 PUSH2 0x1AE JUMP JUMPDEST SWAP1 POP SWAP2 SWAP1 POP JUMP JUMPDEST PUSH2 0x1E7 DUP2 PUSH2 0x1CD JUMP JUMPDEST DUP3 MSTORE POP POP JUMP JUMPDEST PUSH0 PUSH1 0x20 DUP3 ADD SWAP1 POP PUSH2 0x200 PUSH0 DUP4 ADD DUP5 PUSH2 0x1DE JUMP JUMPDEST SWAP3 SWAP2 POP POP JUMP JUMPDEST PUSH2 0x1ADD DUP1 PUSH2 0x213 PUSH0 CODECOPY PUSH0 RETURN INVALID PUSH1 0x80 PUSH1 0x40 MSTORE CALLVALUE DUP1 ISZERO PUSH2 0xF JUMPI PUSH0 PUSH0 REVERT JUMPDEST POP PUSH1 0x4 CALLDATASIZE LT PUSH2 0xF3 JUMPI PUSH0 CALLDATALOAD PUSH1 0xE0 SHR DUP1 PUSH4 0xA7BFAB16 GT PUSH2 0x95 JUMPI DUP1 PUSH4 0xEE74C678 GT PUSH2 0x64 JUMPI DUP1 PUSH4 0xEE74C678 EQ PUSH2 0x200 JUMPI DUP1 PUSH4 0xF2FDE38B EQ PUSH2 0x20A JUMPI DUP1 PUSH4 0xF7AD7645 EQ PUSH2 0x226 JUMPI DUP1 PUSH4 0xF80F5DD5 EQ PUSH2 0x244 JUMPI PUSH2 0xF3 JUMP JUMPDEST DUP1 PUSH4 0xA7BFAB16 EQ PUSH2 0x1B2 JUMPI DUP1 PUSH4 0xAA98DF39 EQ PUSH2 0x1BC JUMPI DUP1 PUSH4 0xC64963C5 EQ PUSH2 0x1D8 JUMPI DUP1 PUSH4 0xE85A8F2A EQ PUSH2 0x1F6 JUMPI PUSH2 0xF3 JUMP JUMPDEST DUP1 PUSH4 0x1A6CD2FD GT PUSH2 0xD1 JUMPI DUP1 PUSH4 0x1A6CD2FD EQ PUSH2 0x14E JUMPI DUP1 PUSH4 0x715018A6 EQ PUSH2 0x158 JUMPI DUP1 PUSH4 0x8DA5CB5B EQ PUSH2 0x162 JUMPI DUP1 PUSH4 0x9B19251A EQ PUSH2 0x180 JUMPI PUSH2 0xF3 JUMP JUMPDEST DUP1 PUSH4 0x121B93F EQ PUSH2 0xF7 JUMPI DUP1 PUSH4 0x13CF08B EQ PUSH2 0x113 JUMPI DUP1 PUSH4 0xF7E2838 EQ PUSH2 0x144 JUMPI JUMPDEST PUSH0 PUSH0 REVERT JUMPDEST PUSH2 0x111 PUSH1 0x4 DUP1 CALLDATASIZE SUB DUP2 ADD SWAP1 PUSH2 0x10C SWAP2 SWAP1 PUSH2 0x1067 JUMP JUMPDEST PUSH2 0x260 JUMP JUMPDEST STOP JUMPDEST PUSH2 0x12D PUSH1 0x4 DUP1 CALLDATASIZE SUB DUP2 ADD SWAP1 PUSH2 0x128 SWAP2 SWAP1 PUSH2 0x1067 JUMP JUMPDEST PUSH2 0x555 JUMP JUMPDEST PUSH1 0x40 MLOAD PUSH2 0x13B SWAP3 SWAP2 SWAP1 PUSH2 0x1111 JUMP JUMPDEST PUSH1 0x40 MLOAD DUP1 SWAP2 SUB SWAP1 RETURN JUMPDEST PUSH2 0x14C PUSH2 0x60A JUMP JUMPDEST STOP JUMPDEST PUSH2 0x156 PUSH2 0x6E6 JUMP JUMPDEST STOP JUMPDEST PUSH2 0x160 PUSH2 0x84C JUMP JUMPDEST STOP JUMPDEST PUSH2 0x16A PUSH2 0x85F JUMP JUMPDEST PUSH1 0x40 MLOAD PUSH2 0x177 SWAP2 SWAP1 PUSH2 0x117E JUMP JUMPDEST PUSH1 0x40 MLOAD DUP1 SWAP2 SUB SWAP1 RETURN JUMPDEST PUSH2 0x19A PUSH1 0x4 DUP1 CALLDATASIZE SUB DUP2 ADD SWAP1 PUSH2 0x195 SWAP2 SWAP1 PUSH2 0x11C1 JUMP JUMPDEST PUSH2 0x886 JUMP JUMPDEST PUSH1 0x40 MLOAD PUSH2 0x1A9 SWAP4 SWAP3 SWAP2 SWAP1 PUSH2 0x1206 JUMP JUMPDEST PUSH1 0x40 MLOAD DUP1 SWAP2 SUB SWAP1 RETURN JUMPDEST PUSH2 0x1BA PUSH2 0x8C4 JUMP JUMPDEST STOP JUMPDEST PUSH2 0x1D6 PUSH1 0x4 DUP1 CALLDATASIZE SUB DUP2 ADD SWAP1 PUSH2 0x1D1 SWAP2 SWAP1 PUSH2 0x1367 JUMP JUMPDEST PUSH2 0x9A2 JUMP JUMPDEST STOP JUMPDEST PUSH2 0x1E0 PUSH2 0xB53 JUMP JUMPDEST PUSH1 0x40 MLOAD PUSH2 0x1ED SWAP2 SWAP1 PUSH2 0x13AE JUMP JUMPDEST PUSH1 0x40 MLOAD DUP1 SWAP2 SUB SWAP1 RETURN JUMPDEST PUSH2 0x1FE PUSH2 0xB59 JUMP JUMPDEST STOP JUMPDEST PUSH2 0x208 PUSH2 0xC36 JUMP JUMPDEST STOP JUMPDEST PUSH2 0x224 PUSH1 0x4 DUP1 CALLDATASIZE SUB DUP2 ADD SWAP1 PUSH2 0x21F SWAP2 SWAP1 PUSH2 0x11C1 JUMP JUMPDEST PUSH2 0xD14 JUMP JUMPDEST STOP JUMPDEST PUSH2 0x22E PUSH2 0xD98 JUMP JUMPDEST PUSH1 0x40 MLOAD PUSH2 0x23B SWAP2 SWAP1 PUSH2 0x143A JUMP JUMPDEST PUSH1 0x40 MLOAD DUP1 SWAP2 SUB SWAP1 RETURN JUMPDEST PUSH2 0x25E PUSH1 0x4 DUP1 CALLDATASIZE SUB DUP2 ADD SWAP1 PUSH2 0x259 SWAP2 SWAP1 PUSH2 0x11C1 JUMP JUMPDEST PUSH2 0xDAA JUMP JUMPDEST STOP JUMPDEST PUSH1 0x1 ISZERO ISZERO PUSH1 0x4 PUSH0 CALLER PUSH20 0xFFFFFFFFFFFFFFFFFFFFFFFFFFFFFFFFFFFFFFFF AND PUSH20 0xFFFFFFFFFFFFFFFFFFFFFFFFFFFFFFFFFFFFFFFF AND DUP2 MSTORE PUSH1 0x20 ADD SWAP1 DUP2 MSTORE PUSH1 0x20 ADD PUSH0 KECCAK256 PUSH0 ADD PUSH0 SWAP1 SLOAD SWAP1 PUSH2 0x100 EXP SWAP1 DIV PUSH1 0xFF AND ISZERO ISZERO EQ PUSH2 0x2F2 JUMPI PUSH1 0x40 MLOAD PUSH32 0x8C379A000000000000000000000000000000000000000000000000000000000 DUP2 MSTORE PUSH1 0x4 ADD PUSH2 0x2E9 SWAP1 PUSH2 0x149D JUMP JUMPDEST PUSH1 0x40 MLOAD DUP1 SWAP2 SUB SWAP1 REVERT JUMPDEST PUSH1 0x3 DUP1 PUSH1 0x5 DUP2 GT ISZERO PUSH2 0x307 JUMPI PUSH2 0x306 PUSH2 0x13C7 JUMP JUMPDEST JUMPDEST PUSH1 0x2 PUSH0 SWAP1 SLOAD SWAP1 PUSH2 0x100 EXP SWAP1 DIV PUSH1 0xFF AND PUSH1 0x5 DUP2 GT ISZERO PUSH2 0x328 JUMPI PUSH2 0x327 PUSH2 0x13C7 JUMP JUMPDEST JUMPDEST EQ PUSH2 0x368 JUMPI PUSH1 0x40 MLOAD PUSH32 0x8C379A000000000000000000000000000000000000000000000000000000000 DUP2 MSTORE PUSH1 0x4 ADD PUSH2 0x35F SWAP1 PUSH2 0x152B JUMP JUMPDEST PUSH1 0x40 MLOAD DUP1 SWAP2 SUB SWAP1 REVERT JUMPDEST PUSH0 ISZERO ISZERO PUSH1 0x4 PUSH0 CALLER PUSH20 0xFFFFFFFFFFFFFFFFFFFFFFFFFFFFFFFFFFFFFFFF AND PUSH20 0xFFFFFFFFFFFFFFFFFFFFFFFFFFFFFFFFFFFFFFFF AND DUP2 MSTORE PUSH1 0x20 ADD SWAP1 DUP2 MSTORE PUSH1 0x20 ADD PUSH0 KECCAK256 PUSH0 ADD PUSH1 0x1 SWAP1 SLOAD SWAP1 PUSH2 0x100 EXP SWAP1 DIV PUSH1 0xFF AND ISZERO ISZERO EQ PUSH2 0x3FA JUMPI PUSH1 0x40 MLOAD PUSH32 0x8C379A000000000000000000000000000000000000000000000000000000000 DUP2 MSTORE PUSH1 0x4 ADD PUSH2 0x3F1 SWAP1 PUSH2 0x1593 JUMP JUMPDEST PUSH1 0x40 MLOAD DUP1 SWAP2 SUB SWAP1 REVERT JUMPDEST PUSH1 0x3 DUP1 SLOAD SWAP1 POP DUP3 LT PUSH2 0x441 JUMPI PUSH1 0x40 MLOAD PUSH32 0x8C379A000000000000000000000000000000000000000000000000000000000 DUP2 MSTORE PUSH1 0x4 ADD PUSH2 0x438 SWAP1 PUSH2 0x1621 JUMP JUMPDEST PUSH1 0x40 MLOAD DUP1 SWAP2 SUB SWAP1 REVERT JUMPDEST PUSH1 0x1 PUSH1 0x3 DUP4 DUP2 SLOAD DUP2 LT PUSH2 0x457 JUMPI PUSH2 0x456 PUSH2 0x163F JUMP JUMPDEST JUMPDEST SWAP1 PUSH0 MSTORE PUSH1 0x20 PUSH0 KECCAK256 SWAP1 PUSH1 0x2 MUL ADD PUSH1 0x1 ADD PUSH0 DUP3 DUP3 SLOAD PUSH2 0x474 SWAP2 SWAP1 PUSH2 0x1699 JUMP JUMPDEST SWAP3 POP POP DUP2 SWAP1 SSTORE POP PUSH1 0x1 PUSH1 0x4 PUSH0 CALLER PUSH20 0xFFFFFFFFFFFFFFFFFFFFFFFFFFFFFFFFFFFFFFFF AND PUSH20 0xFFFFFFFFFFFFFFFFFFFFFFFFFFFFFFFFFFFFFFFF AND DUP2 MSTORE PUSH1 0x20 ADD SWAP1 DUP2 MSTORE PUSH1 0x20 ADD PUSH0 KECCAK256 PUSH0 ADD PUSH1 0x1 PUSH2 0x100 EXP DUP2 SLOAD DUP2 PUSH1 0xFF MUL NOT AND SWAP1 DUP4 ISZERO ISZERO MUL OR SWAP1 SSTORE POP DUP2 PUSH1 0x4 PUSH0 CALLER PUSH20 0xFFFFFFFFFFFFFFFFFFFFFFFFFFFFFFFFFFFFFFFF AND PUSH20 0xFFFFFFFFFFFFFFFFFFFFFFFFFFFFFFFFFFFFFFFF AND DUP2 MSTORE PUSH1 0x20 ADD SWAP1 DUP2 MSTORE PUSH1 0x20 ADD PUSH0 KECCAK256 PUSH1 0x1 ADD DUP2 SWAP1 SSTORE POP PUSH32 0x4D99B957A2BC29A30EBD96A7BE8E68FE50A3C701DB28A91436490B7D53870CA4 CALLER DUP4 PUSH1 0x40 MLOAD PUSH2 0x549 SWAP3 SWAP2 SWAP1 PUSH2 0x16CC JUMP JUMPDEST PUSH1 0x40 MLOAD DUP1 SWAP2 SUB SWAP1 LOG1 POP POP JUMP JUMPDEST PUSH1 0x3 DUP2 DUP2 SLOAD DUP2 LT PUSH2 0x564 JUMPI PUSH0 DUP1 REVERT JUMPDEST SWAP1 PUSH0 MSTORE PUSH1 0x20 PUSH0 KECCAK256 SWAP1 PUSH1 0x2 MUL ADD PUSH0 SWAP2 POP SWAP1 POP DUP1 PUSH0 ADD DUP1 SLOAD PUSH2 0x583 SWAP1 PUSH2 0x1720 JUMP JUMPDEST DUP1 PUSH1 0x1F ADD PUSH1 0x20 DUP1 SWAP2 DIV MUL PUSH1 0x20 ADD PUSH1 0x40 MLOAD SWAP1 DUP2 ADD PUSH1 0x40 MSTORE DUP1 SWAP3 SWAP2 SWAP1 DUP2 DUP2 MSTORE PUSH1 0x20 ADD DUP3 DUP1 SLOAD PUSH2 0x5AF SWAP1 PUSH2 0x1720 JUMP JUMPDEST DUP1 ISZERO PUSH2 0x5FA JUMPI DUP1 PUSH1 0x1F LT PUSH2 0x5D1 JUMPI PUSH2 0x100 DUP1 DUP4 SLOAD DIV MUL DUP4 MSTORE SWAP2 PUSH1 0x20 ADD SWAP2 PUSH2 0x5FA JUMP JUMPDEST DUP3 ADD SWAP2 SWAP1 PUSH0 MSTORE PUSH1 0x20 PUSH0 KECCAK256 SWAP1 JUMPDEST DUP2 SLOAD DUP2 MSTORE SWAP1 PUSH1 0x1 ADD SWAP1 PUSH1 0x20 ADD DUP1 DUP4 GT PUSH2 0x5DD JUMPI DUP3 SWAP1 SUB PUSH1 0x1F AND DUP3 ADD SWAP2 JUMPDEST POP POP POP POP POP SWAP1 DUP1 PUSH1 0x1 ADD SLOAD SWAP1 POP DUP3 JUMP JUMPDEST PUSH0 DUP1 PUSH1 0x5 DUP2 GT ISZERO PUSH2 0x61E JUMPI PUSH2 0x61D PUSH2 0x13C7 JUMP JUMPDEST JUMPDEST PUSH1 0x2 PUSH0 SWAP1 SLOAD SWAP1 PUSH2 0x100 EXP SWAP1 DIV PUSH1 0xFF AND PUSH1 0x5 DUP2 GT ISZERO PUSH2 0x63F JUMPI PUSH2 0x63E PUSH2 0x13C7 JUMP JUMPDEST JUMPDEST EQ PUSH2 0x67F JUMPI PUSH1 0x40 MLOAD PUSH32 0x8C379A000000000000000000000000000000000000000000000000000000000 DUP2 MSTORE PUSH1 0x4 ADD PUSH2 0x676 SWAP1 PUSH2 0x152B JUMP JUMPDEST PUSH1 0x40 MLOAD DUP1 SWAP2 SUB SWAP1 REVERT JUMPDEST PUSH1 0x1 PUSH1 0x2 PUSH0 PUSH2 0x100 EXP DUP2 SLOAD DUP2 PUSH1 0xFF MUL NOT AND SWAP1 DUP4 PUSH1 0x5 DUP2 GT ISZERO PUSH2 0x6A4 JUMPI PUSH2 0x6A3 PUSH2 0x13C7 JUMP JUMPDEST JUMPDEST MUL OR SWAP1 SSTORE POP PUSH32 0xA97A4EE45751E2ABF3E4FC8946939630B11B371EA8AE39CCDC3056E98F5CC3F PUSH0 PUSH1 0x1 PUSH1 0x40 MLOAD PUSH2 0x6DB SWAP3 SWAP2 SWAP1 PUSH2 0x1750 JUMP JUMPDEST PUSH1 0x40 MLOAD DUP1 SWAP2 SUB SWAP1 LOG1 POP JUMP JUMPDEST PUSH2 0x6EE PUSH2 0xED4 JUMP JUMPDEST PUSH1 0x4 DUP1 PUSH1 0x5 DUP2 GT ISZERO PUSH2 0x703 JUMPI PUSH2 0x702 PUSH2 0x13C7 JUMP JUMPDEST JUMPDEST PUSH1 0x2 PUSH0 SWAP1 SLOAD SWAP1 PUSH2 0x100 EXP SWAP1 DIV PUSH1 0xFF AND PUSH1 0x5 DUP2 GT ISZERO PUSH2 0x724 JUMPI PUSH2 0x723 PUSH2 0x13C7 JUMP JUMPDEST JUMPDEST EQ PUSH2 0x764 JUMPI PUSH1 0x40 MLOAD PUSH32 0x8C379A000000000000000000000000000000000000000000000000000000000 DUP2 MSTORE PUSH1 0x4 ADD PUSH2 0x75B SWAP1 PUSH2 0x152B JUMP JUMPDEST PUSH1 0x40 MLOAD DUP1 SWAP2 SUB SWAP1 REVERT JUMPDEST PUSH0 PUSH0 PUSH0 PUSH0 SWAP1 POP JUMPDEST PUSH1 0x3 DUP1 SLOAD SWAP1 POP DUP2 LT ISZERO PUSH2 0x7DA JUMPI DUP2 PUSH1 0x3 DUP3 DUP2 SLOAD DUP2 LT PUSH2 0x78D JUMPI PUSH2 0x78C PUSH2 0x163F JUMP JUMPDEST JUMPDEST SWAP1 PUSH0 MSTORE PUSH1 0x20 PUSH0 KECCAK256 SWAP1 PUSH1 0x2 MUL ADD PUSH1 0x1 ADD SLOAD GT ISZERO PUSH2 0x7CD JUMPI PUSH1 0x3 DUP2 DUP2 SLOAD DUP2 LT PUSH2 0x7B7 JUMPI PUSH2 0x7B6 PUSH2 0x163F JUMP JUMPDEST JUMPDEST SWAP1 PUSH0 MSTORE PUSH1 0x20 PUSH0 KECCAK256 SWAP1 PUSH1 0x2 MUL ADD PUSH1 0x1 ADD SLOAD SWAP2 POP DUP1 SWAP3 POP JUMPDEST DUP1 DUP1 PUSH1 0x1 ADD SWAP2 POP POP PUSH2 0x76B JUMP JUMPDEST POP PUSH1 0x5 PUSH1 0x2 PUSH0 PUSH2 0x100 EXP DUP2 SLOAD DUP2 PUSH1 0xFF MUL NOT AND SWAP1 DUP4 PUSH1 0x5 DUP2 GT ISZERO PUSH2 0x800 JUMPI PUSH2 0x7FF PUSH2 0x13C7 JUMP JUMPDEST JUMPDEST MUL OR SWAP1 SSTORE POP PUSH32 0xA97A4EE45751E2ABF3E4FC8946939630B11B371EA8AE39CCDC3056E98F5CC3F PUSH1 0x4 PUSH1 0x5 PUSH1 0x40 MLOAD PUSH2 0x838 SWAP3 SWAP2 SWAP1 PUSH2 0x1750 JUMP JUMPDEST PUSH1 0x40 MLOAD DUP1 SWAP2 SUB SWAP1 LOG1 DUP2 PUSH1 0x1 DUP2 SWAP1 SSTORE POP POP POP POP JUMP JUMPDEST PUSH2 0x854 PUSH2 0xED4 JUMP JUMPDEST PUSH2 0x85D PUSH0 PUSH2 0xF5B JUMP JUMPDEST JUMP JUMPDEST PUSH0 PUSH0 PUSH0 SWAP1 SLOAD SWAP1 PUSH2 0x100 EXP SWAP1 DIV PUSH20 0xFFFFFFFFFFFFFFFFFFFFFFFFFFFFFFFFFFFFFFFF AND SWAP1 POP SWAP1 JUMP JUMPDEST PUSH1 0x4 PUSH1 0x20 MSTORE DUP1 PUSH0 MSTORE PUSH1 0x40 PUSH0 KECCAK256 PUSH0 SWAP2 POP SWAP1 POP DUP1 PUSH0 ADD PUSH0 SWAP1 SLOAD SWAP1 PUSH2 0x100 EXP SWAP1 DIV PUSH1 0xFF AND SWAP1 DUP1 PUSH0 ADD PUSH1 0x1 SWAP1 SLOAD SWAP1 PUSH2 0x100 EXP SWAP1 DIV PUSH1 0xFF AND SWAP1 DUP1 PUSH1 0x1 ADD SLOAD SWAP1 POP DUP4 JUMP JUMPDEST PUSH1 0x3 DUP1 PUSH1 0x5 DUP2 GT ISZERO PUSH2 0x8D9 JUMPI PUSH2 0x8D8 PUSH2 0x13C7 JUMP JUMPDEST JUMPDEST PUSH1 0x2 PUSH0 SWAP1 SLOAD SWAP1 PUSH2 0x100 EXP SWAP1 DIV PUSH1 0xFF AND PUSH1 0x5 DUP2 GT ISZERO PUSH2 0x8FA JUMPI PUSH2 0x8F9 PUSH2 0x13C7 JUMP JUMPDEST JUMPDEST EQ PUSH2 0x93A JUMPI PUSH1 0x40 MLOAD PUSH32 0x8C379A000000000000000000000000000000000000000000000000000000000 DUP2 MSTORE PUSH1 0x4 ADD PUSH2 0x931 SWAP1 PUSH2 0x152B JUMP JUMPDEST PUSH1 0x40 MLOAD DUP1 SWAP2 SUB SWAP1 REVERT JUMPDEST PUSH1 0x4 PUSH1 0x2 PUSH0 PUSH2 0x100 EXP DUP2 SLOAD DUP2 PUSH1 0xFF MUL NOT AND SWAP1 DUP4 PUSH1 0x5 DUP2 GT ISZERO PUSH2 0x95F JUMPI PUSH2 0x95E PUSH2 0x13C7 JUMP JUMPDEST JUMPDEST MUL OR SWAP1 SSTORE POP PUSH32 0xA97A4EE45751E2ABF3E4FC8946939630B11B371EA8AE39CCDC3056E98F5CC3F PUSH1 0x3 PUSH1 0x4 PUSH1 0x40 MLOAD PUSH2 0x997 SWAP3 SWAP2 SWAP1 PUSH2 0x1750 JUMP JUMPDEST PUSH1 0x40 MLOAD DUP1 SWAP2 SUB SWAP1 LOG1 POP JUMP JUMPDEST PUSH1 0x1 ISZERO ISZERO PUSH1 0x4 PUSH0 CALLER PUSH20 0xFFFFFFFFFFFFFFFFFFFFFFFFFFFFFFFFFFFFFFFF AND PUSH20 0xFFFFFFFFFFFFFFFFFFFFFFFFFFFFFFFFFFFFFFFF AND DUP2 MSTORE PUSH1 0x20 ADD SWAP1 DUP2 MSTORE PUSH1 0x20 ADD PUSH0 KECCAK256 PUSH0 ADD PUSH0 SWAP1 SLOAD SWAP1 PUSH2 0x100 EXP SWAP1 DIV PUSH1 0xFF AND ISZERO ISZERO EQ PUSH2 0xA34 JUMPI PUSH1 0x40 MLOAD PUSH32 0x8C379A000000000000000000000000000000000000000000000000000000000 DUP2 MSTORE PUSH1 0x4 ADD PUSH2 0xA2B SWAP1 PUSH2 0x149D JUMP JUMPDEST PUSH1 0x40 MLOAD DUP1 SWAP2 SUB SWAP1 REVERT JUMPDEST PUSH1 0x1 DUP1 PUSH1 0x5 DUP2 GT ISZERO PUSH2 0xA49 JUMPI PUSH2 0xA48 PUSH2 0x13C7 JUMP JUMPDEST JUMPDEST PUSH1 0x2 PUSH0 SWAP1 SLOAD SWAP1 PUSH2 0x100 EXP SWAP1 DIV PUSH1 0xFF AND PUSH1 0x5 DUP2 GT ISZERO PUSH2 0xA6A JUMPI PUSH2 0xA69 PUSH2 0x13C7 JUMP JUMPDEST JUMPDEST EQ PUSH2 0xAAA JUMPI PUSH1 0x40 MLOAD PUSH32 0x8C379A000000000000000000000000000000000000000000000000000000000 DUP2 MSTORE PUSH1 0x4 ADD PUSH2 0xAA1 SWAP1 PUSH2 0x152B JUMP JUMPDEST PUSH1 0x40 MLOAD DUP1 SWAP2 SUB SWAP1 REVERT JUMPDEST PUSH1 0x3 PUSH1 0x40 MLOAD DUP1 PUSH1 0x40 ADD PUSH1 0x40 MSTORE DUP1 DUP5 DUP2 MSTORE PUSH1 0x20 ADD PUSH0 DUP2 MSTORE POP SWAP1 DUP1 PUSH1 0x1 DUP2 SLOAD ADD DUP1 DUP3 SSTORE DUP1 SWAP2 POP POP PUSH1 0x1 SWAP1 SUB SWAP1 PUSH0 MSTORE PUSH1 0x20 PUSH0 KECCAK256 SWAP1 PUSH1 0x2 MUL ADD PUSH0 SWAP1 SWAP2 SWAP1 SWAP2 SWAP1 SWAP2 POP PUSH0 DUP3 ADD MLOAD DUP2 PUSH0 ADD SWAP1 DUP2 PUSH2 0xAFA SWAP2 SWAP1 PUSH2 0x1917 JUMP JUMPDEST POP PUSH1 0x20 DUP3 ADD MLOAD DUP2 PUSH1 0x1 ADD SSTORE POP POP PUSH32 0x92E393E9B54E2F801D3EA4BEB0C5E71A21CC34A5D34B77D0FB8A3AA1650DC18F PUSH1 0x1 PUSH1 0x3 DUP1 SLOAD SWAP1 POP PUSH2 0xB3A SWAP2 SWAP1 PUSH2 0x19E6 JUMP JUMPDEST PUSH1 0x40 MLOAD PUSH2 0xB47 SWAP2 SWAP1 PUSH2 0x13AE JUMP JUMPDEST PUSH1 0x40 MLOAD DUP1 SWAP2 SUB SWAP1 LOG1 POP POP JUMP JUMPDEST PUSH1 0x1 SLOAD DUP2 JUMP JUMPDEST PUSH1 0x1 DUP1 PUSH1 0x5 DUP2 GT ISZERO PUSH2 0xB6E JUMPI PUSH2 0xB6D PUSH2 0x13C7 JUMP JUMPDEST JUMPDEST PUSH1 0x2 PUSH0 SWAP1 SLOAD SWAP1 PUSH2 0x100 EXP SWAP1 DIV PUSH1 0xFF AND PUSH1 0x5 DUP2 GT ISZERO PUSH2 0xB8F JUMPI PUSH2 0xB8E PUSH2 0x13C7 JUMP JUMPDEST JUMPDEST EQ PUSH2 0xBCF JUMPI PUSH1 0x40 MLOAD PUSH32 0x8C379A000000000000000000000000000000000000000000000000000000000 DUP2 MSTORE PUSH1 0x4 ADD PUSH2 0xBC6 SWAP1 PUSH2 0x152B JUMP JUMPDEST PUSH1 0x40 MLOAD DUP1 SWAP2 SUB SWAP1 REVERT JUMPDEST PUSH1 0x2 DUP1 PUSH0 PUSH2 0x100 EXP DUP2 SLOAD DUP2 PUSH1 0xFF MUL NOT AND SWAP1 DUP4 PUSH1 0x5 DUP2 GT ISZERO PUSH2 0xBF3 JUMPI PUSH2 0xBF2 PUSH2 0x13C7 JUMP JUMPDEST JUMPDEST MUL OR SWAP1 SSTORE POP PUSH32 0xA97A4EE45751E2ABF3E4FC8946939630B11B371EA8AE39CCDC3056E98F5CC3F PUSH1 0x1 PUSH1 0x2 PUSH1 0x40 MLOAD PUSH2 0xC2B SWAP3 SWAP2 SWAP1 PUSH2 0x1750 JUMP JUMPDEST PUSH1 0x40 MLOAD DUP1 SWAP2 SUB SWAP1 LOG1 POP JUMP JUMPDEST PUSH1 0x2 DUP1 PUSH1 0x5 DUP2 GT ISZERO PUSH2 0xC4B JUMPI PUSH2 0xC4A PUSH2 0x13C7 JUMP JUMPDEST JUMPDEST PUSH1 0x2 PUSH0 SWAP1 SLOAD SWAP1 PUSH2 0x100 EXP SWAP1 DIV PUSH1 0xFF AND PUSH1 0x5 DUP2 GT ISZERO PUSH2 0xC6C JUMPI PUSH2 0xC6B PUSH2 0x13C7 JUMP JUMPDEST JUMPDEST EQ PUSH2 0xCAC JUMPI PUSH1 0x40 MLOAD PUSH32 0x8C379A000000000000000000000000000000000000000000000000000000000 DUP2 MSTORE PUSH1 0x4 ADD PUSH2 0xCA3 SWAP1 PUSH2 0x152B JUMP JUMPDEST PUSH1 0x40 MLOAD DUP1 SWAP2 SUB SWAP1 REVERT JUMPDEST PUSH1 0x3 PUSH1 0x2 PUSH0 PUSH2 0x100 EXP DUP2 SLOAD DUP2 PUSH1 0xFF MUL NOT AND SWAP1 DUP4 PUSH1 0x5 DUP2 GT ISZERO PUSH2 0xCD1 JUMPI PUSH2 0xCD0 PUSH2 0x13C7 JUMP JUMPDEST JUMPDEST MUL OR SWAP1 SSTORE POP PUSH32 0xA97A4EE45751E2ABF3E4FC8946939630B11B371EA8AE39CCDC3056E98F5CC3F PUSH1 0x2 PUSH1 0x3 PUSH1 0x40 MLOAD PUSH2 0xD09 SWAP3 SWAP2 SWAP1 PUSH2 0x1750 JUMP JUMPDEST PUSH1 0x40 MLOAD DUP1 SWAP2 SUB SWAP1 LOG1 POP JUMP JUMPDEST PUSH2 0xD1C PUSH2 0xED4 JUMP JUMPDEST PUSH0 PUSH20 0xFFFFFFFFFFFFFFFFFFFFFFFFFFFFFFFFFFFFFFFF AND DUP2 PUSH20 0xFFFFFFFFFFFFFFFFFFFFFFFFFFFFFFFFFFFFFFFF AND SUB PUSH2 0xD8C JUMPI PUSH0 PUSH1 0x40 MLOAD PUSH32 0x1E4FBDF700000000000000000000000000000000000000000000000000000000 DUP2 MSTORE PUSH1 0x4 ADD PUSH2 0xD83 SWAP2 SWAP1 PUSH2 0x117E JUMP JUMPDEST PUSH1 0x40 MLOAD DUP1 SWAP2 SUB SWAP1 REVERT JUMPDEST PUSH2 0xD95 DUP2 PUSH2 0xF5B JUMP JUMPDEST POP JUMP JUMPDEST PUSH1 0x2 PUSH0 SWAP1 SLOAD SWAP1 PUSH2 0x100 EXP SWAP1 DIV PUSH1 0xFF AND DUP2 JUMP JUMPDEST PUSH2 0xDB2 PUSH2 0xED4 JUMP JUMPDEST PUSH0 ISZERO ISZERO PUSH1 0x4 PUSH0 DUP4 PUSH20 0xFFFFFFFFFFFFFFFFFFFFFFFFFFFFFFFFFFFFFFFF AND PUSH20 0xFFFFFFFFFFFFFFFFFFFFFFFFFFFFFFFFFFFFFFFF AND DUP2 MSTORE PUSH1 0x20 ADD SWAP1 DUP2 MSTORE PUSH1 0x20 ADD PUSH0 KECCAK256 PUSH0 ADD PUSH0 SWAP1 SLOAD SWAP1 PUSH2 0x100 EXP SWAP1 DIV PUSH1 0xFF AND ISZERO ISZERO EQ PUSH2 0xE43 JUMPI PUSH1 0x40 MLOAD PUSH32 0x8C379A000000000000000000000000000000000000000000000000000000000 DUP2 MSTORE PUSH1 0x4 ADD PUSH2 0xE3A SWAP1 PUSH2 0x1A89 JUMP JUMPDEST PUSH1 0x40 MLOAD DUP1 SWAP2 SUB SWAP1 REVERT JUMPDEST PUSH1 0x1 PUSH1 0x4 PUSH0 DUP4 PUSH20 0xFFFFFFFFFFFFFFFFFFFFFFFFFFFFFFFFFFFFFFFF AND PUSH20 0xFFFFFFFFFFFFFFFFFFFFFFFFFFFFFFFFFFFFFFFF AND DUP2 MSTORE PUSH1 0x20 ADD SWAP1 DUP2 MSTORE PUSH1 0x20 ADD PUSH0 KECCAK256 PUSH0 ADD PUSH0 PUSH2 0x100 EXP DUP2 SLOAD DUP2 PUSH1 0xFF MUL NOT AND SWAP1 DUP4 ISZERO ISZERO MUL OR SWAP1 SSTORE POP PUSH32 0xB6BE2187D059CC2A55FE29E0E503B566E1E0F8C8780096E185429350ACFFD3DD DUP2 PUSH1 0x40 MLOAD PUSH2 0xEC9 SWAP2 SWAP1 PUSH2 0x117E JUMP JUMPDEST PUSH1 0x40 MLOAD DUP1 SWAP2 SUB SWAP1 LOG1 POP JUMP JUMPDEST PUSH2 0xEDC PUSH2 0x101C JUMP JUMPDEST PUSH20 0xFFFFFFFFFFFFFFFFFFFFFFFFFFFFFFFFFFFFFFFF AND PUSH2 0xEFA PUSH2 0x85F JUMP JUMPDEST PUSH20 0xFFFFFFFFFFFFFFFFFFFFFFFFFFFFFFFFFFFFFFFF AND EQ PUSH2 0xF59 JUMPI PUSH2 0xF1D PUSH2 0x101C JUMP JUMPDEST PUSH1 0x40 MLOAD PUSH32 0x118CDAA700000000000000000000000000000000000000000000000000000000 DUP2 MSTORE PUSH1 0x4 ADD PUSH2 0xF50 SWAP2 SWAP1 PUSH2 0x117E JUMP JUMPDEST PUSH1 0x40 MLOAD DUP1 SWAP2 SUB SWAP1 REVERT JUMPDEST JUMP JUMPDEST PUSH0 PUSH0 PUSH0 SWAP1 SLOAD SWAP1 PUSH2 0x100 EXP SWAP1 DIV PUSH20 0xFFFFFFFFFFFFFFFFFFFFFFFFFFFFFFFFFFFFFFFF AND SWAP1 POP DUP2 PUSH0 PUSH0 PUSH2 0x100 EXP DUP2 SLOAD DUP2 PUSH20 0xFFFFFFFFFFFFFFFFFFFFFFFFFFFFFFFFFFFFFFFF MUL NOT AND SWAP1 DUP4 PUSH20 0xFFFFFFFFFFFFFFFFFFFFFFFFFFFFFFFFFFFFFFFF AND MUL OR SWAP1 SSTORE POP DUP2 PUSH20 0xFFFFFFFFFFFFFFFFFFFFFFFFFFFFFFFFFFFFFFFF AND DUP2 PUSH20 0xFFFFFFFFFFFFFFFFFFFFFFFFFFFFFFFFFFFFFFFF AND PUSH32 0x8BE0079C531659141344CD1FD0A4F28419497F9722A3DAAFE3B4186F6B6457E0 PUSH1 0x40 MLOAD PUSH1 0x40 MLOAD DUP1 SWAP2 SUB SWAP1 LOG3 POP POP JUMP JUMPDEST PUSH0 CALLER SWAP1 POP SWAP1 JUMP JUMPDEST PUSH0 PUSH1 0x40 MLOAD SWAP1 POP SWAP1 JUMP JUMPDEST PUSH0 PUSH0 REVERT JUMPDEST PUSH0 PUSH0 REVERT JUMPDEST PUSH0 DUP2 SWAP1 POP SWAP2 SWAP1 POP JUMP JUMPDEST PUSH2 0x1046 DUP2 PUSH2 0x1034 JUMP JUMPDEST DUP2 EQ PUSH2 0x1050 JUMPI PUSH0 PUSH0 REVERT JUMPDEST POP JUMP JUMPDEST PUSH0 DUP2 CALLDATALOAD SWAP1 POP PUSH2 0x1061 DUP2 PUSH2 0x103D JUMP JUMPDEST SWAP3 SWAP2 POP POP JUMP JUMPDEST PUSH0 PUSH1 0x20 DUP3 DUP5 SUB SLT ISZERO PUSH2 0x107C JUMPI PUSH2 0x107B PUSH2 0x102C JUMP JUMPDEST JUMPDEST PUSH0 PUSH2 0x1089 DUP5 DUP3 DUP6 ADD PUSH2 0x1053 JUMP JUMPDEST SWAP2 POP POP SWAP3 SWAP2 POP POP JUMP JUMPDEST PUSH0 DUP2 MLOAD SWAP1 POP SWAP2 SWAP1 POP JUMP JUMPDEST PUSH0 DUP3 DUP3 MSTORE PUSH1 0x20 DUP3 ADD SWAP1 POP SWAP3 SWAP2 POP POP JUMP JUMPDEST DUP3 DUP2 DUP4 MCOPY PUSH0 DUP4 DUP4 ADD MSTORE POP POP POP JUMP JUMPDEST PUSH0 PUSH1 0x1F NOT PUSH1 0x1F DUP4 ADD AND SWAP1 POP SWAP2 SWAP1 POP JUMP JUMPDEST PUSH0 PUSH2 0x10D4 DUP3 PUSH2 0x1092 JUMP JUMPDEST PUSH2 0x10DE DUP2 DUP6 PUSH2 0x109C JUMP JUMPDEST SWAP4 POP PUSH2 0x10EE DUP2 DUP6 PUSH1 0x20 DUP7 ADD PUSH2 0x10AC JUMP JUMPDEST PUSH2 0x10F7 DUP2 PUSH2 0x10BA JUMP JUMPDEST DUP5 ADD SWAP2 POP POP SWAP3 SWAP2 POP POP JUMP JUMPDEST PUSH2 0x110B DUP2 PUSH2 0x1034 JUMP JUMPDEST DUP3 MSTORE POP POP JUMP JUMPDEST PUSH0 PUSH1 0x40 DUP3 ADD SWAP1 POP DUP2 DUP2 SUB PUSH0 DUP4 ADD MSTORE PUSH2 0x1129 DUP2 DUP6 PUSH2 0x10CA JUMP JUMPDEST SWAP1 POP PUSH2 0x1138 PUSH1 0x20 DUP4 ADD DUP5 PUSH2 0x1102 JUMP JUMPDEST SWAP4 SWAP3 POP POP POP JUMP JUMPDEST PUSH0 PUSH20 0xFFFFFFFFFFFFFFFFFFFFFFFFFFFFFFFFFFFFFFFF DUP3 AND SWAP1 POP SWAP2 SWAP1 POP JUMP JUMPDEST PUSH0 PUSH2 0x1168 DUP3 PUSH2 0x113F JUMP JUMPDEST SWAP1 POP SWAP2 SWAP1 POP JUMP JUMPDEST PUSH2 0x1178 DUP2 PUSH2 0x115E JUMP JUMPDEST DUP3 MSTORE POP POP JUMP JUMPDEST PUSH0 PUSH1 0x20 DUP3 ADD SWAP1 POP PUSH2 0x1191 PUSH0 DUP4 ADD DUP5 PUSH2 0x116F JUMP JUMPDEST SWAP3 SWAP2 POP POP JUMP JUMPDEST PUSH2 0x11A0 DUP2 PUSH2 0x115E JUMP JUMPDEST DUP2 EQ PUSH2 0x11AA JUMPI PUSH0 PUSH0 REVERT JUMPDEST POP JUMP JUMPDEST PUSH0 DUP2 CALLDATALOAD SWAP1 POP PUSH2 0x11BB DUP2 PUSH2 0x1197 JUMP JUMPDEST SWAP3 SWAP2 POP POP JUMP JUMPDEST PUSH0 PUSH1 0x20 DUP3 DUP5 SUB SLT ISZERO PUSH2 0x11D6 JUMPI PUSH2 0x11D5 PUSH2 0x102C JUMP JUMPDEST JUMPDEST PUSH0 PUSH2 0x11E3 DUP5 DUP3 DUP6 ADD PUSH2 0x11AD JUMP JUMPDEST SWAP2 POP POP SWAP3 SWAP2 POP POP JUMP JUMPDEST PUSH0 DUP2 ISZERO ISZERO SWAP1 POP SWAP2 SWAP1 POP JUMP JUMPDEST PUSH2 0x1200 DUP2 PUSH2 0x11EC JUMP JUMPDEST DUP3 MSTORE POP POP JUMP JUMPDEST PUSH0 PUSH1 0x60 DUP3 ADD SWAP1 POP PUSH2 0x1219 PUSH0 DUP4 ADD DUP7 PUSH2 0x11F7 JUMP JUMPDEST PUSH2 0x1226 PUSH1 0x20 DUP4 ADD DUP6 PUSH2 0x11F7 JUMP JUMPDEST PUSH2 0x1233 PUSH1 0x40 DUP4 ADD DUP5 PUSH2 0x1102 JUMP JUMPDEST SWAP5 SWAP4 POP POP POP POP JUMP JUMPDEST PUSH0 PUSH0 REVERT JUMPDEST PUSH0 PUSH0 REVERT JUMPDEST PUSH32 0x4E487B7100000000000000000000000000000000000000000000000000000000 PUSH0 MSTORE PUSH1 0x41 PUSH1 0x4 MSTORE PUSH1 0x24 PUSH0 REVERT JUMPDEST PUSH2 0x1279 DUP3 PUSH2 0x10BA JUMP JUMPDEST DUP2 ADD DUP2 DUP2 LT PUSH8 0xFFFFFFFFFFFFFFFF DUP3 GT OR ISZERO PUSH2 0x1298 JUMPI PUSH2 0x1297 PUSH2 0x1243 JUMP JUMPDEST JUMPDEST DUP1 PUSH1 0x40 MSTORE POP POP POP JUMP JUMPDEST PUSH0 PUSH2 0x12AA PUSH2 0x1023 JUMP JUMPDEST SWAP1 POP PUSH2 0x12B6 DUP3 DUP3 PUSH2 0x1270 JUMP JUMPDEST SWAP2 SWAP1 POP JUMP JUMPDEST PUSH0 PUSH8 0xFFFFFFFFFFFFFFFF DUP3 GT ISZERO PUSH2 0x12D5 JUMPI PUSH2 0x12D4 PUSH2 0x1243 JUMP JUMPDEST JUMPDEST PUSH2 0x12DE DUP3 PUSH2 0x10BA JUMP JUMPDEST SWAP1 POP PUSH1 0x20 DUP2 ADD SWAP1 POP SWAP2 SWAP1 POP JUMP JUMPDEST DUP3 DUP2 DUP4 CALLDATACOPY PUSH0 DUP4 DUP4 ADD MSTORE POP POP POP JUMP JUMPDEST PUSH0 PUSH2 0x130B PUSH2 0x1306 DUP5 PUSH2 0x12BB JUMP JUMPDEST PUSH2 0x12A1 JUMP JUMPDEST SWAP1 POP DUP3 DUP2 MSTORE PUSH1 0x20 DUP2 ADD DUP5 DUP5 DUP5 ADD GT ISZERO PUSH2 0x1327 JUMPI PUSH2 0x1326 PUSH2 0x123F JUMP JUMPDEST JUMPDEST PUSH2 0x1332 DUP5 DUP3 DUP6 PUSH2 0x12EB JUMP JUMPDEST POP SWAP4 SWAP3 POP POP POP JUMP JUMPDEST PUSH0 DUP3 PUSH1 0x1F DUP4 ADD SLT PUSH2 0x134E JUMPI PUSH2 0x134D PUSH2 0x123B JUMP JUMPDEST JUMPDEST DUP2 CALLDATALOAD PUSH2 0x135E DUP5 DUP3 PUSH1 0x20 DUP7 ADD PUSH2 0x12F9 JUMP JUMPDEST SWAP2 POP POP SWAP3 SWAP2 POP POP JUMP JUMPDEST PUSH0 PUSH1 0x20 DUP3 DUP5 SUB SLT ISZERO PUSH2 0x137C JUMPI PUSH2 0x137B PUSH2 0x102C JUMP JUMPDEST JUMPDEST PUSH0 DUP3 ADD CALLDATALOAD PUSH8 0xFFFFFFFFFFFFFFFF DUP2 GT ISZERO PUSH2 0x1399 JUMPI PUSH2 0x1398 PUSH2 0x1030 JUMP JUMPDEST JUMPDEST PUSH2 0x13A5 DUP5 DUP3 DUP6 ADD PUSH2 0x133A JUMP JUMPDEST SWAP2 POP POP SWAP3 SWAP2 POP POP JUMP JUMPDEST PUSH0 PUSH1 0x20 DUP3 ADD SWAP1 POP PUSH2 0x13C1 PUSH0 DUP4 ADD DUP5 PUSH2 0x1102 JUMP JUMPDEST SWAP3 SWAP2 POP POP JUMP JUMPDEST PUSH32 0x4E487B7100000000000000000000000000000000000000000000000000000000 PUSH0 MSTORE PUSH1 0x21 PUSH1 0x4 MSTORE PUSH1 0x24 PUSH0 REVERT JUMPDEST PUSH1 0x6 DUP2 LT PUSH2 0x1405 JUMPI PUSH2 0x1404 PUSH2 0x13C7 JUMP JUMPDEST JUMPDEST POP JUMP JUMPDEST PUSH0 DUP2 SWAP1 POP PUSH2 0x1415 DUP3 PUSH2 0x13F4 JUMP JUMPDEST SWAP2 SWAP1 POP JUMP JUMPDEST PUSH0 PUSH2 0x1424 DUP3 PUSH2 0x1408 JUMP JUMPDEST SWAP1 POP SWAP2 SWAP1 POP JUMP JUMPDEST PUSH2 0x1434 DUP2 PUSH2 0x141A JUMP JUMPDEST DUP3 MSTORE POP POP JUMP JUMPDEST PUSH0 PUSH1 0x20 DUP3 ADD SWAP1 POP PUSH2 0x144D PUSH0 DUP4 ADD DUP5 PUSH2 0x142B JUMP JUMPDEST SWAP3 SWAP2 POP POP JUMP JUMPDEST PUSH32 0x596F75277265206E6F742057686974656C697374656400000000000000000000 PUSH0 DUP3 ADD MSTORE POP JUMP JUMPDEST PUSH0 PUSH2 0x1487 PUSH1 0x16 DUP4 PUSH2 0x109C JUMP JUMPDEST SWAP2 POP PUSH2 0x1492 DUP3 PUSH2 0x1453 JUMP JUMPDEST PUSH1 0x20 DUP3 ADD SWAP1 POP SWAP2 SWAP1 POP JUMP JUMPDEST PUSH0 PUSH1 0x20 DUP3 ADD SWAP1 POP DUP2 DUP2 SUB PUSH0 DUP4 ADD MSTORE PUSH2 0x14B4 DUP2 PUSH2 0x147B JUMP JUMPDEST SWAP1 POP SWAP2 SWAP1 POP JUMP JUMPDEST PUSH32 0x596F75277265206E6F7420666F6C6C6F77696E67207468652072696768742057 PUSH0 DUP3 ADD MSTORE PUSH32 0x6F726B666C6F7700000000000000000000000000000000000000000000000000 PUSH1 0x20 DUP3 ADD MSTORE POP JUMP JUMPDEST PUSH0 PUSH2 0x1515 PUSH1 0x27 DUP4 PUSH2 0x109C JUMP JUMPDEST SWAP2 POP PUSH2 0x1520 DUP3 PUSH2 0x14BB JUMP JUMPDEST PUSH1 0x40 DUP3 ADD SWAP1 POP SWAP2 SWAP1 POP JUMP JUMPDEST PUSH0 PUSH1 0x20 DUP3 ADD SWAP1 POP DUP2 DUP2 SUB PUSH0 DUP4 ADD MSTORE PUSH2 0x1542 DUP2 PUSH2 0x1509 JUMP JUMPDEST SWAP1 POP SWAP2 SWAP1 POP JUMP JUMPDEST PUSH32 0x596F7520616C726561647920766F746564210000000000000000000000000000 PUSH0 DUP3 ADD MSTORE POP JUMP JUMPDEST PUSH0 PUSH2 0x157D PUSH1 0x12 DUP4 PUSH2 0x109C JUMP JUMPDEST SWAP2 POP PUSH2 0x1588 DUP3 PUSH2 0x1549 JUMP JUMPDEST PUSH1 0x20 DUP3 ADD SWAP1 POP SWAP2 SWAP1 POP JUMP JUMPDEST PUSH0 PUSH1 0x20 DUP3 ADD SWAP1 POP DUP2 DUP2 SUB PUSH0 DUP4 ADD MSTORE PUSH2 0x15AA DUP2 PUSH2 0x1571 JUMP JUMPDEST SWAP1 POP SWAP2 SWAP1 POP JUMP JUMPDEST PUSH32 0x596F7520747269656420746F20766F746520666F7220612070726F706F73616C PUSH0 DUP3 ADD MSTORE PUSH32 0x2077686F20646F65736E27742065786973740000000000000000000000000000 PUSH1 0x20 DUP3 ADD MSTORE POP JUMP JUMPDEST PUSH0 PUSH2 0x160B PUSH1 0x32 DUP4 PUSH2 0x109C JUMP JUMPDEST SWAP2 POP PUSH2 0x1616 DUP3 PUSH2 0x15B1 JUMP JUMPDEST PUSH1 0x40 DUP3 ADD SWAP1 POP SWAP2 SWAP1 POP JUMP JUMPDEST PUSH0 PUSH1 0x20 DUP3 ADD SWAP1 POP DUP2 DUP2 SUB PUSH0 DUP4 ADD MSTORE PUSH2 0x1638 DUP2 PUSH2 0x15FF JUMP JUMPDEST SWAP1 POP SWAP2 SWAP1 POP JUMP JUMPDEST PUSH32 0x4E487B7100000000000000000000000000000000000000000000000000000000 PUSH0 MSTORE PUSH1 0x32 PUSH1 0x4 MSTORE PUSH1 0x24 PUSH0 REVERT JUMPDEST PUSH32 0x4E487B7100000000000000000000000000000000000000000000000000000000 PUSH0 MSTORE PUSH1 0x11 PUSH1 0x4 MSTORE PUSH1 0x24 PUSH0 REVERT JUMPDEST PUSH0 PUSH2 0x16A3 DUP3 PUSH2 0x1034 JUMP JUMPDEST SWAP2 POP PUSH2 0x16AE DUP4 PUSH2 0x1034 JUMP JUMPDEST SWAP3 POP DUP3 DUP3 ADD SWAP1 POP DUP1 DUP3 GT ISZERO PUSH2 0x16C6 JUMPI PUSH2 0x16C5 PUSH2 0x166C JUMP JUMPDEST JUMPDEST SWAP3 SWAP2 POP POP JUMP JUMPDEST PUSH0 PUSH1 0x40 DUP3 ADD SWAP1 POP PUSH2 0x16DF PUSH0 DUP4 ADD DUP6 PUSH2 0x116F JUMP JUMPDEST PUSH2 0x16EC PUSH1 0x20 DUP4 ADD DUP5 PUSH2 0x1102 JUMP JUMPDEST SWAP4 SWAP3 POP POP POP JUMP JUMPDEST PUSH32 0x4E487B7100000000000000000000000000000000000000000000000000000000 PUSH0 MSTORE PUSH1 0x22 PUSH1 0x4 MSTORE PUSH1 0x24 PUSH0 REVERT JUMPDEST PUSH0 PUSH1 0x2 DUP3 DIV SWAP1 POP PUSH1 0x1 DUP3 AND DUP1 PUSH2 0x1737 JUMPI PUSH1 0x7F DUP3 AND SWAP2 POP JUMPDEST PUSH1 0x20 DUP3 LT DUP2 SUB PUSH2 0x174A JUMPI PUSH2 0x1749 PUSH2 0x16F3 JUMP JUMPDEST JUMPDEST POP SWAP2 SWAP1 POP JUMP JUMPDEST PUSH0 PUSH1 0x40 DUP3 ADD SWAP1 POP PUSH2 0x1763 PUSH0 DUP4 ADD DUP6 PUSH2 0x142B JUMP JUMPDEST PUSH2 0x1770 PUSH1 0x20 DUP4 ADD DUP5 PUSH2 0x142B JUMP JUMPDEST SWAP4 SWAP3 POP POP POP JUMP JUMPDEST PUSH0 DUP2 SWAP1 POP DUP2 PUSH0 MSTORE PUSH1 0x20 PUSH0 KECCAK256 SWAP1 POP SWAP2 SWAP1 POP JUMP JUMPDEST PUSH0 PUSH1 0x20 PUSH1 0x1F DUP4 ADD DIV SWAP1 POP SWAP2 SWAP1 POP JUMP JUMPDEST PUSH0 DUP3 DUP3 SHL SWAP1 POP SWAP3 SWAP2 POP POP JUMP JUMPDEST PUSH0 PUSH1 0x8 DUP4 MUL PUSH2 0x17D3 PUSH32 0xFFFFFFFFFFFFFFFFFFFFFFFFFFFFFFFFFFFFFFFFFFFFFFFFFFFFFFFFFFFFFFFF DUP3 PUSH2 0x1798 JUMP JUMPDEST PUSH2 0x17DD DUP7 DUP4 PUSH2 0x1798 JUMP JUMPDEST SWAP6 POP DUP1 NOT DUP5 AND SWAP4 POP DUP1 DUP7 AND DUP5 OR SWAP3 POP POP POP SWAP4 SWAP3 POP POP POP JUMP JUMPDEST PUSH0 DUP2 SWAP1 POP SWAP2 SWAP1 POP JUMP JUMPDEST PUSH0 PUSH2 0x1818 PUSH2 0x1813 PUSH2 0x180E DUP5 PUSH2 0x1034 JUMP JUMPDEST PUSH2 0x17F5 JUMP JUMPDEST PUSH2 0x1034 JUMP JUMPDEST SWAP1 POP SWAP2 SWAP1 POP JUMP JUMPDEST PUSH0 DUP2 SWAP1 POP SWAP2 SWAP1 POP JUMP JUMPDEST PUSH2 0x1831 DUP4 PUSH2 0x17FE JUMP JUMPDEST PUSH2 0x1845 PUSH2 0x183D DUP3 PUSH2 0x181F JUMP JUMPDEST DUP5 DUP5 SLOAD PUSH2 0x17A4 JUMP JUMPDEST DUP3 SSTORE POP POP POP POP JUMP JUMPDEST PUSH0 PUSH0 SWAP1 POP SWAP1 JUMP JUMPDEST PUSH2 0x185C PUSH2 0x184D JUMP JUMPDEST PUSH2 0x1867 DUP2 DUP5 DUP5 PUSH2 0x1828 JUMP JUMPDEST POP POP POP JUMP JUMPDEST JUMPDEST DUP2 DUP2 LT ISZERO PUSH2 0x188A JUMPI PUSH2 0x187F PUSH0 DUP3 PUSH2 0x1854 JUMP JUMPDEST PUSH1 0x1 DUP2 ADD SWAP1 POP PUSH2 0x186D JUMP JUMPDEST POP POP JUMP JUMPDEST PUSH1 0x1F DUP3 GT ISZERO PUSH2 0x18CF JUMPI PUSH2 0x18A0 DUP2 PUSH2 0x1777 JUMP JUMPDEST PUSH2 0x18A9 DUP5 PUSH2 0x1789 JUMP JUMPDEST DUP2 ADD PUSH1 0x20 DUP6 LT ISZERO PUSH2 0x18B8 JUMPI DUP2 SWAP1 POP JUMPDEST PUSH2 0x18CC PUSH2 0x18C4 DUP6 PUSH2 0x1789 JUMP JUMPDEST DUP4 ADD DUP3 PUSH2 0x186C JUMP JUMPDEST POP POP JUMPDEST POP POP POP JUMP JUMPDEST PUSH0 DUP3 DUP3 SHR SWAP1 POP SWAP3 SWAP2 POP POP JUMP JUMPDEST PUSH0 PUSH2 0x18EF PUSH0 NOT DUP5 PUSH1 0x8 MUL PUSH2 0x18D4 JUMP JUMPDEST NOT DUP1 DUP4 AND SWAP2 POP POP SWAP3 SWAP2 POP POP JUMP JUMPDEST PUSH0 PUSH2 0x1907 DUP4 DUP4 PUSH2 0x18E0 JUMP JUMPDEST SWAP2 POP DUP3 PUSH1 0x2 MUL DUP3 OR SWAP1 POP SWAP3 SWAP2 POP POP JUMP JUMPDEST PUSH2 0x1920 DUP3 PUSH2 0x1092 JUMP JUMPDEST PUSH8 0xFFFFFFFFFFFFFFFF DUP2 GT ISZERO PUSH2 0x1939 JUMPI PUSH2 0x1938 PUSH2 0x1243 JUMP JUMPDEST JUMPDEST PUSH2 0x1943 DUP3 SLOAD PUSH2 0x1720 JUMP JUMPDEST PUSH2 0x194E DUP3 DUP3 DUP6 PUSH2 0x188E JUMP JUMPDEST PUSH0 PUSH1 0x20 SWAP1 POP PUSH1 0x1F DUP4 GT PUSH1 0x1 DUP2 EQ PUSH2 0x197F JUMPI PUSH0 DUP5 ISZERO PUSH2 0x196D JUMPI DUP3 DUP8 ADD MLOAD SWAP1 POP JUMPDEST PUSH2 0x1977 DUP6 DUP3 PUSH2 0x18FC JUMP JUMPDEST DUP7 SSTORE POP PUSH2 0x19DE JUMP JUMPDEST PUSH1 0x1F NOT DUP5 AND PUSH2 0x198D DUP7 PUSH2 0x1777 JUMP JUMPDEST PUSH0 JUMPDEST DUP3 DUP2 LT ISZERO PUSH2 0x19B4 JUMPI DUP5 DUP10 ADD MLOAD DUP3 SSTORE PUSH1 0x1 DUP3 ADD SWAP2 POP PUSH1 0x20 DUP6 ADD SWAP5 POP PUSH1 0x20 DUP2 ADD SWAP1 POP PUSH2 0x198F JUMP JUMPDEST DUP7 DUP4 LT ISZERO PUSH2 0x19D1 JUMPI DUP5 DUP10 ADD MLOAD PUSH2 0x19CD PUSH1 0x1F DUP10 AND DUP3 PUSH2 0x18E0 JUMP JUMPDEST DUP4 SSTORE POP JUMPDEST PUSH1 0x1 PUSH1 0x2 DUP9 MUL ADD DUP9 SSTORE POP POP POP JUMPDEST POP POP POP POP POP POP JUMP JUMPDEST PUSH0 PUSH2 0x19F0 DUP3 PUSH2 0x1034 JUMP JUMPDEST SWAP2 POP PUSH2 0x19FB DUP4 PUSH2 0x1034 JUMP JUMPDEST SWAP3 POP DUP3 DUP3 SUB SWAP1 POP DUP2 DUP2 GT ISZERO PUSH2 0x1A13 JUMPI PUSH2 0x1A12 PUSH2 0x166C JUMP JUMPDEST JUMPDEST SWAP3 SWAP2 POP POP JUMP JUMPDEST PUSH32 0x54686973206164647265737320697320616C72656164792077686974656C6973 PUSH0 DUP3 ADD MSTORE PUSH32 0x7465640000000000000000000000000000000000000000000000000000000000 PUSH1 0x20 DUP3 ADD MSTORE POP JUMP JUMPDEST PUSH0 PUSH2 0x1A73 PUSH1 0x23 DUP4 PUSH2 0x109C JUMP JUMPDEST SWAP2 POP PUSH2 0x1A7E DUP3 PUSH2 0x1A19 JUMP JUMPDEST PUSH1 0x40 DUP3 ADD SWAP1 POP SWAP2 SWAP1 POP JUMP JUMPDEST PUSH0 PUSH1 0x20 DUP3 ADD SWAP1 POP DUP2 DUP2 SUB PUSH0 DUP4 ADD MSTORE PUSH2 0x1AA0 DUP2 PUSH2 0x1A67 JUMP JUMPDEST SWAP1 POP SWAP2 SWAP1 POP JUMP INVALID LOG2 PUSH5 0x6970667358 0x22 SLT KECCAK256 0xBC SHL MOD PUSH30 0xD1F8ABADD8137F50839A5302CB381AE528598C7A6A8F00DFEBAEFE4B6473 PUSH16 0x6C634300081E00330000000000000000 "
				},
				"gasEstimates": {
					"creation": {
						"codeDepositCost": "1375400",
						"executionCost": "infinite",
						"totalCost": "infinite"
					},
					"external": {
						"addWhitelist(address)": "infinite",
						"countVote()": "infinite",
						"currentWorkflowStatus()": "2620",
						"endProposalRegistration()": "infinite",
						"endVotingSession()": "infinite",
						"owner()": "2581",
						"proposals(uint256)": "infinite",
						"propose(string)": "infinite",
						"renounceOwnership()": "infinite",
						"startProposalRegistration()": "infinite",
						"startVotingSession()": "infinite",
						"transferOwnership(address)": "infinite",
						"vote(uint256)": "infinite",
						"whitelist(address)": "infinite",
						"winningProposalId()": "2492"
					}
				},
				"methodIdentifiers": {
					"addWhitelist(address)": "f80f5dd5",
					"countVote()": "1a6cd2fd",
					"currentWorkflowStatus()": "f7ad7645",
					"endProposalRegistration()": "e85a8f2a",
					"endVotingSession()": "a7bfab16",
					"owner()": "8da5cb5b",
					"proposals(uint256)": "013cf08b",
					"propose(string)": "aa98df39",
					"renounceOwnership()": "715018a6",
					"startProposalRegistration()": "0f7e2838",
					"startVotingSession()": "ee74c678",
					"transferOwnership(address)": "f2fde38b",
					"vote(uint256)": "0121b93f",
					"whitelist(address)": "9b19251a",
					"winningProposalId()": "c64963c5"
				}
			},
			"storageLayout": {
				"storage": [
					{
						"astId": 375,
						"contract": "2. Solidity/Projet1/Voting.sol:Voting",
						"label": "_owner",
						"offset": 0,
						"slot": "0",
						"type": "t_address"
					},
					{
						"astId": 63,
						"contract": "2. Solidity/Projet1/Voting.sol:Voting",
						"label": "winningProposalId",
						"offset": 0,
						"slot": "1",
						"type": "t_uint256"
					},
					{
						"astId": 66,
						"contract": "2. Solidity/Projet1/Voting.sol:Voting",
						"label": "currentWorkflowStatus",
						"offset": 0,
						"slot": "2",
						"type": "t_enum(WorkflowStatus)23"
					},
					{
						"astId": 70,
						"contract": "2. Solidity/Projet1/Voting.sol:Voting",
						"label": "proposals",
						"offset": 0,
						"slot": "3",
						"type": "t_array(t_struct(Proposal)16_storage)dyn_storage"
					},
					{
						"astId": 75,
						"contract": "2. Solidity/Projet1/Voting.sol:Voting",
						"label": "whitelist",
						"offset": 0,
						"slot": "4",
						"type": "t_mapping(t_address,t_struct(Voter)11_storage)"
					}
				],
				"types": {
					"t_address": {
						"encoding": "inplace",
						"label": "address",
						"numberOfBytes": "20"
					},
					"t_array(t_struct(Proposal)16_storage)dyn_storage": {
						"base": "t_struct(Proposal)16_storage",
						"encoding": "dynamic_array",
						"label": "struct Voting.Proposal[]",
						"numberOfBytes": "32"
					},
					"t_bool": {
						"encoding": "inplace",
						"label": "bool",
						"numberOfBytes": "1"
					},
					"t_enum(WorkflowStatus)23": {
						"encoding": "inplace",
						"label": "enum Voting.WorkflowStatus",
						"numberOfBytes": "1"
					},
					"t_mapping(t_address,t_struct(Voter)11_storage)": {
						"encoding": "mapping",
						"key": "t_address",
						"label": "mapping(address => struct Voting.Voter)",
						"numberOfBytes": "32",
						"value": "t_struct(Voter)11_storage"
					},
					"t_string_storage": {
						"encoding": "bytes",
						"label": "string",
						"numberOfBytes": "32"
					},
					"t_struct(Proposal)16_storage": {
						"encoding": "inplace",
						"label": "struct Voting.Proposal",
						"members": [
							{
								"astId": 13,
								"contract": "2. Solidity/Projet1/Voting.sol:Voting",
								"label": "description",
								"offset": 0,
								"slot": "0",
								"type": "t_string_storage"
							},
							{
								"astId": 15,
								"contract": "2. Solidity/Projet1/Voting.sol:Voting",
								"label": "voteCount",
								"offset": 0,
								"slot": "1",
								"type": "t_uint256"
							}
						],
						"numberOfBytes": "64"
					},
					"t_struct(Voter)11_storage": {
						"encoding": "inplace",
						"label": "struct Voting.Voter",
						"members": [
							{
								"astId": 6,
								"contract": "2. Solidity/Projet1/Voting.sol:Voting",
								"label": "isRegistered",
								"offset": 0,
								"slot": "0",
								"type": "t_bool"
							},
							{
								"astId": 8,
								"contract": "2. Solidity/Projet1/Voting.sol:Voting",
								"label": "hasVoted",
								"offset": 1,
								"slot": "0",
								"type": "t_bool"
							},
							{
								"astId": 10,
								"contract": "2. Solidity/Projet1/Voting.sol:Voting",
								"label": "votedProposalId",
								"offset": 0,
								"slot": "1",
								"type": "t_uint256"
							}
						],
						"numberOfBytes": "64"
					},
					"t_uint256": {
						"encoding": "inplace",
						"label": "uint256",
						"numberOfBytes": "32"
					}
				}
			},
			"userdoc": {
				"kind": "user",
				"methods": {},
				"version": 1
			}
		}
	}
}