{
  "_format": "hh3-artifact-1",
  "contractName": "Voting",
  "sourceName": "contracts/Voting.sol",
  "abi": [
    {
      "inputs": [],
      "stateMutability": "nonpayable",
      "type": "constructor"
    },
    {
      "inputs": [
        {
          "internalType": "address",
          "name": "owner",
          "type": "address"
        }
      ],
      "name": "OwnableInvalidOwner",
      "type": "error"
    },
    {
      "inputs": [
        {
          "internalType": "address",
          "name": "account",
          "type": "address"
        }
      ],
      "name": "OwnableUnauthorizedAccount",
      "type": "error"
    },
    {
      "anonymous": false,
      "inputs": [
        {
          "indexed": true,
          "internalType": "address",
          "name": "previousOwner",
          "type": "address"
        },
        {
          "indexed": true,
          "internalType": "address",
          "name": "newOwner",
          "type": "address"
        }
      ],
      "name": "OwnershipTransferred",
      "type": "event"
    },
    {
      "anonymous": false,
      "inputs": [
        {
          "indexed": false,
          "internalType": "uint256",
          "name": "proposalId",
          "type": "uint256"
        }
      ],
      "name": "ProposalRegistered",
      "type": "event"
    },
    {
      "anonymous": false,
      "inputs": [
        {
          "indexed": false,
          "internalType": "address",
          "name": "voter",
          "type": "address"
        },
        {
          "indexed": false,
          "internalType": "uint256",
          "name": "proposalId",
          "type": "uint256"
        }
      ],
      "name": "Voted",
      "type": "event"
    },
    {
      "anonymous": false,
      "inputs": [
        {
          "indexed": false,
          "internalType": "address",
          "name": "voterAddress",
          "type": "address"
        }
      ],
      "name": "VoterRegistered",
      "type": "event"
    },
    {
      "anonymous": false,
      "inputs": [
        {
          "indexed": false,
          "internalType": "enum Voting.WorkflowStatus",
          "name": "previousStatus",
          "type": "uint8"
        },
        {
          "indexed": false,
          "internalType": "enum Voting.WorkflowStatus",
          "name": "newStatus",
          "type": "uint8"
        }
      ],
      "name": "WorkflowStatusChange",
      "type": "event"
    },
    {
      "inputs": [
        {
          "internalType": "address",
          "name": "_voter",
          "type": "address"
        }
      ],
      "name": "addWhitelist",
      "outputs": [],
      "stateMutability": "nonpayable",
      "type": "function"
    },
    {
      "inputs": [],
      "name": "countVote",
      "outputs": [],
      "stateMutability": "nonpayable",
      "type": "function"
    },
    {
      "inputs": [],
      "name": "currentWorkflowStatus",
      "outputs": [
        {
          "internalType": "enum Voting.WorkflowStatus",
          "name": "",
          "type": "uint8"
        }
      ],
      "stateMutability": "view",
      "type": "function"
    },
    {
      "inputs": [],
      "name": "endProposalRegistration",
      "outputs": [],
      "stateMutability": "nonpayable",
      "type": "function"
    },
    {
      "inputs": [],
      "name": "endVotingSession",
      "outputs": [],
      "stateMutability": "nonpayable",
      "type": "function"
    },
    {
      "inputs": [],
      "name": "getWinner",
      "outputs": [
        {
          "internalType": "string",
          "name": "",
          "type": "string"
        }
      ],
      "stateMutability": "view",
      "type": "function"
    },
    {
      "inputs": [],
      "name": "owner",
      "outputs": [
        {
          "internalType": "address",
          "name": "",
          "type": "address"
        }
      ],
      "stateMutability": "view",
      "type": "function"
    },
    {
      "inputs": [
        {
          "internalType": "uint256",
          "name": "",
          "type": "uint256"
        }
      ],
      "name": "proposals",
      "outputs": [
        {
          "internalType": "string",
          "name": "description",
          "type": "string"
        },
        {
          "internalType": "uint256",
          "name": "voteCount",
          "type": "uint256"
        }
      ],
      "stateMutability": "view",
      "type": "function"
    },
    {
      "inputs": [
        {
          "internalType": "string",
          "name": "_proposal",
          "type": "string"
        }
      ],
      "name": "propose",
      "outputs": [],
      "stateMutability": "nonpayable",
      "type": "function"
    },
    {
      "inputs": [],
      "name": "renounceOwnership",
      "outputs": [],
      "stateMutability": "nonpayable",
      "type": "function"
    },
    {
      "inputs": [],
      "name": "startProposalRegistration",
      "outputs": [],
      "stateMutability": "nonpayable",
      "type": "function"
    },
    {
      "inputs": [],
      "name": "startVotingSession",
      "outputs": [],
      "stateMutability": "nonpayable",
      "type": "function"
    },
    {
      "inputs": [
        {
          "internalType": "address",
          "name": "newOwner",
          "type": "address"
        }
      ],
      "name": "transferOwnership",
      "outputs": [],
      "stateMutability": "nonpayable",
      "type": "function"
    },
    {
      "inputs": [
        {
          "internalType": "uint256",
          "name": "_voteProposalId",
          "type": "uint256"
        }
      ],
      "name": "vote",
      "outputs": [],
      "stateMutability": "nonpayable",
      "type": "function"
    },
    {
      "inputs": [
        {
          "internalType": "address",
          "name": "",
          "type": "address"
        }
      ],
      "name": "whitelist",
      "outputs": [
        {
          "internalType": "bool",
          "name": "isRegistered",
          "type": "bool"
        },
        {
          "internalType": "bool",
          "name": "hasVoted",
          "type": "bool"
        },
        {
          "internalType": "uint256",
          "name": "votedProposalId",
          "type": "uint256"
        }
      ],
      "stateMutability": "view",
      "type": "function"
    }
  ],
  "bytecode": "0x6080604052348015600e575f5ffd5b503380603357604051631e4fbdf760e01b81525f600482015260240160405180910390fd5b603a81603f565b50608e565b5f80546001600160a01b038381166001600160a01b0319831681178455604051919092169283917f8be0079c531659141344cd1fd0a4f28419497f9722a3daafe3b4186f6b6457e09190a35050565b610fb48061009b5f395ff3fe608060405234801561000f575f5ffd5b50600436106100f0575f3560e01c80639b19251a11610093578063ee74c67811610063578063ee74c678146101ed578063f2fde38b146101f5578063f7ad764514610208578063f80f5dd514610222575f5ffd5b80639b19251a1461017a578063a7bfab16146101ca578063aa98df39146101d2578063e85a8f2a146101e5575f5ffd5b80631a6cd2fd116100ce5780631a6cd2fd1461013b578063715018a6146101435780638da5cb5b1461014b5780638e7ea5b214610165575f5ffd5b80630121b93f146100f4578063013cf08b146101095780630f7e283814610133575b5f5ffd5b610107610102366004610ba5565b610235565b005b61011c610117366004610ba5565b610428565b60405161012a929190610bea565b60405180910390f35b6101076104dd565b610107610554565b61010761063b565b5f546040516001600160a01b03909116815260200161012a565b61016d61064e565b60405161012a9190610c0b565b6101ad610188366004610c24565b60046020525f90815260409020805460019091015460ff808316926101009004169083565b60408051931515845291151560208401529082015260600161012a565b610107610771565b6101076101e0366004610c5e565b6107df565b610107610913565b61010761097d565b610107610203366004610c24565b6109e8565b6002546102159060ff1681565b60405161012a9190610d45565b610107610230366004610c24565b610a25565b335f9081526004602052604090205460ff1615156001146102965760405162461bcd60e51b8152602060048201526016602482015275165bdd49dc99481b9bdd0815da1a5d195b1a5cdd195960521b60448201526064015b60405180910390fd5b60038060025460ff1660058111156102b0576102b0610d11565b146102cd5760405162461bcd60e51b815260040161028d90610d59565b335f90815260046020526040902054610100900460ff16156103265760405162461bcd60e51b8152602060048201526012602482015271596f7520616c726561647920766f7465642160701b604482015260640161028d565b60035482106103925760405162461bcd60e51b815260206004820152603260248201527f596f7520747269656420746f20766f746520666f7220612070726f706f73616c604482015271081dda1bc8191bd95cdb89dd08195e1a5cdd60721b606482015260840161028d565b6001600383815481106103a7576103a7610db6565b905f5260205f2090600202016001015f8282546103c49190610dde565b9091555050335f81815260046020908152604091829020805461ff001916610100178155600101859055815192835282018490527f4d99b957a2bc29a30ebd96a7be8e68fe50a3c701db28a91436490b7d53870ca491015b60405180910390a15050565b60038181548110610437575f80fd5b905f5260205f2090600202015f91509050805f01805461045690610df1565b80601f016020809104026020016040519081016040528092919081815260200182805461048290610df1565b80156104cd5780601f106104a4576101008083540402835291602001916104cd565b820191905f5260205f20905b8154815290600101906020018083116104b057829003601f168201915b5050505050908060010154905082565b6104e5610b2a565b5f8060025460ff1660058111156104fe576104fe610d11565b1461051b5760405162461bcd60e51b815260040161028d90610d59565b6002805460ff191660019081179091556040515f516020610f5f5f395f51905f5291610549915f9190610e29565b60405180910390a150565b61055c610b2a565b60048060025460ff16600581111561057657610576610d11565b146105935760405162461bcd60e51b815260040161028d90610d59565b5f80805b6003548110156105fc5781600382815481106105b5576105b5610db6565b905f5260205f2090600202016001015411156105f457600381815481106105de576105de610db6565b905f5260205f2090600202016001015491508092505b600101610597565b506002805460ff191660059081179091556040515f516020610f5f5f395f51905f529161062c9160049190610e29565b60405180910390a15060015550565b610643610b2a565b61064c5f610b56565b565b6060600560025460ff16600581111561066957610669610d11565b146106c25760405162461bcd60e51b815260206004820152602360248201527f54686520766f7465732068617665206e6f7420796574206265656e20636f756e6044820152621d195960ea1b606482015260840161028d565b6003600154815481106106d7576106d7610db6565b905f5260205f2090600202015f0180546106f090610df1565b80601f016020809104026020016040519081016040528092919081815260200182805461071c90610df1565b80156107675780601f1061073e57610100808354040283529160200191610767565b820191905f5260205f20905b81548152906001019060200180831161074a57829003601f168201915b5050505050905090565b610779610b2a565b60038060025460ff16600581111561079357610793610d11565b146107b05760405162461bcd60e51b815260040161028d90610d59565b6002805460ff191660049081179091556040515f516020610f5f5f395f51905f52916105499160039190610e29565b335f9081526004602052604090205460ff16151560011461083b5760405162461bcd60e51b8152602060048201526016602482015275165bdd49dc99481b9bdd0815da1a5d195b1a5cdd195960521b604482015260640161028d565b60018060025460ff16600581111561085557610855610d11565b146108725760405162461bcd60e51b815260040161028d90610d59565b604080518082019091528281525f60208201819052600380546001810182559152815160029091027fc2575a0e9e593c00f959f8c92f12db2869c3395a3b0502d05e2516446f71f85b019081906108c99082610e90565b50602091909101516001918201556003547f92e393e9b54e2f801d3ea4beb0c5e71a21cc34a5d34b77d0fb8a3aa1650dc18f9161090591610f4b565b60405190815260200161041c565b61091b610b2a565b60018060025460ff16600581111561093557610935610d11565b146109525760405162461bcd60e51b815260040161028d90610d59565b6002805460ff1916811781556040515f516020610f5f5f395f51905f52916105499160019190610e29565b610985610b2a565b60028060025460ff16600581111561099f5761099f610d11565b146109bc5760405162461bcd60e51b815260040161028d90610d59565b6002805460ff1916600390811782556040515f516020610f5f5f395f51905f5292610549929091610e29565b6109f0610b2a565b6001600160a01b038116610a1957604051631e4fbdf760e01b81525f600482015260240161028d565b610a2281610b56565b50565b610a2d610b2a565b5f8060025460ff166005811115610a4657610a46610d11565b14610a635760405162461bcd60e51b815260040161028d90610d59565b6001600160a01b0382165f9081526004602052604090205460ff1615610ad75760405162461bcd60e51b815260206004820152602360248201527f54686973206164647265737320697320616c72656164792077686974656c69736044820152621d195960ea1b606482015260840161028d565b6001600160a01b0382165f81815260046020908152604091829020805460ff1916600117905590519182527fb6be2187d059cc2a55fe29e0e503b566e1e0f8c8780096e185429350acffd3dd910161041c565b5f546001600160a01b0316331461064c5760405163118cdaa760e01b815233600482015260240161028d565b5f80546001600160a01b038381166001600160a01b0319831681178455604051919092169283917f8be0079c531659141344cd1fd0a4f28419497f9722a3daafe3b4186f6b6457e09190a35050565b5f60208284031215610bb5575f5ffd5b5035919050565b5f81518084528060208401602086015e5f602082860101526020601f19601f83011685010191505092915050565b604081525f610bfc6040830185610bbc565b90508260208301529392505050565b602081525f610c1d6020830184610bbc565b9392505050565b5f60208284031215610c34575f5ffd5b81356001600160a01b0381168114610c1d575f5ffd5b634e487b7160e01b5f52604160045260245ffd5b5f60208284031215610c6e575f5ffd5b813567ffffffffffffffff811115610c84575f5ffd5b8201601f81018413610c94575f5ffd5b803567ffffffffffffffff811115610cae57610cae610c4a565b604051601f8201601f19908116603f0116810167ffffffffffffffff81118282101715610cdd57610cdd610c4a565b604052818152828201602001861015610cf4575f5ffd5b816020840160208301375f91810160200191909152949350505050565b634e487b7160e01b5f52602160045260245ffd5b60068110610d4157634e487b7160e01b5f52602160045260245ffd5b9052565b60208101610d538284610d25565b92915050565b6020808252603a908201527f5468697320616374696f6e2069736e277420617661696c61626c6520696e207960408201527f6f75722063757272656e7420776f726b666c6f77207374617465000000000000606082015260800190565b634e487b7160e01b5f52603260045260245ffd5b634e487b7160e01b5f52601160045260245ffd5b80820180821115610d5357610d53610dca565b600181811c90821680610e0557607f821691505b602082108103610e2357634e487b7160e01b5f52602260045260245ffd5b50919050565b60408101610e378285610d25565b610c1d6020830184610d25565b601f821115610e8b57805f5260205f20601f840160051c81016020851015610e695750805b601f840160051c820191505b81811015610e88575f8155600101610e75565b50505b505050565b815167ffffffffffffffff811115610eaa57610eaa610c4a565b610ebe81610eb88454610df1565b84610e44565b6020601f821160018114610ef0575f8315610ed95750848201515b5f19600385901b1c1916600184901b178455610e88565b5f84815260208120601f198516915b82811015610f1f5787850151825560209485019460019092019101610eff565b5084821015610f3c57868401515f19600387901b60f8161c191681555b50505050600190811b01905550565b81810381811115610d5357610d53610dca56fe0a97a4ee45751e2abf3e4fc8946939630b11b371ea8ae39ccdc3056e98f5cc3fa264697066735822122084f08e211ede1268b138e9d86a503350d138edca41e155b5679c24bc84fa834d64736f6c634300081c0033",
  "linkReferences": {},
  "deployedLinkReferences": {},
  "immutableReferences": {},
  "inputSourceName": "project/contracts/Voting.sol",
  "buildInfoId": "solc-0_8_28-5915373b30bd594b7fde53dd940fe96118a343bb"
}