{
  "_format": "hh3-artifact-1",
  "contractName": "DeFiProject",
  "sourceName": "contracts/DeFiProject.sol",
  "abi": [
    {
      "inputs": [
        {
          "internalType": "address",
          "name": "_daiAddress",
          "type": "address"
        }
      ],
      "stateMutability": "nonpayable",
      "type": "constructor"
    },
    {
      "inputs": [
        {
          "internalType": "address",
          "name": "recipient",
          "type": "address"
        },
        {
          "internalType": "uint256",
          "name": "amount",
          "type": "uint256"
        }
      ],
      "name": "foo",
      "outputs": [],
      "stateMutability": "nonpayable",
      "type": "function"
    }
  ],
  "bytecode": "0x6080604052348015600e575f5ffd5b506040516101d13803806101d1833981016040819052602b91604e565b5f80546001600160a01b0319166001600160a01b03929092169190911790556079565b5f60208284031215605d575f5ffd5b81516001600160a01b03811681146072575f5ffd5b9392505050565b61014b806100865f395ff3fe608060405234801561000f575f5ffd5b5060043610610029575f3560e01c8063bd0d639f1461002d575b5f5ffd5b61004061003b3660046100ba565b610042565b005b5f5460405163a9059cbb60e01b81526001600160a01b038481166004830152602482018490529091169063a9059cbb906044016020604051808303815f875af1158015610091573d5f5f3e3d5ffd5b505050506040513d601f19601f820116820180604052508101906100b591906100ef565b505050565b5f5f604083850312156100cb575f5ffd5b82356001600160a01b03811681146100e1575f5ffd5b946020939093013593505050565b5f602082840312156100ff575f5ffd5b8151801515811461010e575f5ffd5b939250505056fea26469706673582212202c06730da9079de073f9e149c594d93a109f9831d7cb1a8e5de0e01687d61eeb64736f6c634300081c0033",
  "linkReferences": {},
  "deployedLinkReferences": {},
  "immutableReferences": {},
  "inputSourceName": "project/contracts/DeFiProject.sol",
  "buildInfoId": "solc-0_8_28-5f80d24dca38f349bd5d9f4318e766ee88159ee2"
}