{
  "_format": "hh3-artifact-1",
  "contractName": "Alyra",
  "sourceName": "contracts/NFT.sol",
  "abi": [
    {
      "inputs": [
        {
          "internalType": "address",
          "name": "initialOwner",
          "type": "address"
        },
        {
          "internalType": "bytes32",
          "name": "_merkleRoot",
          "type": "bytes32"
        }
      ],
      "stateMutability": "nonpayable",
      "type": "constructor"
    },
    {
      "inputs": [],
      "name": "ERC721EnumerableForbiddenBatchMint",
      "type": "error"
    },
    {
      "inputs": [
        {
          "internalType": "address",
          "name": "sender",
          "type": "address"
        },
        {
          "internalType": "uint256",
          "name": "tokenId",
          "type": "uint256"
        },
        {
          "internalType": "address",
          "name": "owner",
          "type": "address"
        }
      ],
      "name": "ERC721IncorrectOwner",
      "type": "error"
    },
    {
      "inputs": [
        {
          "internalType": "address",
          "name": "operator",
          "type": "address"
        },
        {
          "internalType": "uint256",
          "name": "tokenId",
          "type": "uint256"
        }
      ],
      "name": "ERC721InsufficientApproval",
      "type": "error"
    },
    {
      "inputs": [
        {
          "internalType": "address",
          "name": "approver",
          "type": "address"
        }
      ],
      "name": "ERC721InvalidApprover",
      "type": "error"
    },
    {
      "inputs": [
        {
          "internalType": "address",
          "name": "operator",
          "type": "address"
        }
      ],
      "name": "ERC721InvalidOperator",
      "type": "error"
    },
    {
      "inputs": [
        {
          "internalType": "address",
          "name": "owner",
          "type": "address"
        }
      ],
      "name": "ERC721InvalidOwner",
      "type": "error"
    },
    {
      "inputs": [
        {
          "internalType": "address",
          "name": "receiver",
          "type": "address"
        }
      ],
      "name": "ERC721InvalidReceiver",
      "type": "error"
    },
    {
      "inputs": [
        {
          "internalType": "address",
          "name": "sender",
          "type": "address"
        }
      ],
      "name": "ERC721InvalidSender",
      "type": "error"
    },
    {
      "inputs": [
        {
          "internalType": "uint256",
          "name": "tokenId",
          "type": "uint256"
        }
      ],
      "name": "ERC721NonexistentToken",
      "type": "error"
    },
    {
      "inputs": [
        {
          "internalType": "address",
          "name": "owner",
          "type": "address"
        },
        {
          "internalType": "uint256",
          "name": "index",
          "type": "uint256"
        }
      ],
      "name": "ERC721OutOfBoundsIndex",
      "type": "error"
    },
    {
      "inputs": [
        {
          "internalType": "address",
          "name": "owner",
          "type": "address"
        }
      ],
      "name": "OwnableInvalidOwner",
      "type": "error"
    },
    {
      "inputs": [
        {
          "internalType": "address",
          "name": "account",
          "type": "address"
        }
      ],
      "name": "OwnableUnauthorizedAccount",
      "type": "error"
    },
    {
      "anonymous": false,
      "inputs": [
        {
          "indexed": true,
          "internalType": "address",
          "name": "owner",
          "type": "address"
        },
        {
          "indexed": true,
          "internalType": "address",
          "name": "approved",
          "type": "address"
        },
        {
          "indexed": true,
          "internalType": "uint256",
          "name": "tokenId",
          "type": "uint256"
        }
      ],
      "name": "Approval",
      "type": "event"
    },
    {
      "anonymous": false,
      "inputs": [
        {
          "indexed": true,
          "internalType": "address",
          "name": "owner",
          "type": "address"
        },
        {
          "indexed": true,
          "internalType": "address",
          "name": "operator",
          "type": "address"
        },
        {
          "indexed": false,
          "internalType": "bool",
          "name": "approved",
          "type": "bool"
        }
      ],
      "name": "ApprovalForAll",
      "type": "event"
    },
    {
      "anonymous": false,
      "inputs": [
        {
          "indexed": true,
          "internalType": "address",
          "name": "previousOwner",
          "type": "address"
        },
        {
          "indexed": true,
          "internalType": "address",
          "name": "newOwner",
          "type": "address"
        }
      ],
      "name": "OwnershipTransferred",
      "type": "event"
    },
    {
      "anonymous": false,
      "inputs": [
        {
          "indexed": true,
          "internalType": "address",
          "name": "from",
          "type": "address"
        },
        {
          "indexed": true,
          "internalType": "address",
          "name": "to",
          "type": "address"
        },
        {
          "indexed": true,
          "internalType": "uint256",
          "name": "tokenId",
          "type": "uint256"
        }
      ],
      "name": "Transfer",
      "type": "event"
    },
    {
      "inputs": [
        {
          "internalType": "address",
          "name": "to",
          "type": "address"
        },
        {
          "internalType": "uint256",
          "name": "tokenId",
          "type": "uint256"
        }
      ],
      "name": "approve",
      "outputs": [],
      "stateMutability": "nonpayable",
      "type": "function"
    },
    {
      "inputs": [
        {
          "internalType": "address",
          "name": "owner",
          "type": "address"
        }
      ],
      "name": "balanceOf",
      "outputs": [
        {
          "internalType": "uint256",
          "name": "",
          "type": "uint256"
        }
      ],
      "stateMutability": "view",
      "type": "function"
    },
    {
      "inputs": [
        {
          "internalType": "uint256",
          "name": "tokenId",
          "type": "uint256"
        }
      ],
      "name": "getApproved",
      "outputs": [
        {
          "internalType": "address",
          "name": "",
          "type": "address"
        }
      ],
      "stateMutability": "view",
      "type": "function"
    },
    {
      "inputs": [
        {
          "internalType": "address",
          "name": "",
          "type": "address"
        }
      ],
      "name": "hasMinted",
      "outputs": [
        {
          "internalType": "bool",
          "name": "",
          "type": "bool"
        }
      ],
      "stateMutability": "view",
      "type": "function"
    },
    {
      "inputs": [
        {
          "internalType": "address",
          "name": "owner",
          "type": "address"
        },
        {
          "internalType": "address",
          "name": "operator",
          "type": "address"
        }
      ],
      "name": "isApprovedForAll",
      "outputs": [
        {
          "internalType": "bool",
          "name": "",
          "type": "bool"
        }
      ],
      "stateMutability": "view",
      "type": "function"
    },
    {
      "inputs": [],
      "name": "merkleRoot",
      "outputs": [
        {
          "internalType": "bytes32",
          "name": "",
          "type": "bytes32"
        }
      ],
      "stateMutability": "view",
      "type": "function"
    },
    {
      "inputs": [],
      "name": "name",
      "outputs": [
        {
          "internalType": "string",
          "name": "",
          "type": "string"
        }
      ],
      "stateMutability": "view",
      "type": "function"
    },
    {
      "inputs": [],
      "name": "owner",
      "outputs": [
        {
          "internalType": "address",
          "name": "",
          "type": "address"
        }
      ],
      "stateMutability": "view",
      "type": "function"
    },
    {
      "inputs": [
        {
          "internalType": "uint256",
          "name": "tokenId",
          "type": "uint256"
        }
      ],
      "name": "ownerOf",
      "outputs": [
        {
          "internalType": "address",
          "name": "",
          "type": "address"
        }
      ],
      "stateMutability": "view",
      "type": "function"
    },
    {
      "inputs": [],
      "name": "renounceOwnership",
      "outputs": [],
      "stateMutability": "nonpayable",
      "type": "function"
    },
    {
      "inputs": [
        {
          "internalType": "address",
          "name": "to",
          "type": "address"
        },
        {
          "internalType": "bytes32[]",
          "name": "_proof",
          "type": "bytes32[]"
        }
      ],
      "name": "safeMint",
      "outputs": [],
      "stateMutability": "nonpayable",
      "type": "function"
    },
    {
      "inputs": [
        {
          "internalType": "address",
          "name": "from",
          "type": "address"
        },
        {
          "internalType": "address",
          "name": "to",
          "type": "address"
        },
        {
          "internalType": "uint256",
          "name": "tokenId",
          "type": "uint256"
        }
      ],
      "name": "safeTransferFrom",
      "outputs": [],
      "stateMutability": "nonpayable",
      "type": "function"
    },
    {
      "inputs": [
        {
          "internalType": "address",
          "name": "from",
          "type": "address"
        },
        {
          "internalType": "address",
          "name": "to",
          "type": "address"
        },
        {
          "internalType": "uint256",
          "name": "tokenId",
          "type": "uint256"
        },
        {
          "internalType": "bytes",
          "name": "data",
          "type": "bytes"
        }
      ],
      "name": "safeTransferFrom",
      "outputs": [],
      "stateMutability": "nonpayable",
      "type": "function"
    },
    {
      "inputs": [
        {
          "internalType": "address",
          "name": "operator",
          "type": "address"
        },
        {
          "internalType": "bool",
          "name": "approved",
          "type": "bool"
        }
      ],
      "name": "setApprovalForAll",
      "outputs": [],
      "stateMutability": "nonpayable",
      "type": "function"
    },
    {
      "inputs": [
        {
          "internalType": "bytes32",
          "name": "_merkleRoot",
          "type": "bytes32"
        }
      ],
      "name": "setMerkleRoot",
      "outputs": [],
      "stateMutability": "nonpayable",
      "type": "function"
    },
    {
      "inputs": [
        {
          "internalType": "bytes4",
          "name": "interfaceId",
          "type": "bytes4"
        }
      ],
      "name": "supportsInterface",
      "outputs": [
        {
          "internalType": "bool",
          "name": "",
          "type": "bool"
        }
      ],
      "stateMutability": "view",
      "type": "function"
    },
    {
      "inputs": [],
      "name": "symbol",
      "outputs": [
        {
          "internalType": "string",
          "name": "",
          "type": "string"
        }
      ],
      "stateMutability": "view",
      "type": "function"
    },
    {
      "inputs": [
        {
          "internalType": "uint256",
          "name": "index",
          "type": "uint256"
        }
      ],
      "name": "tokenByIndex",
      "outputs": [
        {
          "internalType": "uint256",
          "name": "",
          "type": "uint256"
        }
      ],
      "stateMutability": "view",
      "type": "function"
    },
    {
      "inputs": [
        {
          "internalType": "address",
          "name": "owner",
          "type": "address"
        },
        {
          "internalType": "uint256",
          "name": "index",
          "type": "uint256"
        }
      ],
      "name": "tokenOfOwnerByIndex",
      "outputs": [
        {
          "internalType": "uint256",
          "name": "",
          "type": "uint256"
        }
      ],
      "stateMutability": "view",
      "type": "function"
    },
    {
      "inputs": [
        {
          "internalType": "uint256",
          "name": "tokenId",
          "type": "uint256"
        }
      ],
      "name": "tokenURI",
      "outputs": [
        {
          "internalType": "string",
          "name": "",
          "type": "string"
        }
      ],
      "stateMutability": "view",
      "type": "function"
    },
    {
      "inputs": [],
      "name": "totalSupply",
      "outputs": [
        {
          "internalType": "uint256",
          "name": "",
          "type": "uint256"
        }
      ],
      "stateMutability": "view",
      "type": "function"
    },
    {
      "inputs": [
        {
          "internalType": "address",
          "name": "from",
          "type": "address"
        },
        {
          "internalType": "address",
          "name": "to",
          "type": "address"
        },
        {
          "internalType": "uint256",
          "name": "tokenId",
          "type": "uint256"
        }
      ],
      "name": "transferFrom",
      "outputs": [],
      "stateMutability": "nonpayable",
      "type": "function"
    },
    {
      "inputs": [
        {
          "internalType": "address",
          "name": "newOwner",
          "type": "address"
        }
      ],
      "name": "transferOwnership",
      "outputs": [],
      "stateMutability": "nonpayable",
      "type": "function"
    }
  ],
  "bytecode": "0x608060405234801561000f575f5ffd5b506040516119b93803806119b983398101604081905261002e91610118565b8160405180604001604052806005815260200164416c79726160d81b81525060405180604001604052806003815260200162414c5960e81b815250815f908161007791906101e7565b50600161008482826101e7565b5050506001600160a01b0381166100b457604051631e4fbdf760e01b81525f600482015260240160405180910390fd5b6100bd816100c7565b50600c55506102a1565b600a80546001600160a01b038381166001600160a01b0319831681179093556040519116919082907f8be0079c531659141344cd1fd0a4f28419497f9722a3daafe3b4186f6b6457e0905f90a35050565b5f5f60408385031215610129575f5ffd5b82516001600160a01b038116811461013f575f5ffd5b6020939093015192949293505050565b634e487b7160e01b5f52604160045260245ffd5b600181811c9082168061017757607f821691505b60208210810361019557634e487b7160e01b5f52602260045260245ffd5b50919050565b601f8211156101e257805f5260205f20601f840160051c810160208510156101c05750805b601f840160051c820191505b818110156101df575f81556001016101cc565b50505b505050565b81516001600160401b038111156102005761020061014f565b6102148161020e8454610163565b8461019b565b6020601f821160018114610246575f831561022f5750848201515b5f19600385901b1c1916600184901b1784556101df565b5f84815260208120601f198516915b828110156102755787850151825560209485019460019092019101610255565b508482101561029257868401515f19600387901b60f8161c191681555b50505050600190811b01905550565b61170b806102ae5f395ff3fe608060405234801561000f575f5ffd5b5060043610610148575f3560e01c80634f6ccce7116100bf57806395d89b411161007957806395d89b41146102b7578063a22cb465146102bf578063b88d4fde146102d2578063c87b56dd146102e5578063e985e9c5146102f8578063f2fde38b1461030b575f5ffd5b80634f6ccce7146102525780636352211e1461026557806370a0823114610278578063715018a61461028b5780637cb64759146102935780638da5cb5b146102a6575f5ffd5b806323b872dd1161011057806323b872dd146101db5780632eb4a7ab146101ee5780632f745c59146101f7578063312237cd1461020a57806338e21cce1461021d57806342842e0e1461023f575f5ffd5b806301ffc9a71461014c57806306fdde0314610174578063081812fc14610189578063095ea7b3146101b457806318160ddd146101c9575b5f5ffd5b61015f61015a3660046112d0565b61031e565b60405190151581526020015b60405180910390f35b61017c61032e565b60405161016b9190611319565b61019c61019736600461132b565b6103bd565b6040516001600160a01b03909116815260200161016b565b6101c76101c236600461135d565b6103e4565b005b6008545b60405190815260200161016b565b6101c76101e9366004611385565b6103f3565b6101cd600c5481565b6101cd61020536600461135d565b610481565b6101c76102183660046113bf565b6104e4565b61015f61022b366004611440565b600d6020525f908152604090205460ff1681565b6101c761024d366004611385565b6105b5565b6101cd61026036600461132b565b6105d4565b61019c61027336600461132b565b610629565b6101cd610286366004611440565b610633565b6101c7610678565b6101c76102a136600461132b565b61068b565b600a546001600160a01b031661019c565b61017c610698565b6101c76102cd366004611459565b6106a7565b6101c76102e03660046114a6565b6106b2565b61017c6102f336600461132b565b6106ca565b61015f610306366004611583565b61073b565b6101c7610319366004611440565b610768565b5f610328826107a5565b92915050565b60605f805461033c906115b4565b80601f0160208091040260200160405190810160405280929190818152602001828054610368906115b4565b80156103b35780601f1061038a576101008083540402835291602001916103b3565b820191905f5260205f20905b81548152906001019060200180831161039657829003601f168201915b5050505050905090565b5f6103c7826107c9565b505f828152600460205260409020546001600160a01b0316610328565b6103ef828233610801565b5050565b6001600160a01b03821661042157604051633250574960e11b81525f60048201526024015b60405180910390fd5b5f61042d83833361080e565b9050836001600160a01b0316816001600160a01b03161461047b576040516364283d7b60e01b81526001600160a01b0380861660048301526024820184905282166044820152606401610418565b50505050565b5f61048b83610633565b82106104bc5760405163295f44f760e21b81526001600160a01b038416600482015260248101839052604401610418565b506001600160a01b03919091165f908152600660209081526040808320938352929052205490565b6104ef338383610822565b61052d5760405162461bcd60e51b815260206004820152600f60248201526e139bdd0815da1a5d195b1a5cdd1959608a1b6044820152606401610418565b335f908152600d602052604090205460ff161561057d5760405162461bcd60e51b815260206004820152600e60248201526d105b1c9958591e481b5a5b9d195960921b6044820152606401610418565b335f908152600d60205260408120805460ff19166001179055600b805490826105a583611600565b91905055905061047b84826108b8565b6105cf83838360405180602001604052805f8152506106b2565b505050565b5f6105de60085490565b82106106065760405163295f44f760e21b81525f600482015260248101839052604401610418565b6008828154811061061957610619611618565b905f5260205f2001549050919050565b5f610328826107c9565b5f6001600160a01b03821661065d576040516322718ad960e21b81525f6004820152602401610418565b506001600160a01b03165f9081526003602052604090205490565b6106806108d1565b6106895f6108fe565b565b6106936108d1565b600c55565b60606001805461033c906115b4565b6103ef33838361094f565b6106bd8484846103f3565b61047b33858585856109ed565b60606106d5826107c9565b505f6106eb60408051602081019091525f815290565b90505f8151116107095760405180602001604052805f815250610734565b8061071384610b15565b604051602001610724929190611643565b6040516020818303038152906040525b9392505050565b6001600160a01b039182165f90815260056020908152604080832093909416825291909152205460ff1690565b6107706108d1565b6001600160a01b03811661079957604051631e4fbdf760e01b81525f6004820152602401610418565b6107a2816108fe565b50565b5f6001600160e01b0319821663780e9d6360e01b1480610328575061032882610ba5565b5f818152600260205260408120546001600160a01b03168061032857604051637e27328960e01b815260048101849052602401610418565b6105cf8383836001610bf4565b5f61081a848484610cf8565b949350505050565b604080516001600160a01b03851660208201525f9182910160408051601f19818403018152828252805160209182012090830152016040516020818303038152906040528051906020012090506108af8484808060200260200160405190810160405280939291908181526020018383602002808284375f9201919091525050600c549150849050610dc3565b95945050505050565b6103ef828260405180602001604052805f815250610dd8565b600a546001600160a01b031633146106895760405163118cdaa760e01b8152336004820152602401610418565b600a80546001600160a01b038381166001600160a01b0319831681179093556040519116919082907f8be0079c531659141344cd1fd0a4f28419497f9722a3daafe3b4186f6b6457e0905f90a35050565b6001600160a01b03821661098157604051630b61174360e31b81526001600160a01b0383166004820152602401610418565b6001600160a01b038381165f81815260056020908152604080832094871680845294825291829020805460ff191686151590811790915591519182527f17307eab39ab6107e8899845ad3d59bd9653f200f220920489ca2b5937696c31910160405180910390a3505050565b6001600160a01b0383163b15610b0e57604051630a85bd0160e11b81526001600160a01b0384169063150b7a0290610a2f908890889087908790600401611657565b6020604051808303815f875af1925050508015610a69575060408051601f3d908101601f19168201909252610a6691810190611693565b60015b610ad0573d808015610a96576040519150601f19603f3d011682016040523d82523d5f602084013e610a9b565b606091505b5080515f03610ac857604051633250574960e11b81526001600160a01b0385166004820152602401610418565b805160208201fd5b6001600160e01b03198116630a85bd0160e11b14610b0c57604051633250574960e11b81526001600160a01b0385166004820152602401610418565b505b5050505050565b60605f610b2183610def565b60010190505f8167ffffffffffffffff811115610b4057610b40611492565b6040519080825280601f01601f191660200182016040528015610b6a576020820181803683370190505b5090508181016020015b5f19016f181899199a1a9b1b9c1cb0b131b232b360811b600a86061a8153600a8504945084610b7457509392505050565b5f6001600160e01b031982166380ac58cd60e01b1480610bd557506001600160e01b03198216635b5e139f60e01b145b8061032857506301ffc9a760e01b6001600160e01b0319831614610328565b8080610c0857506001600160a01b03821615155b15610cc9575f610c17846107c9565b90506001600160a01b03831615801590610c435750826001600160a01b0316816001600160a01b031614155b8015610c565750610c54818461073b565b155b15610c7f5760405163a9fbf51f60e01b81526001600160a01b0384166004820152602401610418565b8115610cc75783856001600160a01b0316826001600160a01b03167f8c5be1e5ebec7d5bd14f71427d1e84f3dd0314c0f7b2291e5b200ac8c7c3b92560405160405180910390a45b505b50505f90815260046020526040902080546001600160a01b0319166001600160a01b0392909216919091179055565b5f5f610d05858585610ec6565b90506001600160a01b038116610d6157610d5c84600880545f838152600960205260408120829055600182018355919091527ff3f7a9fe364faab93b216da50a3214154f22a0a2b415b23a84c8169e8b636ee30155565b610d84565b846001600160a01b0316816001600160a01b031614610d8457610d848185610fb8565b6001600160a01b038516610da057610d9b84611035565b61081a565b846001600160a01b0316816001600160a01b03161461081a5761081a85856110dc565b5f82610dcf858461112a565b14949350505050565b610de2838361116c565b6105cf335f8585856109ed565b5f8072184f03e93ff9f4daa797ed6e38ed64bf6a1f0160401b8310610e2d5772184f03e93ff9f4daa797ed6e38ed64bf6a1f0160401b830492506040015b6d04ee2d6d415b85acef81000000008310610e59576d04ee2d6d415b85acef8100000000830492506020015b662386f26fc100008310610e7757662386f26fc10000830492506010015b6305f5e1008310610e8f576305f5e100830492506008015b6127108310610ea357612710830492506004015b60648310610eb5576064830492506002015b600a83106103285760010192915050565b5f828152600260205260408120546001600160a01b0390811690831615610ef257610ef28184866111cd565b6001600160a01b03811615610f2c57610f0d5f855f5f610bf4565b6001600160a01b0381165f90815260036020526040902080545f190190555b6001600160a01b03851615610f5a576001600160a01b0385165f908152600360205260409020805460010190555b5f8481526002602052604080822080546001600160a01b0319166001600160a01b0389811691821790925591518793918516917fddf252ad1be2c89b69c2b068fc378daa952ba7f163c4a11628f55a4df523b3ef91a4949350505050565b5f610fc283610633565b5f838152600760209081526040808320546001600160a01b0388168452600690925290912091925090818314611017575f83815260208281526040808320548584528184208190558352600790915290208290555b5f938452600760209081526040808620869055938552525081205550565b6008545f90611046906001906116ae565b5f838152600960205260408120546008805493945090928490811061106d5761106d611618565b905f5260205f2001549050806008838154811061108c5761108c611618565b5f9182526020808320909101929092558281526009909152604080822084905585825281205560088054806110c3576110c36116c1565b600190038181905f5260205f20015f9055905550505050565b5f60016110e884610633565b6110f291906116ae565b6001600160a01b039093165f908152600660209081526040808320868452825280832085905593825260079052919091209190915550565b5f81815b84518110156111645761115a8286838151811061114d5761114d611618565b6020026020010151611231565b915060010161112e565b509392505050565b6001600160a01b03821661119557604051633250574960e11b81525f6004820152602401610418565b5f6111a183835f61080e565b90506001600160a01b038116156105cf576040516339e3563760e11b81525f6004820152602401610418565b6111d883838361125a565b6105cf576001600160a01b03831661120657604051637e27328960e01b815260048101829052602401610418565b60405163177e802f60e01b81526001600160a01b038316600482015260248101829052604401610418565b5f81831061124b575f828152602084905260409020610734565b505f9182526020526040902090565b5f6001600160a01b0383161580159061081a5750826001600160a01b0316846001600160a01b031614806112935750611293848461073b565b8061081a5750505f908152600460205260409020546001600160a01b03908116911614919050565b6001600160e01b0319811681146107a2575f5ffd5b5f602082840312156112e0575f5ffd5b8135610734816112bb565b5f81518084528060208401602086015e5f602082860101526020601f19601f83011685010191505092915050565b602081525f61073460208301846112eb565b5f6020828403121561133b575f5ffd5b5035919050565b80356001600160a01b0381168114611358575f5ffd5b919050565b5f5f6040838503121561136e575f5ffd5b61137783611342565b946020939093013593505050565b5f5f5f60608486031215611397575f5ffd5b6113a084611342565b92506113ae60208501611342565b929592945050506040919091013590565b5f5f5f604084860312156113d1575f5ffd5b6113da84611342565b9250602084013567ffffffffffffffff8111156113f5575f5ffd5b8401601f81018613611405575f5ffd5b803567ffffffffffffffff81111561141b575f5ffd5b8660208260051b840101111561142f575f5ffd5b939660209190910195509293505050565b5f60208284031215611450575f5ffd5b61073482611342565b5f5f6040838503121561146a575f5ffd5b61147383611342565b915060208301358015158114611487575f5ffd5b809150509250929050565b634e487b7160e01b5f52604160045260245ffd5b5f5f5f5f608085870312156114b9575f5ffd5b6114c285611342565b93506114d060208601611342565b925060408501359150606085013567ffffffffffffffff8111156114f2575f5ffd5b8501601f81018713611502575f5ffd5b803567ffffffffffffffff81111561151c5761151c611492565b604051601f8201601f19908116603f0116810167ffffffffffffffff8111828210171561154b5761154b611492565b604052818152828201602001891015611562575f5ffd5b816020840160208301375f6020838301015280935050505092959194509250565b5f5f60408385031215611594575f5ffd5b61159d83611342565b91506115ab60208401611342565b90509250929050565b600181811c908216806115c857607f821691505b6020821081036115e657634e487b7160e01b5f52602260045260245ffd5b50919050565b634e487b7160e01b5f52601160045260245ffd5b5f60018201611611576116116115ec565b5060010190565b634e487b7160e01b5f52603260045260245ffd5b5f81518060208401855e5f93019283525090919050565b5f61081a611651838661162c565b8461162c565b6001600160a01b03858116825284166020820152604081018390526080606082018190525f90611689908301846112eb565b9695505050505050565b5f602082840312156116a3575f5ffd5b8151610734816112bb565b81810381811115610328576103286115ec565b634e487b7160e01b5f52603160045260245ffdfea2646970667358221220b444b21a583085318305944bfcf01ae738d091b84960e72fac7805963b8c5a2a64736f6c634300081c0033",
  "linkReferences": {},
  "deployedLinkReferences": {},
  "immutableReferences": {},
  "inputSourceName": "project/contracts/NFT.sol",
  "buildInfoId": "solc-0_8_28-94f42d112baa41803bc0a533ec58cfa31acbb5b9"
}